{
	"FZF/FreeZenonFriday.sol": {
		"FreeZenonFriday": {
			"abi": [
				{
					"inputs": [],
					"stateMutability": "nonpayable",
					"type": "constructor"
				},
				{
					"anonymous": false,
					"inputs": [
						{
							"indexed": false,
							"internalType": "address",
							"name": "participant",
							"type": "address"
						}
					],
					"name": "NewEntry",
					"type": "event"
				},
				{
					"anonymous": false,
					"inputs": [
						{
							"indexed": false,
							"internalType": "address",
							"name": "firstWinner",
							"type": "address"
						},
						{
							"indexed": false,
							"internalType": "uint256",
							"name": "firstAmount",
							"type": "uint256"
						},
						{
							"indexed": false,
							"internalType": "address",
							"name": "secondWinner",
							"type": "address"
						},
						{
							"indexed": false,
							"internalType": "uint256",
							"name": "secondAmount",
							"type": "uint256"
						}
					],
					"name": "WinnersSelected",
					"type": "event"
				},
				{
					"anonymous": false,
					"inputs": [
						{
							"indexed": false,
							"internalType": "address",
							"name": "to",
							"type": "address"
						},
						{
							"indexed": false,
							"internalType": "uint256",
							"name": "amount",
							"type": "uint256"
						}
					],
					"name": "Withdrawn",
					"type": "event"
				},
				{
					"inputs": [],
					"name": "enter",
					"outputs": [],
					"stateMutability": "payable",
					"type": "function"
				},
				{
					"inputs": [],
					"name": "entryFee",
					"outputs": [
						{
							"internalType": "uint256",
							"name": "",
							"type": "uint256"
						}
					],
					"stateMutability": "view",
					"type": "function"
				},
				{
					"inputs": [],
					"name": "firstPrize",
					"outputs": [
						{
							"internalType": "uint256",
							"name": "",
							"type": "uint256"
						}
					],
					"stateMutability": "view",
					"type": "function"
				},
				{
					"inputs": [],
					"name": "getParticipantCount",
					"outputs": [
						{
							"internalType": "uint256",
							"name": "",
							"type": "uint256"
						}
					],
					"stateMutability": "view",
					"type": "function"
				},
				{
					"inputs": [],
					"name": "isActive",
					"outputs": [
						{
							"internalType": "bool",
							"name": "",
							"type": "bool"
						}
					],
					"stateMutability": "view",
					"type": "function"
				},
				{
					"inputs": [],
					"name": "nextDrawTime",
					"outputs": [
						{
							"internalType": "uint256",
							"name": "",
							"type": "uint256"
						}
					],
					"stateMutability": "view",
					"type": "function"
				},
				{
					"inputs": [],
					"name": "owner",
					"outputs": [
						{
							"internalType": "address",
							"name": "",
							"type": "address"
						}
					],
					"stateMutability": "view",
					"type": "function"
				},
				{
					"inputs": [
						{
							"internalType": "uint256",
							"name": "",
							"type": "uint256"
						}
					],
					"name": "participants",
					"outputs": [
						{
							"internalType": "address",
							"name": "",
							"type": "address"
						}
					],
					"stateMutability": "view",
					"type": "function"
				},
				{
					"inputs": [],
					"name": "secondPrize",
					"outputs": [
						{
							"internalType": "uint256",
							"name": "",
							"type": "uint256"
						}
					],
					"stateMutability": "view",
					"type": "function"
				},
				{
					"inputs": [],
					"name": "selectWinners",
					"outputs": [],
					"stateMutability": "nonpayable",
					"type": "function"
				},
				{
					"inputs": [
						{
							"internalType": "uint256",
							"name": "newFee",
							"type": "uint256"
						}
					],
					"name": "setEntryFee",
					"outputs": [],
					"stateMutability": "nonpayable",
					"type": "function"
				},
				{
					"inputs": [],
					"name": "startCompetition",
					"outputs": [],
					"stateMutability": "nonpayable",
					"type": "function"
				},
				{
					"inputs": [],
					"name": "withdraw",
					"outputs": [],
					"stateMutability": "nonpayable",
					"type": "function"
				},
				{
					"stateMutability": "payable",
					"type": "receive"
				}
			],
			"devdoc": {
				"kind": "dev",
				"methods": {},
				"version": 1
			},
			"evm": {
				"assembly": "    /* \"FZF/FreeZenonFriday.sol\":57:2626  contract FreeZenonFriday {... */\n  mstore(0x40, 0x80)\n    /* \"FZF/FreeZenonFriday.sol\":140:141  0 */\n  0x00\n    /* \"FZF/FreeZenonFriday.sol\":114:141  uint256 public entryFee = 0 */\n  0x01\n  sstore\n    /* \"FZF/FreeZenonFriday.sol\":175:184  2.1 ether */\n  0x1d24b2dfac520000\n    /* \"FZF/FreeZenonFriday.sol\":147:184  uint256 public firstPrize = 2.1 ether */\n  0x02\n  sstore\n    /* \"FZF/FreeZenonFriday.sol\":219:228  0.9 ether */\n  0x0c7d713b49da0000\n    /* \"FZF/FreeZenonFriday.sol\":190:228  uint256 public secondPrize = 0.9 ether */\n  0x03\n  sstore\n    /* \"FZF/FreeZenonFriday.sol\":325:330  false */\n  0x00\n    /* \"FZF/FreeZenonFriday.sol\":302:330  bool public isActive = false */\n  0x06\n  exp(0x0100, 0x00)\n  dup2\n  sload\n  dup2\n  0xff\n  mul\n  not\n  and\n  swap1\n  dup4\n  iszero\n  iszero\n  mul\n  or\n  swap1\n  sstore\n  pop\n    /* \"FZF/FreeZenonFriday.sol\":578:698  constructor() {... */\n  callvalue\n  dup1\n  iszero\n  tag_1\n  jumpi\n  0x00\n  dup1\n  revert\ntag_1:\n  pop\n    /* \"FZF/FreeZenonFriday.sol\":610:620  msg.sender */\n  caller\n    /* \"FZF/FreeZenonFriday.sol\":602:607  owner */\n  0x00\n  dup1\n    /* \"FZF/FreeZenonFriday.sol\":602:620  owner = msg.sender */\n  0x0100\n  exp\n  dup2\n  sload\n  dup2\n  0xffffffffffffffffffffffffffffffffffffffff\n  mul\n  not\n  and\n  swap1\n  dup4\n  0xffffffffffffffffffffffffffffffffffffffff\n  and\n  mul\n  or\n  swap1\n  sstore\n  pop\n    /* \"FZF/FreeZenonFriday.sol\":645:655  1743796800 */\n  0x67f03a40\n    /* \"FZF/FreeZenonFriday.sol\":630:642  nextDrawTime */\n  0x05\n    /* \"FZF/FreeZenonFriday.sol\":630:655  nextDrawTime = 1743796800 */\n  dup2\n  swap1\n  sstore\n  pop\n    /* \"FZF/FreeZenonFriday.sol\":57:2626  contract FreeZenonFriday {... */\n  dataSize(sub_0)\n  dup1\n  dataOffset(sub_0)\n  0x00\n  codecopy\n  0x00\n  return\nstop\n\nsub_0: assembly {\n        /* \"FZF/FreeZenonFriday.sol\":57:2626  contract FreeZenonFriday {... */\n      mstore(0x40, 0x80)\n      jumpi(tag_1, lt(calldatasize, 0x04))\n      shr(0xe0, calldataload(0x00))\n      dup1\n      0x3d70bc52\n      gt\n      tag_16\n      jumpi\n      dup1\n      0xad605729\n      gt\n      tag_17\n      jumpi\n      dup1\n      0xad605729\n      eq\n      tag_12\n      jumpi\n      dup1\n      0xd3e66a9e\n      eq\n      tag_13\n      jumpi\n      dup1\n      0xe97dcb62\n      eq\n      tag_14\n      jumpi\n      dup1\n      0xeb770d0c\n      eq\n      tag_15\n      jumpi\n      jump(tag_2)\n    tag_17:\n      dup1\n      0x3d70bc52\n      eq\n      tag_9\n      jumpi\n      dup1\n      0x74f47a7a\n      eq\n      tag_10\n      jumpi\n      dup1\n      0x8da5cb5b\n      eq\n      tag_11\n      jumpi\n      jump(tag_2)\n    tag_16:\n      dup1\n      0x072ea61c\n      eq\n      tag_3\n      jumpi\n      dup1\n      0x1a0de74c\n      eq\n      tag_4\n      jumpi\n      dup1\n      0x22f3e2d4\n      eq\n      tag_5\n      jumpi\n      dup1\n      0x2e98520c\n      eq\n      tag_6\n      jumpi\n      dup1\n      0x35c1d349\n      eq\n      tag_7\n      jumpi\n      dup1\n      0x3ccfd60b\n      eq\n      tag_8\n      jumpi\n      jump(tag_2)\n    tag_1:\n      jumpi(tag_2, calldatasize)\n      stop\n    tag_2:\n      0x00\n      dup1\n      revert\n        /* \"FZF/FreeZenonFriday.sol\":114:141  uint256 public entryFee = 0 */\n    tag_3:\n      callvalue\n      dup1\n      iszero\n      tag_20\n      jumpi\n      0x00\n      dup1\n      revert\n    tag_20:\n      pop\n      tag_21\n      tag_22\n      jump\t// in\n    tag_21:\n      mload(0x40)\n      tag_23\n      swap2\n      swap1\n      tag_24\n      jump\t// in\n    tag_23:\n      mload(0x40)\n      dup1\n      swap2\n      sub\n      swap1\n      return\n        /* \"FZF/FreeZenonFriday.sol\":1013:1935  function selectWinners() external {... */\n    tag_4:\n      callvalue\n      dup1\n      iszero\n      tag_25\n      jumpi\n      0x00\n      dup1\n      revert\n    tag_25:\n      pop\n      tag_26\n      tag_27\n      jump\t// in\n    tag_26:\n      stop\n        /* \"FZF/FreeZenonFriday.sol\":302:330  bool public isActive = false */\n    tag_5:\n      callvalue\n      dup1\n      iszero\n      tag_28\n      jumpi\n      0x00\n      dup1\n      revert\n    tag_28:\n      pop\n      tag_29\n      tag_30\n      jump\t// in\n    tag_29:\n      mload(0x40)\n      tag_31\n      swap2\n      swap1\n      tag_32\n      jump\t// in\n    tag_31:\n      mload(0x40)\n      dup1\n      swap2\n      sub\n      swap1\n      return\n        /* \"FZF/FreeZenonFriday.sol\":147:184  uint256 public firstPrize = 2.1 ether */\n    tag_6:\n      callvalue\n      dup1\n      iszero\n      tag_33\n      jumpi\n      0x00\n      dup1\n      revert\n    tag_33:\n      pop\n      tag_34\n      tag_35\n      jump\t// in\n    tag_34:\n      mload(0x40)\n      tag_36\n      swap2\n      swap1\n      tag_24\n      jump\t// in\n    tag_36:\n      mload(0x40)\n      dup1\n      swap2\n      sub\n      swap1\n      return\n        /* \"FZF/FreeZenonFriday.sol\":234:263  address[] public participants */\n    tag_7:\n      callvalue\n      dup1\n      iszero\n      tag_37\n      jumpi\n      0x00\n      dup1\n      revert\n    tag_37:\n      pop\n      tag_38\n      0x04\n      dup1\n      calldatasize\n      sub\n      dup2\n      add\n      swap1\n      tag_39\n      swap2\n      swap1\n      tag_40\n      jump\t// in\n    tag_39:\n      tag_41\n      jump\t// in\n    tag_38:\n      mload(0x40)\n      tag_42\n      swap2\n      swap1\n      tag_43\n      jump\t// in\n    tag_42:\n      mload(0x40)\n      dup1\n      swap2\n      sub\n      swap1\n      return\n        /* \"FZF/FreeZenonFriday.sol\":2206:2479  function withdraw() external {... */\n    tag_8:\n      callvalue\n      dup1\n      iszero\n      tag_44\n      jumpi\n      0x00\n      dup1\n      revert\n    tag_44:\n      pop\n      tag_45\n      tag_46\n      jump\t// in\n    tag_45:\n      stop\n        /* \"FZF/FreeZenonFriday.sol\":190:228  uint256 public secondPrize = 0.9 ether */\n    tag_9:\n      callvalue\n      dup1\n      iszero\n      tag_47\n      jumpi\n      0x00\n      dup1\n      revert\n    tag_47:\n      pop\n      tag_48\n      tag_49\n      jump\t// in\n    tag_48:\n      mload(0x40)\n      tag_50\n      swap2\n      swap1\n      tag_24\n      jump\t// in\n    tag_50:\n      mload(0x40)\n      dup1\n      swap2\n      sub\n      swap1\n      return\n        /* \"FZF/FreeZenonFriday.sol\":269:296  uint256 public nextDrawTime */\n    tag_10:\n      callvalue\n      dup1\n      iszero\n      tag_51\n      jumpi\n      0x00\n      dup1\n      revert\n    tag_51:\n      pop\n      tag_52\n      tag_53\n      jump\t// in\n    tag_52:\n      mload(0x40)\n      tag_54\n      swap2\n      swap1\n      tag_24\n      jump\t// in\n    tag_54:\n      mload(0x40)\n      dup1\n      swap2\n      sub\n      swap1\n      return\n        /* \"FZF/FreeZenonFriday.sol\":88:108  address public owner */\n    tag_11:\n      callvalue\n      dup1\n      iszero\n      tag_55\n      jumpi\n      0x00\n      dup1\n      revert\n    tag_55:\n      pop\n      tag_56\n      tag_57\n      jump\t// in\n    tag_56:\n      mload(0x40)\n      tag_58\n      swap2\n      swap1\n      tag_43\n      jump\t// in\n    tag_58:\n      mload(0x40)\n      dup1\n      swap2\n      sub\n      swap1\n      return\n        /* \"FZF/FreeZenonFriday.sol\":2485:2589  function getParticipantCount() public view returns (uint256) {... */\n    tag_12:\n      callvalue\n      dup1\n      iszero\n      tag_59\n      jumpi\n      0x00\n      dup1\n      revert\n    tag_59:\n      pop\n      tag_60\n      tag_61\n      jump\t// in\n    tag_60:\n      mload(0x40)\n      tag_62\n      swap2\n      swap1\n      tag_24\n      jump\t// in\n    tag_62:\n      mload(0x40)\n      dup1\n      swap2\n      sub\n      swap1\n      return\n        /* \"FZF/FreeZenonFriday.sol\":1941:2062  function startCompetition() external {... */\n    tag_13:\n      callvalue\n      dup1\n      iszero\n      tag_63\n      jumpi\n      0x00\n      dup1\n      revert\n    tag_63:\n      pop\n      tag_64\n      tag_65\n      jump\t// in\n    tag_64:\n      stop\n        /* \"FZF/FreeZenonFriday.sol\":704:1007  function enter() external payable {... */\n    tag_14:\n      tag_66\n      tag_67\n      jump\t// in\n    tag_66:\n      stop\n        /* \"FZF/FreeZenonFriday.sol\":2068:2200  function setEntryFee(uint256 newFee) external {... */\n    tag_15:\n      callvalue\n      dup1\n      iszero\n      tag_68\n      jumpi\n      0x00\n      dup1\n      revert\n    tag_68:\n      pop\n      tag_69\n      0x04\n      dup1\n      calldatasize\n      sub\n      dup2\n      add\n      swap1\n      tag_70\n      swap2\n      swap1\n      tag_40\n      jump\t// in\n    tag_70:\n      tag_71\n      jump\t// in\n    tag_69:\n      stop\n        /* \"FZF/FreeZenonFriday.sol\":114:141  uint256 public entryFee = 0 */\n    tag_22:\n      sload(0x01)\n      dup2\n      jump\t// out\n        /* \"FZF/FreeZenonFriday.sol\":1013:1935  function selectWinners() external {... */\n    tag_27:\n        /* \"FZF/FreeZenonFriday.sol\":1079:1084  owner */\n      0x00\n      dup1\n      sload\n      swap1\n      0x0100\n      exp\n      swap1\n      div\n      0xffffffffffffffffffffffffffffffffffffffff\n      and\n        /* \"FZF/FreeZenonFriday.sol\":1065:1084  msg.sender == owner */\n      0xffffffffffffffffffffffffffffffffffffffff\n      and\n        /* \"FZF/FreeZenonFriday.sol\":1065:1075  msg.sender */\n      caller\n        /* \"FZF/FreeZenonFriday.sol\":1065:1084  msg.sender == owner */\n      0xffffffffffffffffffffffffffffffffffffffff\n      and\n      eq\n        /* \"FZF/FreeZenonFriday.sol\":1057:1116  require(msg.sender == owner, \"Only owner can pick winners\") */\n      tag_73\n      jumpi\n      mload(0x40)\n      0x08c379a000000000000000000000000000000000000000000000000000000000\n      dup2\n      mstore\n      0x04\n      add\n      tag_74\n      swap1\n      tag_75\n      jump\t// in\n    tag_74:\n      mload(0x40)\n      dup1\n      swap2\n      sub\n      swap1\n      revert\n    tag_73:\n        /* \"FZF/FreeZenonFriday.sol\":1153:1165  nextDrawTime */\n      sload(0x05)\n        /* \"FZF/FreeZenonFriday.sol\":1134:1149  block.timestamp */\n      timestamp\n        /* \"FZF/FreeZenonFriday.sol\":1134:1165  block.timestamp >= nextDrawTime */\n      lt\n      iszero\n        /* \"FZF/FreeZenonFriday.sol\":1126:1179  require(block.timestamp >= nextDrawTime, \"Too early\") */\n      tag_76\n      jumpi\n      mload(0x40)\n      0x08c379a000000000000000000000000000000000000000000000000000000000\n      dup2\n      mstore\n      0x04\n      add\n      tag_77\n      swap1\n      tag_78\n      jump\t// in\n    tag_77:\n      mload(0x40)\n      dup1\n      swap2\n      sub\n      swap1\n      revert\n    tag_76:\n        /* \"FZF/FreeZenonFriday.sol\":1220:1221  2 */\n      0x02\n        /* \"FZF/FreeZenonFriday.sol\":1197:1209  participants */\n      0x04\n        /* \"FZF/FreeZenonFriday.sol\":1197:1216  participants.length */\n      dup1\n      sload\n      swap1\n      pop\n        /* \"FZF/FreeZenonFriday.sol\":1197:1221  participants.length >= 2 */\n      lt\n      iszero\n        /* \"FZF/FreeZenonFriday.sol\":1189:1249  require(participants.length >= 2, \"Need at least 2 players\") */\n      tag_79\n      jumpi\n      mload(0x40)\n      0x08c379a000000000000000000000000000000000000000000000000000000000\n      dup2\n      mstore\n      0x04\n      add\n      tag_80\n      swap1\n      tag_81\n      jump\t// in\n    tag_80:\n      mload(0x40)\n      dup1\n      swap2\n      sub\n      swap1\n      revert\n    tag_79:\n        /* \"FZF/FreeZenonFriday.sol\":1260:1275  uint256 random1 */\n      0x00\n        /* \"FZF/FreeZenonFriday.sol\":1334:1346  participants */\n      0x04\n        /* \"FZF/FreeZenonFriday.sol\":1334:1353  participants.length */\n      dup1\n      sload\n      swap1\n      pop\n        /* \"FZF/FreeZenonFriday.sol\":1313:1328  block.timestamp */\n      timestamp\n        /* \"FZF/FreeZenonFriday.sol\":1296:1329  abi.encodePacked(block.timestamp) */\n      add(0x20, mload(0x40))\n      tag_82\n      swap2\n      swap1\n      tag_83\n      jump\t// in\n    tag_82:\n      mload(0x40)\n      0x20\n      dup2\n      dup4\n      sub\n      sub\n      dup2\n      mstore\n      swap1\n      0x40\n      mstore\n        /* \"FZF/FreeZenonFriday.sol\":1286:1330  keccak256(abi.encodePacked(block.timestamp)) */\n      dup1\n      mload\n      swap1\n      0x20\n      add\n      keccak256\n        /* \"FZF/FreeZenonFriday.sol\":1278:1331  uint256(keccak256(abi.encodePacked(block.timestamp))) */\n      0x00\n      shr\n        /* \"FZF/FreeZenonFriday.sol\":1278:1353  uint256(keccak256(abi.encodePacked(block.timestamp))) % participants.length */\n      tag_84\n      swap2\n      swap1\n      tag_85\n      jump\t// in\n    tag_84:\n        /* \"FZF/FreeZenonFriday.sol\":1260:1353  uint256 random1 = uint256(keccak256(abi.encodePacked(block.timestamp))) % participants.length */\n      swap1\n      pop\n        /* \"FZF/FreeZenonFriday.sol\":1363:1382  address firstWinner */\n      0x00\n        /* \"FZF/FreeZenonFriday.sol\":1385:1397  participants */\n      0x04\n        /* \"FZF/FreeZenonFriday.sol\":1398:1405  random1 */\n      dup3\n        /* \"FZF/FreeZenonFriday.sol\":1385:1406  participants[random1] */\n      dup2\n      sload\n      dup2\n      lt\n      tag_86\n      jumpi\n      tag_87\n      tag_88\n      jump\t// in\n    tag_87:\n    tag_86:\n      swap1\n      0x00\n      mstore\n      keccak256(0x00, 0x20)\n      add\n      0x00\n      swap1\n      sload\n      swap1\n      0x0100\n      exp\n      swap1\n      div\n      0xffffffffffffffffffffffffffffffffffffffff\n      and\n        /* \"FZF/FreeZenonFriday.sol\":1363:1406  address firstWinner = participants[random1] */\n      swap1\n      pop\n        /* \"FZF/FreeZenonFriday.sol\":1440:1452  participants */\n      0x04\n        /* \"FZF/FreeZenonFriday.sol\":1475:1476  1 */\n      0x01\n        /* \"FZF/FreeZenonFriday.sol\":1453:1465  participants */\n      0x04\n        /* \"FZF/FreeZenonFriday.sol\":1453:1472  participants.length */\n      dup1\n      sload\n      swap1\n      pop\n        /* \"FZF/FreeZenonFriday.sol\":1453:1476  participants.length - 1 */\n      tag_90\n      swap2\n      swap1\n      tag_91\n      jump\t// in\n    tag_90:\n        /* \"FZF/FreeZenonFriday.sol\":1440:1477  participants[participants.length - 1] */\n      dup2\n      sload\n      dup2\n      lt\n      tag_92\n      jumpi\n      tag_93\n      tag_88\n      jump\t// in\n    tag_93:\n    tag_92:\n      swap1\n      0x00\n      mstore\n      keccak256(0x00, 0x20)\n      add\n      0x00\n      swap1\n      sload\n      swap1\n      0x0100\n      exp\n      swap1\n      div\n      0xffffffffffffffffffffffffffffffffffffffff\n      and\n        /* \"FZF/FreeZenonFriday.sol\":1416:1428  participants */\n      0x04\n        /* \"FZF/FreeZenonFriday.sol\":1429:1436  random1 */\n      dup4\n        /* \"FZF/FreeZenonFriday.sol\":1416:1437  participants[random1] */\n      dup2\n      sload\n      dup2\n      lt\n      tag_95\n      jumpi\n      tag_96\n      tag_88\n      jump\t// in\n    tag_96:\n    tag_95:\n      swap1\n      0x00\n      mstore\n      keccak256(0x00, 0x20)\n      add\n      0x00\n        /* \"FZF/FreeZenonFriday.sol\":1416:1477  participants[random1] = participants[participants.length - 1] */\n      0x0100\n      exp\n      dup2\n      sload\n      dup2\n      0xffffffffffffffffffffffffffffffffffffffff\n      mul\n      not\n      and\n      swap1\n      dup4\n      0xffffffffffffffffffffffffffffffffffffffff\n      and\n      mul\n      or\n      swap1\n      sstore\n      pop\n        /* \"FZF/FreeZenonFriday.sol\":1487:1499  participants */\n      0x04\n        /* \"FZF/FreeZenonFriday.sol\":1487:1505  participants.pop() */\n      dup1\n      sload\n      dup1\n      tag_98\n      jumpi\n      tag_99\n      tag_100\n      jump\t// in\n    tag_99:\n    tag_98:\n      0x01\n      swap1\n      sub\n      dup2\n      dup2\n      swap1\n      0x00\n      mstore\n      keccak256(0x00, 0x20)\n      add\n      exp(0x0100, 0x00)\n      dup2\n      sload\n      swap1\n      0xffffffffffffffffffffffffffffffffffffffff\n      mul\n      not\n      and\n      swap1\n      sstore\n      swap1\n      sstore\n        /* \"FZF/FreeZenonFriday.sol\":1516:1531  uint256 random2 */\n      0x00\n        /* \"FZF/FreeZenonFriday.sol\":1594:1606  participants */\n      0x04\n        /* \"FZF/FreeZenonFriday.sol\":1594:1613  participants.length */\n      dup1\n      sload\n      swap1\n      pop\n        /* \"FZF/FreeZenonFriday.sol\":1587:1588  1 */\n      0x01\n        /* \"FZF/FreeZenonFriday.sol\":1569:1584  block.timestamp */\n      timestamp\n        /* \"FZF/FreeZenonFriday.sol\":1569:1588  block.timestamp + 1 */\n      tag_102\n      swap2\n      swap1\n      tag_103\n      jump\t// in\n    tag_102:\n        /* \"FZF/FreeZenonFriday.sol\":1552:1589  abi.encodePacked(block.timestamp + 1) */\n      add(0x20, mload(0x40))\n      tag_104\n      swap2\n      swap1\n      tag_83\n      jump\t// in\n    tag_104:\n      mload(0x40)\n      0x20\n      dup2\n      dup4\n      sub\n      sub\n      dup2\n      mstore\n      swap1\n      0x40\n      mstore\n        /* \"FZF/FreeZenonFriday.sol\":1542:1590  keccak256(abi.encodePacked(block.timestamp + 1)) */\n      dup1\n      mload\n      swap1\n      0x20\n      add\n      keccak256\n        /* \"FZF/FreeZenonFriday.sol\":1534:1591  uint256(keccak256(abi.encodePacked(block.timestamp + 1))) */\n      0x00\n      shr\n        /* \"FZF/FreeZenonFriday.sol\":1534:1613  uint256(keccak256(abi.encodePacked(block.timestamp + 1))) % participants.length */\n      tag_105\n      swap2\n      swap1\n      tag_85\n      jump\t// in\n    tag_105:\n        /* \"FZF/FreeZenonFriday.sol\":1516:1613  uint256 random2 = uint256(keccak256(abi.encodePacked(block.timestamp + 1))) % participants.length */\n      swap1\n      pop\n        /* \"FZF/FreeZenonFriday.sol\":1623:1643  address secondWinner */\n      0x00\n        /* \"FZF/FreeZenonFriday.sol\":1646:1658  participants */\n      0x04\n        /* \"FZF/FreeZenonFriday.sol\":1659:1666  random2 */\n      dup3\n        /* \"FZF/FreeZenonFriday.sol\":1646:1667  participants[random2] */\n      dup2\n      sload\n      dup2\n      lt\n      tag_106\n      jumpi\n      tag_107\n      tag_88\n      jump\t// in\n    tag_107:\n    tag_106:\n      swap1\n      0x00\n      mstore\n      keccak256(0x00, 0x20)\n      add\n      0x00\n      swap1\n      sload\n      swap1\n      0x0100\n      exp\n      swap1\n      div\n      0xffffffffffffffffffffffffffffffffffffffff\n      and\n        /* \"FZF/FreeZenonFriday.sol\":1623:1667  address secondWinner = participants[random2] */\n      swap1\n      pop\n        /* \"FZF/FreeZenonFriday.sol\":1686:1697  firstWinner */\n      dup3\n        /* \"FZF/FreeZenonFriday.sol\":1678:1707  payable(firstWinner).transfer */\n      0xffffffffffffffffffffffffffffffffffffffff\n      and\n        /* \"FZF/FreeZenonFriday.sol\":1678:1719  payable(firstWinner).transfer(firstPrize) */\n      0x08fc\n        /* \"FZF/FreeZenonFriday.sol\":1708:1718  firstPrize */\n      sload(0x02)\n        /* \"FZF/FreeZenonFriday.sol\":1678:1719  payable(firstWinner).transfer(firstPrize) */\n      swap1\n      dup2\n      iszero\n      mul\n      swap1\n      mload(0x40)\n      0x00\n      mload(0x40)\n      dup1\n      dup4\n      sub\n      dup2\n      dup6\n      dup9\n      dup9\n      call\n      swap4\n      pop\n      pop\n      pop\n      pop\n      iszero\n      dup1\n      iszero\n      tag_110\n      jumpi\n      returndatasize\n      0x00\n      dup1\n      returndatacopy\n      revert(0x00, returndatasize)\n    tag_110:\n      pop\n        /* \"FZF/FreeZenonFriday.sol\":1737:1749  secondWinner */\n      dup1\n        /* \"FZF/FreeZenonFriday.sol\":1729:1759  payable(secondWinner).transfer */\n      0xffffffffffffffffffffffffffffffffffffffff\n      and\n        /* \"FZF/FreeZenonFriday.sol\":1729:1772  payable(secondWinner).transfer(secondPrize) */\n      0x08fc\n        /* \"FZF/FreeZenonFriday.sol\":1760:1771  secondPrize */\n      sload(0x03)\n        /* \"FZF/FreeZenonFriday.sol\":1729:1772  payable(secondWinner).transfer(secondPrize) */\n      swap1\n      dup2\n      iszero\n      mul\n      swap1\n      mload(0x40)\n      0x00\n      mload(0x40)\n      dup1\n      dup4\n      sub\n      dup2\n      dup6\n      dup9\n      dup9\n      call\n      swap4\n      pop\n      pop\n      pop\n      pop\n      iszero\n      dup1\n      iszero\n      tag_112\n      jumpi\n      returndatasize\n      0x00\n      dup1\n      returndatacopy\n      revert(0x00, returndatasize)\n    tag_112:\n      pop\n        /* \"FZF/FreeZenonFriday.sol\":1787:1854  WinnersSelected(firstWinner, firstPrize, secondWinner, secondPrize) */\n      0x0d600c27c020374e2f6c0c8419dc78d9eed43e85d7761f337890ddfd5b25514b\n        /* \"FZF/FreeZenonFriday.sol\":1803:1814  firstWinner */\n      dup4\n        /* \"FZF/FreeZenonFriday.sol\":1816:1826  firstPrize */\n      sload(0x02)\n        /* \"FZF/FreeZenonFriday.sol\":1828:1840  secondWinner */\n      dup4\n        /* \"FZF/FreeZenonFriday.sol\":1842:1853  secondPrize */\n      sload(0x03)\n        /* \"FZF/FreeZenonFriday.sol\":1787:1854  WinnersSelected(firstWinner, firstPrize, secondWinner, secondPrize) */\n      mload(0x40)\n      tag_113\n      swap5\n      swap4\n      swap3\n      swap2\n      swap1\n      tag_114\n      jump\t// in\n    tag_113:\n      mload(0x40)\n      dup1\n      swap2\n      sub\n      swap1\n      log1\n        /* \"FZF/FreeZenonFriday.sol\":1872:1884  participants */\n      0x04\n      0x00\n        /* \"FZF/FreeZenonFriday.sol\":1865:1884  delete participants */\n      tag_115\n      swap2\n      swap1\n      tag_116\n      jump\t// in\n    tag_115:\n        /* \"FZF/FreeZenonFriday.sol\":361:367  7 days */\n      0x093a80\n        /* \"FZF/FreeZenonFriday.sol\":1909:1921  nextDrawTime */\n      sload(0x05)\n        /* \"FZF/FreeZenonFriday.sol\":1909:1928  nextDrawTime + WEEK */\n      tag_117\n      swap2\n      swap1\n      tag_103\n      jump\t// in\n    tag_117:\n        /* \"FZF/FreeZenonFriday.sol\":1894:1906  nextDrawTime */\n      0x05\n        /* \"FZF/FreeZenonFriday.sol\":1894:1928  nextDrawTime = nextDrawTime + WEEK */\n      dup2\n      swap1\n      sstore\n      pop\n        /* \"FZF/FreeZenonFriday.sol\":1047:1935  {... */\n      pop\n      pop\n      pop\n      pop\n        /* \"FZF/FreeZenonFriday.sol\":1013:1935  function selectWinners() external {... */\n      jump\t// out\n        /* \"FZF/FreeZenonFriday.sol\":302:330  bool public isActive = false */\n    tag_30:\n      0x06\n      0x00\n      swap1\n      sload\n      swap1\n      0x0100\n      exp\n      swap1\n      div\n      0xff\n      and\n      dup2\n      jump\t// out\n        /* \"FZF/FreeZenonFriday.sol\":147:184  uint256 public firstPrize = 2.1 ether */\n    tag_35:\n      sload(0x02)\n      dup2\n      jump\t// out\n        /* \"FZF/FreeZenonFriday.sol\":234:263  address[] public participants */\n    tag_41:\n      0x04\n      dup2\n      dup2\n      sload\n      dup2\n      lt\n      tag_118\n      jumpi\n      0x00\n      dup1\n      revert\n    tag_118:\n      swap1\n      0x00\n      mstore\n      keccak256(0x00, 0x20)\n      add\n      0x00\n      swap2\n      pop\n      sload\n      swap1\n      0x0100\n      exp\n      swap1\n      div\n      0xffffffffffffffffffffffffffffffffffffffff\n      and\n      dup2\n      jump\t// out\n        /* \"FZF/FreeZenonFriday.sol\":2206:2479  function withdraw() external {... */\n    tag_46:\n        /* \"FZF/FreeZenonFriday.sol\":2267:2272  owner */\n      0x00\n      dup1\n      sload\n      swap1\n      0x0100\n      exp\n      swap1\n      div\n      0xffffffffffffffffffffffffffffffffffffffff\n      and\n        /* \"FZF/FreeZenonFriday.sol\":2253:2272  msg.sender == owner */\n      0xffffffffffffffffffffffffffffffffffffffff\n      and\n        /* \"FZF/FreeZenonFriday.sol\":2253:2263  msg.sender */\n      caller\n        /* \"FZF/FreeZenonFriday.sol\":2253:2272  msg.sender == owner */\n      0xffffffffffffffffffffffffffffffffffffffff\n      and\n      eq\n        /* \"FZF/FreeZenonFriday.sol\":2245:2287  require(msg.sender == owner, \"Only owner\") */\n      tag_121\n      jumpi\n      mload(0x40)\n      0x08c379a000000000000000000000000000000000000000000000000000000000\n      dup2\n      mstore\n      0x04\n      add\n      tag_122\n      swap1\n      tag_123\n      jump\t// in\n    tag_122:\n      mload(0x40)\n      dup1\n      swap2\n      sub\n      swap1\n      revert\n    tag_121:\n        /* \"FZF/FreeZenonFriday.sol\":2297:2312  uint256 balance */\n      0x00\n        /* \"FZF/FreeZenonFriday.sol\":2315:2336  address(this).balance */\n      selfbalance\n        /* \"FZF/FreeZenonFriday.sol\":2297:2336  uint256 balance = address(this).balance */\n      swap1\n      pop\n        /* \"FZF/FreeZenonFriday.sol\":2364:2365  0 */\n      0x00\n        /* \"FZF/FreeZenonFriday.sol\":2354:2361  balance */\n      dup2\n        /* \"FZF/FreeZenonFriday.sol\":2354:2365  balance > 0 */\n      gt\n        /* \"FZF/FreeZenonFriday.sol\":2346:2390  require(balance > 0, \"No funds to withdraw\") */\n      tag_124\n      jumpi\n      mload(0x40)\n      0x08c379a000000000000000000000000000000000000000000000000000000000\n      dup2\n      mstore\n      0x04\n      add\n      tag_125\n      swap1\n      tag_126\n      jump\t// in\n    tag_125:\n      mload(0x40)\n      dup1\n      swap2\n      sub\n      swap1\n      revert\n    tag_124:\n        /* \"FZF/FreeZenonFriday.sol\":2408:2413  owner */\n      0x00\n      dup1\n      sload\n      swap1\n      0x0100\n      exp\n      swap1\n      div\n      0xffffffffffffffffffffffffffffffffffffffff\n      and\n        /* \"FZF/FreeZenonFriday.sol\":2400:2423  payable(owner).transfer */\n      0xffffffffffffffffffffffffffffffffffffffff\n      and\n        /* \"FZF/FreeZenonFriday.sol\":2400:2432  payable(owner).transfer(balance) */\n      0x08fc\n        /* \"FZF/FreeZenonFriday.sol\":2424:2431  balance */\n      dup3\n        /* \"FZF/FreeZenonFriday.sol\":2400:2432  payable(owner).transfer(balance) */\n      swap1\n      dup2\n      iszero\n      mul\n      swap1\n      mload(0x40)\n      0x00\n      mload(0x40)\n      dup1\n      dup4\n      sub\n      dup2\n      dup6\n      dup9\n      dup9\n      call\n      swap4\n      pop\n      pop\n      pop\n      pop\n      iszero\n      dup1\n      iszero\n      tag_128\n      jumpi\n      returndatasize\n      0x00\n      dup1\n      returndatacopy\n      revert(0x00, returndatasize)\n    tag_128:\n      pop\n        /* \"FZF/FreeZenonFriday.sol\":2447:2472  Withdrawn(owner, balance) */\n      0x7084f5476618d8e60b11ef0d7d3f06914655adb8793e28ff7f018d4c76d505d5\n        /* \"FZF/FreeZenonFriday.sol\":2457:2462  owner */\n      0x00\n      dup1\n      sload\n      swap1\n      0x0100\n      exp\n      swap1\n      div\n      0xffffffffffffffffffffffffffffffffffffffff\n      and\n        /* \"FZF/FreeZenonFriday.sol\":2464:2471  balance */\n      dup3\n        /* \"FZF/FreeZenonFriday.sol\":2447:2472  Withdrawn(owner, balance) */\n      mload(0x40)\n      tag_129\n      swap3\n      swap2\n      swap1\n      tag_130\n      jump\t// in\n    tag_129:\n      mload(0x40)\n      dup1\n      swap2\n      sub\n      swap1\n      log1\n        /* \"FZF/FreeZenonFriday.sol\":2235:2479  {... */\n      pop\n        /* \"FZF/FreeZenonFriday.sol\":2206:2479  function withdraw() external {... */\n      jump\t// out\n        /* \"FZF/FreeZenonFriday.sol\":190:228  uint256 public secondPrize = 0.9 ether */\n    tag_49:\n      sload(0x03)\n      dup2\n      jump\t// out\n        /* \"FZF/FreeZenonFriday.sol\":269:296  uint256 public nextDrawTime */\n    tag_53:\n      sload(0x05)\n      dup2\n      jump\t// out\n        /* \"FZF/FreeZenonFriday.sol\":88:108  address public owner */\n    tag_57:\n      0x00\n      dup1\n      sload\n      swap1\n      0x0100\n      exp\n      swap1\n      div\n      0xffffffffffffffffffffffffffffffffffffffff\n      and\n      dup2\n      jump\t// out\n        /* \"FZF/FreeZenonFriday.sol\":2485:2589  function getParticipantCount() public view returns (uint256) {... */\n    tag_61:\n        /* \"FZF/FreeZenonFriday.sol\":2537:2544  uint256 */\n      0x00\n        /* \"FZF/FreeZenonFriday.sol\":2563:2575  participants */\n      0x04\n        /* \"FZF/FreeZenonFriday.sol\":2563:2582  participants.length */\n      dup1\n      sload\n      swap1\n      pop\n        /* \"FZF/FreeZenonFriday.sol\":2556:2582  return participants.length */\n      swap1\n      pop\n        /* \"FZF/FreeZenonFriday.sol\":2485:2589  function getParticipantCount() public view returns (uint256) {... */\n      swap1\n      jump\t// out\n        /* \"FZF/FreeZenonFriday.sol\":1941:2062  function startCompetition() external {... */\n    tag_65:\n        /* \"FZF/FreeZenonFriday.sol\":2010:2015  owner */\n      0x00\n      dup1\n      sload\n      swap1\n      0x0100\n      exp\n      swap1\n      div\n      0xffffffffffffffffffffffffffffffffffffffff\n      and\n        /* \"FZF/FreeZenonFriday.sol\":1996:2015  msg.sender == owner */\n      0xffffffffffffffffffffffffffffffffffffffff\n      and\n        /* \"FZF/FreeZenonFriday.sol\":1996:2006  msg.sender */\n      caller\n        /* \"FZF/FreeZenonFriday.sol\":1996:2015  msg.sender == owner */\n      0xffffffffffffffffffffffffffffffffffffffff\n      and\n      eq\n        /* \"FZF/FreeZenonFriday.sol\":1988:2030  require(msg.sender == owner, \"Only owner\") */\n      tag_133\n      jumpi\n      mload(0x40)\n      0x08c379a000000000000000000000000000000000000000000000000000000000\n      dup2\n      mstore\n      0x04\n      add\n      tag_134\n      swap1\n      tag_123\n      jump\t// in\n    tag_134:\n      mload(0x40)\n      dup1\n      swap2\n      sub\n      swap1\n      revert\n    tag_133:\n        /* \"FZF/FreeZenonFriday.sol\":2051:2055  true */\n      0x01\n        /* \"FZF/FreeZenonFriday.sol\":2040:2048  isActive */\n      0x06\n      0x00\n        /* \"FZF/FreeZenonFriday.sol\":2040:2055  isActive = true */\n      0x0100\n      exp\n      dup2\n      sload\n      dup2\n      0xff\n      mul\n      not\n      and\n      swap1\n      dup4\n      iszero\n      iszero\n      mul\n      or\n      swap1\n      sstore\n      pop\n        /* \"FZF/FreeZenonFriday.sol\":1941:2062  function startCompetition() external {... */\n      jump\t// out\n        /* \"FZF/FreeZenonFriday.sol\":704:1007  function enter() external payable {... */\n    tag_67:\n        /* \"FZF/FreeZenonFriday.sol\":756:764  isActive */\n      0x06\n      0x00\n      swap1\n      sload\n      swap1\n      0x0100\n      exp\n      swap1\n      div\n      0xff\n      and\n        /* \"FZF/FreeZenonFriday.sol\":748:791  require(isActive, \"Competition not active\") */\n      tag_136\n      jumpi\n      mload(0x40)\n      0x08c379a000000000000000000000000000000000000000000000000000000000\n      dup2\n      mstore\n      0x04\n      add\n      tag_137\n      swap1\n      tag_138\n      jump\t// in\n    tag_137:\n      mload(0x40)\n      dup1\n      swap2\n      sub\n      swap1\n      revert\n    tag_136:\n        /* \"FZF/FreeZenonFriday.sol\":827:839  nextDrawTime */\n      sload(0x05)\n        /* \"FZF/FreeZenonFriday.sol\":809:824  block.timestamp */\n      timestamp\n        /* \"FZF/FreeZenonFriday.sol\":809:839  block.timestamp < nextDrawTime */\n      lt\n        /* \"FZF/FreeZenonFriday.sol\":801:862  require(block.timestamp < nextDrawTime, \"Draw already ended\") */\n      tag_139\n      jumpi\n      mload(0x40)\n      0x08c379a000000000000000000000000000000000000000000000000000000000\n      dup2\n      mstore\n      0x04\n      add\n      tag_140\n      swap1\n      tag_141\n      jump\t// in\n    tag_140:\n      mload(0x40)\n      dup1\n      swap2\n      sub\n      swap1\n      revert\n    tag_139:\n        /* \"FZF/FreeZenonFriday.sol\":893:901  entryFee */\n      sload(0x01)\n        /* \"FZF/FreeZenonFriday.sol\":880:889  msg.value */\n      callvalue\n        /* \"FZF/FreeZenonFriday.sol\":880:901  msg.value >= entryFee */\n      lt\n      iszero\n        /* \"FZF/FreeZenonFriday.sol\":872:926  require(msg.value >= entryFee, \"Not enough xZNN sent\") */\n      tag_142\n      jumpi\n      mload(0x40)\n      0x08c379a000000000000000000000000000000000000000000000000000000000\n      dup2\n      mstore\n      0x04\n      add\n      tag_143\n      swap1\n      tag_144\n      jump\t// in\n    tag_143:\n      mload(0x40)\n      dup1\n      swap2\n      sub\n      swap1\n      revert\n    tag_142:\n        /* \"FZF/FreeZenonFriday.sol\":936:948  participants */\n      0x04\n        /* \"FZF/FreeZenonFriday.sol\":954:964  msg.sender */\n      caller\n        /* \"FZF/FreeZenonFriday.sol\":936:965  participants.push(msg.sender) */\n      swap1\n      dup1\n      0x01\n      dup2\n      sload\n      add\n      dup1\n      dup3\n      sstore\n      dup1\n      swap2\n      pop\n      pop\n      0x01\n      swap1\n      sub\n      swap1\n      0x00\n      mstore\n      keccak256(0x00, 0x20)\n      add\n      0x00\n      swap1\n      swap2\n      swap1\n      swap2\n      swap1\n      swap2\n      0x0100\n      exp\n      dup2\n      sload\n      dup2\n      0xffffffffffffffffffffffffffffffffffffffff\n      mul\n      not\n      and\n      swap1\n      dup4\n      0xffffffffffffffffffffffffffffffffffffffff\n      and\n      mul\n      or\n      swap1\n      sstore\n      pop\n        /* \"FZF/FreeZenonFriday.sol\":980:1000  NewEntry(msg.sender) */\n      0x896131ca629c91d572fa56a5496788038dae3a7dc3cc6686af073c4e13efd309\n        /* \"FZF/FreeZenonFriday.sol\":989:999  msg.sender */\n      caller\n        /* \"FZF/FreeZenonFriday.sol\":980:1000  NewEntry(msg.sender) */\n      mload(0x40)\n      tag_146\n      swap2\n      swap1\n      tag_43\n      jump\t// in\n    tag_146:\n      mload(0x40)\n      dup1\n      swap2\n      sub\n      swap1\n      log1\n        /* \"FZF/FreeZenonFriday.sol\":704:1007  function enter() external payable {... */\n      jump\t// out\n        /* \"FZF/FreeZenonFriday.sol\":2068:2200  function setEntryFee(uint256 newFee) external {... */\n    tag_71:\n        /* \"FZF/FreeZenonFriday.sol\":2146:2151  owner */\n      0x00\n      dup1\n      sload\n      swap1\n      0x0100\n      exp\n      swap1\n      div\n      0xffffffffffffffffffffffffffffffffffffffff\n      and\n        /* \"FZF/FreeZenonFriday.sol\":2132:2151  msg.sender == owner */\n      0xffffffffffffffffffffffffffffffffffffffff\n      and\n        /* \"FZF/FreeZenonFriday.sol\":2132:2142  msg.sender */\n      caller\n        /* \"FZF/FreeZenonFriday.sol\":2132:2151  msg.sender == owner */\n      0xffffffffffffffffffffffffffffffffffffffff\n      and\n      eq\n        /* \"FZF/FreeZenonFriday.sol\":2124:2166  require(msg.sender == owner, \"Only owner\") */\n      tag_148\n      jumpi\n      mload(0x40)\n      0x08c379a000000000000000000000000000000000000000000000000000000000\n      dup2\n      mstore\n      0x04\n      add\n      tag_149\n      swap1\n      tag_123\n      jump\t// in\n    tag_149:\n      mload(0x40)\n      dup1\n      swap2\n      sub\n      swap1\n      revert\n    tag_148:\n        /* \"FZF/FreeZenonFriday.sol\":2187:2193  newFee */\n      dup1\n        /* \"FZF/FreeZenonFriday.sol\":2176:2184  entryFee */\n      0x01\n        /* \"FZF/FreeZenonFriday.sol\":2176:2193  entryFee = newFee */\n      dup2\n      swap1\n      sstore\n      pop\n        /* \"FZF/FreeZenonFriday.sol\":2068:2200  function setEntryFee(uint256 newFee) external {... */\n      pop\n      jump\t// out\n    tag_116:\n      pop\n      dup1\n      sload\n      0x00\n      dup3\n      sstore\n      swap1\n      0x00\n      mstore\n      keccak256(0x00, 0x20)\n      swap1\n      dup2\n      add\n      swap1\n      tag_151\n      swap2\n      swap1\n      tag_152\n      jump\t// in\n    tag_151:\n      pop\n      jump\t// out\n    tag_152:\n    tag_153:\n      dup1\n      dup3\n      gt\n      iszero\n      tag_154\n      jumpi\n      0x00\n      dup2\n      0x00\n      swap1\n      sstore\n      pop\n      0x01\n      add\n      jump(tag_153)\n    tag_154:\n      pop\n      swap1\n      jump\t// out\n        /* \"#utility.yul\":7:84   */\n    tag_155:\n        /* \"#utility.yul\":44:51   */\n      0x00\n        /* \"#utility.yul\":73:78   */\n      dup2\n        /* \"#utility.yul\":62:78   */\n      swap1\n      pop\n        /* \"#utility.yul\":7:84   */\n      swap2\n      swap1\n      pop\n      jump\t// out\n        /* \"#utility.yul\":90:208   */\n    tag_156:\n        /* \"#utility.yul\":177:201   */\n      tag_191\n        /* \"#utility.yul\":195:200   */\n      dup2\n        /* \"#utility.yul\":177:201   */\n      tag_155\n      jump\t// in\n    tag_191:\n        /* \"#utility.yul\":172:175   */\n      dup3\n        /* \"#utility.yul\":165:202   */\n      mstore\n        /* \"#utility.yul\":90:208   */\n      pop\n      pop\n      jump\t// out\n        /* \"#utility.yul\":214:436   */\n    tag_24:\n        /* \"#utility.yul\":307:311   */\n      0x00\n        /* \"#utility.yul\":345:347   */\n      0x20\n        /* \"#utility.yul\":334:343   */\n      dup3\n        /* \"#utility.yul\":330:348   */\n      add\n        /* \"#utility.yul\":322:348   */\n      swap1\n      pop\n        /* \"#utility.yul\":358:429   */\n      tag_193\n        /* \"#utility.yul\":426:427   */\n      0x00\n        /* \"#utility.yul\":415:424   */\n      dup4\n        /* \"#utility.yul\":411:428   */\n      add\n        /* \"#utility.yul\":402:408   */\n      dup5\n        /* \"#utility.yul\":358:429   */\n      tag_156\n      jump\t// in\n    tag_193:\n        /* \"#utility.yul\":214:436   */\n      swap3\n      swap2\n      pop\n      pop\n      jump\t// out\n        /* \"#utility.yul\":442:532   */\n    tag_157:\n        /* \"#utility.yul\":476:483   */\n      0x00\n        /* \"#utility.yul\":519:524   */\n      dup2\n        /* \"#utility.yul\":512:525   */\n      iszero\n        /* \"#utility.yul\":505:526   */\n      iszero\n        /* \"#utility.yul\":494:526   */\n      swap1\n      pop\n        /* \"#utility.yul\":442:532   */\n      swap2\n      swap1\n      pop\n      jump\t// out\n        /* \"#utility.yul\":538:647   */\n    tag_158:\n        /* \"#utility.yul\":619:640   */\n      tag_196\n        /* \"#utility.yul\":634:639   */\n      dup2\n        /* \"#utility.yul\":619:640   */\n      tag_157\n      jump\t// in\n    tag_196:\n        /* \"#utility.yul\":614:617   */\n      dup3\n        /* \"#utility.yul\":607:641   */\n      mstore\n        /* \"#utility.yul\":538:647   */\n      pop\n      pop\n      jump\t// out\n        /* \"#utility.yul\":653:863   */\n    tag_32:\n        /* \"#utility.yul\":740:744   */\n      0x00\n        /* \"#utility.yul\":778:780   */\n      0x20\n        /* \"#utility.yul\":767:776   */\n      dup3\n        /* \"#utility.yul\":763:781   */\n      add\n        /* \"#utility.yul\":755:781   */\n      swap1\n      pop\n        /* \"#utility.yul\":791:856   */\n      tag_198\n        /* \"#utility.yul\":853:854   */\n      0x00\n        /* \"#utility.yul\":842:851   */\n      dup4\n        /* \"#utility.yul\":838:855   */\n      add\n        /* \"#utility.yul\":829:835   */\n      dup5\n        /* \"#utility.yul\":791:856   */\n      tag_158\n      jump\t// in\n    tag_198:\n        /* \"#utility.yul\":653:863   */\n      swap3\n      swap2\n      pop\n      pop\n      jump\t// out\n        /* \"#utility.yul\":950:1067   */\n    tag_160:\n        /* \"#utility.yul\":1059:1060   */\n      0x00\n        /* \"#utility.yul\":1056:1057   */\n      dup1\n        /* \"#utility.yul\":1049:1061   */\n      revert\n        /* \"#utility.yul\":1196:1318   */\n    tag_162:\n        /* \"#utility.yul\":1269:1293   */\n      tag_203\n        /* \"#utility.yul\":1287:1292   */\n      dup2\n        /* \"#utility.yul\":1269:1293   */\n      tag_155\n      jump\t// in\n    tag_203:\n        /* \"#utility.yul\":1262:1267   */\n      dup2\n        /* \"#utility.yul\":1259:1294   */\n      eq\n        /* \"#utility.yul\":1249:1312   */\n      tag_204\n      jumpi\n        /* \"#utility.yul\":1308:1309   */\n      0x00\n        /* \"#utility.yul\":1305:1306   */\n      dup1\n        /* \"#utility.yul\":1298:1310   */\n      revert\n        /* \"#utility.yul\":1249:1312   */\n    tag_204:\n        /* \"#utility.yul\":1196:1318   */\n      pop\n      jump\t// out\n        /* \"#utility.yul\":1324:1463   */\n    tag_163:\n        /* \"#utility.yul\":1370:1375   */\n      0x00\n        /* \"#utility.yul\":1408:1414   */\n      dup2\n        /* \"#utility.yul\":1395:1415   */\n      calldataload\n        /* \"#utility.yul\":1386:1415   */\n      swap1\n      pop\n        /* \"#utility.yul\":1424:1457   */\n      tag_206\n        /* \"#utility.yul\":1451:1456   */\n      dup2\n        /* \"#utility.yul\":1424:1457   */\n      tag_162\n      jump\t// in\n    tag_206:\n        /* \"#utility.yul\":1324:1463   */\n      swap3\n      swap2\n      pop\n      pop\n      jump\t// out\n        /* \"#utility.yul\":1469:1798   */\n    tag_40:\n        /* \"#utility.yul\":1528:1534   */\n      0x00\n        /* \"#utility.yul\":1577:1579   */\n      0x20\n        /* \"#utility.yul\":1565:1574   */\n      dup3\n        /* \"#utility.yul\":1556:1563   */\n      dup5\n        /* \"#utility.yul\":1552:1575   */\n      sub\n        /* \"#utility.yul\":1548:1580   */\n      slt\n        /* \"#utility.yul\":1545:1664   */\n      iszero\n      tag_208\n      jumpi\n        /* \"#utility.yul\":1583:1662   */\n      tag_209\n      tag_160\n      jump\t// in\n    tag_209:\n        /* \"#utility.yul\":1545:1664   */\n    tag_208:\n        /* \"#utility.yul\":1703:1704   */\n      0x00\n        /* \"#utility.yul\":1728:1781   */\n      tag_210\n        /* \"#utility.yul\":1773:1780   */\n      dup5\n        /* \"#utility.yul\":1764:1770   */\n      dup3\n        /* \"#utility.yul\":1753:1762   */\n      dup6\n        /* \"#utility.yul\":1749:1771   */\n      add\n        /* \"#utility.yul\":1728:1781   */\n      tag_163\n      jump\t// in\n    tag_210:\n        /* \"#utility.yul\":1718:1781   */\n      swap2\n      pop\n        /* \"#utility.yul\":1674:1791   */\n      pop\n        /* \"#utility.yul\":1469:1798   */\n      swap3\n      swap2\n      pop\n      pop\n      jump\t// out\n        /* \"#utility.yul\":1804:1930   */\n    tag_164:\n        /* \"#utility.yul\":1841:1848   */\n      0x00\n        /* \"#utility.yul\":1881:1923   */\n      0xffffffffffffffffffffffffffffffffffffffff\n        /* \"#utility.yul\":1874:1879   */\n      dup3\n        /* \"#utility.yul\":1870:1924   */\n      and\n        /* \"#utility.yul\":1859:1924   */\n      swap1\n      pop\n        /* \"#utility.yul\":1804:1930   */\n      swap2\n      swap1\n      pop\n      jump\t// out\n        /* \"#utility.yul\":1936:2032   */\n    tag_165:\n        /* \"#utility.yul\":1973:1980   */\n      0x00\n        /* \"#utility.yul\":2002:2026   */\n      tag_213\n        /* \"#utility.yul\":2020:2025   */\n      dup3\n        /* \"#utility.yul\":2002:2026   */\n      tag_164\n      jump\t// in\n    tag_213:\n        /* \"#utility.yul\":1991:2026   */\n      swap1\n      pop\n        /* \"#utility.yul\":1936:2032   */\n      swap2\n      swap1\n      pop\n      jump\t// out\n        /* \"#utility.yul\":2038:2156   */\n    tag_166:\n        /* \"#utility.yul\":2125:2149   */\n      tag_215\n        /* \"#utility.yul\":2143:2148   */\n      dup2\n        /* \"#utility.yul\":2125:2149   */\n      tag_165\n      jump\t// in\n    tag_215:\n        /* \"#utility.yul\":2120:2123   */\n      dup3\n        /* \"#utility.yul\":2113:2150   */\n      mstore\n        /* \"#utility.yul\":2038:2156   */\n      pop\n      pop\n      jump\t// out\n        /* \"#utility.yul\":2162:2384   */\n    tag_43:\n        /* \"#utility.yul\":2255:2259   */\n      0x00\n        /* \"#utility.yul\":2293:2295   */\n      0x20\n        /* \"#utility.yul\":2282:2291   */\n      dup3\n        /* \"#utility.yul\":2278:2296   */\n      add\n        /* \"#utility.yul\":2270:2296   */\n      swap1\n      pop\n        /* \"#utility.yul\":2306:2377   */\n      tag_217\n        /* \"#utility.yul\":2374:2375   */\n      0x00\n        /* \"#utility.yul\":2363:2372   */\n      dup4\n        /* \"#utility.yul\":2359:2376   */\n      add\n        /* \"#utility.yul\":2350:2356   */\n      dup5\n        /* \"#utility.yul\":2306:2377   */\n      tag_166\n      jump\t// in\n    tag_217:\n        /* \"#utility.yul\":2162:2384   */\n      swap3\n      swap2\n      pop\n      pop\n      jump\t// out\n        /* \"#utility.yul\":2390:2559   */\n    tag_167:\n        /* \"#utility.yul\":2474:2485   */\n      0x00\n        /* \"#utility.yul\":2508:2514   */\n      dup3\n        /* \"#utility.yul\":2503:2506   */\n      dup3\n        /* \"#utility.yul\":2496:2515   */\n      mstore\n        /* \"#utility.yul\":2548:2552   */\n      0x20\n        /* \"#utility.yul\":2543:2546   */\n      dup3\n        /* \"#utility.yul\":2539:2553   */\n      add\n        /* \"#utility.yul\":2524:2553   */\n      swap1\n      pop\n        /* \"#utility.yul\":2390:2559   */\n      swap3\n      swap2\n      pop\n      pop\n      jump\t// out\n        /* \"#utility.yul\":2565:2742   */\n    tag_168:\n        /* \"#utility.yul\":2705:2734   */\n      0x4f6e6c79206f776e65722063616e207069636b2077696e6e6572730000000000\n        /* \"#utility.yul\":2701:2702   */\n      0x00\n        /* \"#utility.yul\":2693:2699   */\n      dup3\n        /* \"#utility.yul\":2689:2703   */\n      add\n        /* \"#utility.yul\":2682:2735   */\n      mstore\n        /* \"#utility.yul\":2565:2742   */\n      pop\n      jump\t// out\n        /* \"#utility.yul\":2748:3114   */\n    tag_169:\n        /* \"#utility.yul\":2890:2893   */\n      0x00\n        /* \"#utility.yul\":2911:2978   */\n      tag_221\n        /* \"#utility.yul\":2975:2977   */\n      0x1b\n        /* \"#utility.yul\":2970:2973   */\n      dup4\n        /* \"#utility.yul\":2911:2978   */\n      tag_167\n      jump\t// in\n    tag_221:\n        /* \"#utility.yul\":2904:2978   */\n      swap2\n      pop\n        /* \"#utility.yul\":2987:3080   */\n      tag_222\n        /* \"#utility.yul\":3076:3079   */\n      dup3\n        /* \"#utility.yul\":2987:3080   */\n      tag_168\n      jump\t// in\n    tag_222:\n        /* \"#utility.yul\":3105:3107   */\n      0x20\n        /* \"#utility.yul\":3100:3103   */\n      dup3\n        /* \"#utility.yul\":3096:3108   */\n      add\n        /* \"#utility.yul\":3089:3108   */\n      swap1\n      pop\n        /* \"#utility.yul\":2748:3114   */\n      swap2\n      swap1\n      pop\n      jump\t// out\n        /* \"#utility.yul\":3120:3539   */\n    tag_75:\n        /* \"#utility.yul\":3286:3290   */\n      0x00\n        /* \"#utility.yul\":3324:3326   */\n      0x20\n        /* \"#utility.yul\":3313:3322   */\n      dup3\n        /* \"#utility.yul\":3309:3327   */\n      add\n        /* \"#utility.yul\":3301:3327   */\n      swap1\n      pop\n        /* \"#utility.yul\":3373:3382   */\n      dup2\n        /* \"#utility.yul\":3367:3371   */\n      dup2\n        /* \"#utility.yul\":3363:3383   */\n      sub\n        /* \"#utility.yul\":3359:3360   */\n      0x00\n        /* \"#utility.yul\":3348:3357   */\n      dup4\n        /* \"#utility.yul\":3344:3361   */\n      add\n        /* \"#utility.yul\":3337:3384   */\n      mstore\n        /* \"#utility.yul\":3401:3532   */\n      tag_224\n        /* \"#utility.yul\":3527:3531   */\n      dup2\n        /* \"#utility.yul\":3401:3532   */\n      tag_169\n      jump\t// in\n    tag_224:\n        /* \"#utility.yul\":3393:3532   */\n      swap1\n      pop\n        /* \"#utility.yul\":3120:3539   */\n      swap2\n      swap1\n      pop\n      jump\t// out\n        /* \"#utility.yul\":3545:3704   */\n    tag_170:\n        /* \"#utility.yul\":3685:3696   */\n      0x546f6f206561726c790000000000000000000000000000000000000000000000\n        /* \"#utility.yul\":3681:3682   */\n      0x00\n        /* \"#utility.yul\":3673:3679   */\n      dup3\n        /* \"#utility.yul\":3669:3683   */\n      add\n        /* \"#utility.yul\":3662:3697   */\n      mstore\n        /* \"#utility.yul\":3545:3704   */\n      pop\n      jump\t// out\n        /* \"#utility.yul\":3710:4075   */\n    tag_171:\n        /* \"#utility.yul\":3852:3855   */\n      0x00\n        /* \"#utility.yul\":3873:3939   */\n      tag_227\n        /* \"#utility.yul\":3937:3938   */\n      0x09\n        /* \"#utility.yul\":3932:3935   */\n      dup4\n        /* \"#utility.yul\":3873:3939   */\n      tag_167\n      jump\t// in\n    tag_227:\n        /* \"#utility.yul\":3866:3939   */\n      swap2\n      pop\n        /* \"#utility.yul\":3948:4041   */\n      tag_228\n        /* \"#utility.yul\":4037:4040   */\n      dup3\n        /* \"#utility.yul\":3948:4041   */\n      tag_170\n      jump\t// in\n    tag_228:\n        /* \"#utility.yul\":4066:4068   */\n      0x20\n        /* \"#utility.yul\":4061:4064   */\n      dup3\n        /* \"#utility.yul\":4057:4069   */\n      add\n        /* \"#utility.yul\":4050:4069   */\n      swap1\n      pop\n        /* \"#utility.yul\":3710:4075   */\n      swap2\n      swap1\n      pop\n      jump\t// out\n        /* \"#utility.yul\":4081:4500   */\n    tag_78:\n        /* \"#utility.yul\":4247:4251   */\n      0x00\n        /* \"#utility.yul\":4285:4287   */\n      0x20\n        /* \"#utility.yul\":4274:4283   */\n      dup3\n        /* \"#utility.yul\":4270:4288   */\n      add\n        /* \"#utility.yul\":4262:4288   */\n      swap1\n      pop\n        /* \"#utility.yul\":4334:4343   */\n      dup2\n        /* \"#utility.yul\":4328:4332   */\n      dup2\n        /* \"#utility.yul\":4324:4344   */\n      sub\n        /* \"#utility.yul\":4320:4321   */\n      0x00\n        /* \"#utility.yul\":4309:4318   */\n      dup4\n        /* \"#utility.yul\":4305:4322   */\n      add\n        /* \"#utility.yul\":4298:4345   */\n      mstore\n        /* \"#utility.yul\":4362:4493   */\n      tag_230\n        /* \"#utility.yul\":4488:4492   */\n      dup2\n        /* \"#utility.yul\":4362:4493   */\n      tag_171\n      jump\t// in\n    tag_230:\n        /* \"#utility.yul\":4354:4493   */\n      swap1\n      pop\n        /* \"#utility.yul\":4081:4500   */\n      swap2\n      swap1\n      pop\n      jump\t// out\n        /* \"#utility.yul\":4506:4679   */\n    tag_172:\n        /* \"#utility.yul\":4646:4671   */\n      0x4e656564206174206c65617374203220706c6179657273000000000000000000\n        /* \"#utility.yul\":4642:4643   */\n      0x00\n        /* \"#utility.yul\":4634:4640   */\n      dup3\n        /* \"#utility.yul\":4630:4644   */\n      add\n        /* \"#utility.yul\":4623:4672   */\n      mstore\n        /* \"#utility.yul\":4506:4679   */\n      pop\n      jump\t// out\n        /* \"#utility.yul\":4685:5051   */\n    tag_173:\n        /* \"#utility.yul\":4827:4830   */\n      0x00\n        /* \"#utility.yul\":4848:4915   */\n      tag_233\n        /* \"#utility.yul\":4912:4914   */\n      0x17\n        /* \"#utility.yul\":4907:4910   */\n      dup4\n        /* \"#utility.yul\":4848:4915   */\n      tag_167\n      jump\t// in\n    tag_233:\n        /* \"#utility.yul\":4841:4915   */\n      swap2\n      pop\n        /* \"#utility.yul\":4924:5017   */\n      tag_234\n        /* \"#utility.yul\":5013:5016   */\n      dup3\n        /* \"#utility.yul\":4924:5017   */\n      tag_172\n      jump\t// in\n    tag_234:\n        /* \"#utility.yul\":5042:5044   */\n      0x20\n        /* \"#utility.yul\":5037:5040   */\n      dup3\n        /* \"#utility.yul\":5033:5045   */\n      add\n        /* \"#utility.yul\":5026:5045   */\n      swap1\n      pop\n        /* \"#utility.yul\":4685:5051   */\n      swap2\n      swap1\n      pop\n      jump\t// out\n        /* \"#utility.yul\":5057:5476   */\n    tag_81:\n        /* \"#utility.yul\":5223:5227   */\n      0x00\n        /* \"#utility.yul\":5261:5263   */\n      0x20\n        /* \"#utility.yul\":5250:5259   */\n      dup3\n        /* \"#utility.yul\":5246:5264   */\n      add\n        /* \"#utility.yul\":5238:5264   */\n      swap1\n      pop\n        /* \"#utility.yul\":5310:5319   */\n      dup2\n        /* \"#utility.yul\":5304:5308   */\n      dup2\n        /* \"#utility.yul\":5300:5320   */\n      sub\n        /* \"#utility.yul\":5296:5297   */\n      0x00\n        /* \"#utility.yul\":5285:5294   */\n      dup4\n        /* \"#utility.yul\":5281:5298   */\n      add\n        /* \"#utility.yul\":5274:5321   */\n      mstore\n        /* \"#utility.yul\":5338:5469   */\n      tag_236\n        /* \"#utility.yul\":5464:5468   */\n      dup2\n        /* \"#utility.yul\":5338:5469   */\n      tag_173\n      jump\t// in\n    tag_236:\n        /* \"#utility.yul\":5330:5469   */\n      swap1\n      pop\n        /* \"#utility.yul\":5057:5476   */\n      swap2\n      swap1\n      pop\n      jump\t// out\n        /* \"#utility.yul\":5482:5561   */\n    tag_174:\n        /* \"#utility.yul\":5521:5528   */\n      0x00\n        /* \"#utility.yul\":5550:5555   */\n      dup2\n        /* \"#utility.yul\":5539:5555   */\n      swap1\n      pop\n        /* \"#utility.yul\":5482:5561   */\n      swap2\n      swap1\n      pop\n      jump\t// out\n        /* \"#utility.yul\":5567:5724   */\n    tag_175:\n        /* \"#utility.yul\":5672:5717   */\n      tag_239\n        /* \"#utility.yul\":5692:5716   */\n      tag_240\n        /* \"#utility.yul\":5710:5715   */\n      dup3\n        /* \"#utility.yul\":5692:5716   */\n      tag_155\n      jump\t// in\n    tag_240:\n        /* \"#utility.yul\":5672:5717   */\n      tag_174\n      jump\t// in\n    tag_239:\n        /* \"#utility.yul\":5667:5670   */\n      dup3\n        /* \"#utility.yul\":5660:5718   */\n      mstore\n        /* \"#utility.yul\":5567:5724   */\n      pop\n      pop\n      jump\t// out\n        /* \"#utility.yul\":5730:5986   */\n    tag_83:\n        /* \"#utility.yul\":5842:5845   */\n      0x00\n        /* \"#utility.yul\":5857:5932   */\n      tag_242\n        /* \"#utility.yul\":5928:5931   */\n      dup3\n        /* \"#utility.yul\":5919:5925   */\n      dup5\n        /* \"#utility.yul\":5857:5932   */\n      tag_175\n      jump\t// in\n    tag_242:\n        /* \"#utility.yul\":5957:5959   */\n      0x20\n        /* \"#utility.yul\":5952:5955   */\n      dup3\n        /* \"#utility.yul\":5948:5960   */\n      add\n        /* \"#utility.yul\":5941:5960   */\n      swap2\n      pop\n        /* \"#utility.yul\":5977:5980   */\n      dup2\n        /* \"#utility.yul\":5970:5980   */\n      swap1\n      pop\n        /* \"#utility.yul\":5730:5986   */\n      swap3\n      swap2\n      pop\n      pop\n      jump\t// out\n        /* \"#utility.yul\":5992:6172   */\n    tag_176:\n        /* \"#utility.yul\":6040:6117   */\n      0x4e487b7100000000000000000000000000000000000000000000000000000000\n        /* \"#utility.yul\":6037:6038   */\n      0x00\n        /* \"#utility.yul\":6030:6118   */\n      mstore\n        /* \"#utility.yul\":6137:6141   */\n      0x12\n        /* \"#utility.yul\":6134:6135   */\n      0x04\n        /* \"#utility.yul\":6127:6142   */\n      mstore\n        /* \"#utility.yul\":6161:6165   */\n      0x24\n        /* \"#utility.yul\":6158:6159   */\n      0x00\n        /* \"#utility.yul\":6151:6166   */\n      revert\n        /* \"#utility.yul\":6178:6354   */\n    tag_85:\n        /* \"#utility.yul\":6210:6211   */\n      0x00\n        /* \"#utility.yul\":6227:6247   */\n      tag_245\n        /* \"#utility.yul\":6245:6246   */\n      dup3\n        /* \"#utility.yul\":6227:6247   */\n      tag_155\n      jump\t// in\n    tag_245:\n        /* \"#utility.yul\":6222:6247   */\n      swap2\n      pop\n        /* \"#utility.yul\":6261:6281   */\n      tag_246\n        /* \"#utility.yul\":6279:6280   */\n      dup4\n        /* \"#utility.yul\":6261:6281   */\n      tag_155\n      jump\t// in\n    tag_246:\n        /* \"#utility.yul\":6256:6281   */\n      swap3\n      pop\n        /* \"#utility.yul\":6300:6301   */\n      dup3\n        /* \"#utility.yul\":6290:6325   */\n      tag_247\n      jumpi\n        /* \"#utility.yul\":6305:6323   */\n      tag_248\n      tag_176\n      jump\t// in\n    tag_248:\n        /* \"#utility.yul\":6290:6325   */\n    tag_247:\n        /* \"#utility.yul\":6346:6347   */\n      dup3\n        /* \"#utility.yul\":6343:6344   */\n      dup3\n        /* \"#utility.yul\":6339:6348   */\n      mod\n        /* \"#utility.yul\":6334:6348   */\n      swap1\n      pop\n        /* \"#utility.yul\":6178:6354   */\n      swap3\n      swap2\n      pop\n      pop\n      jump\t// out\n        /* \"#utility.yul\":6360:6540   */\n    tag_88:\n        /* \"#utility.yul\":6408:6485   */\n      0x4e487b7100000000000000000000000000000000000000000000000000000000\n        /* \"#utility.yul\":6405:6406   */\n      0x00\n        /* \"#utility.yul\":6398:6486   */\n      mstore\n        /* \"#utility.yul\":6505:6509   */\n      0x32\n        /* \"#utility.yul\":6502:6503   */\n      0x04\n        /* \"#utility.yul\":6495:6510   */\n      mstore\n        /* \"#utility.yul\":6529:6533   */\n      0x24\n        /* \"#utility.yul\":6526:6527   */\n      0x00\n        /* \"#utility.yul\":6519:6534   */\n      revert\n        /* \"#utility.yul\":6546:6726   */\n    tag_177:\n        /* \"#utility.yul\":6594:6671   */\n      0x4e487b7100000000000000000000000000000000000000000000000000000000\n        /* \"#utility.yul\":6591:6592   */\n      0x00\n        /* \"#utility.yul\":6584:6672   */\n      mstore\n        /* \"#utility.yul\":6691:6695   */\n      0x11\n        /* \"#utility.yul\":6688:6689   */\n      0x04\n        /* \"#utility.yul\":6681:6696   */\n      mstore\n        /* \"#utility.yul\":6715:6719   */\n      0x24\n        /* \"#utility.yul\":6712:6713   */\n      0x00\n        /* \"#utility.yul\":6705:6720   */\n      revert\n        /* \"#utility.yul\":6732:6926   */\n    tag_91:\n        /* \"#utility.yul\":6772:6776   */\n      0x00\n        /* \"#utility.yul\":6792:6812   */\n      tag_252\n        /* \"#utility.yul\":6810:6811   */\n      dup3\n        /* \"#utility.yul\":6792:6812   */\n      tag_155\n      jump\t// in\n    tag_252:\n        /* \"#utility.yul\":6787:6812   */\n      swap2\n      pop\n        /* \"#utility.yul\":6826:6846   */\n      tag_253\n        /* \"#utility.yul\":6844:6845   */\n      dup4\n        /* \"#utility.yul\":6826:6846   */\n      tag_155\n      jump\t// in\n    tag_253:\n        /* \"#utility.yul\":6821:6846   */\n      swap3\n      pop\n        /* \"#utility.yul\":6870:6871   */\n      dup3\n        /* \"#utility.yul\":6867:6868   */\n      dup3\n        /* \"#utility.yul\":6863:6872   */\n      sub\n        /* \"#utility.yul\":6855:6872   */\n      swap1\n      pop\n        /* \"#utility.yul\":6894:6895   */\n      dup2\n        /* \"#utility.yul\":6888:6892   */\n      dup2\n        /* \"#utility.yul\":6885:6896   */\n      gt\n        /* \"#utility.yul\":6882:6919   */\n      iszero\n      tag_254\n      jumpi\n        /* \"#utility.yul\":6899:6917   */\n      tag_255\n      tag_177\n      jump\t// in\n    tag_255:\n        /* \"#utility.yul\":6882:6919   */\n    tag_254:\n        /* \"#utility.yul\":6732:6926   */\n      swap3\n      swap2\n      pop\n      pop\n      jump\t// out\n        /* \"#utility.yul\":6932:7112   */\n    tag_100:\n        /* \"#utility.yul\":6980:7057   */\n      0x4e487b7100000000000000000000000000000000000000000000000000000000\n        /* \"#utility.yul\":6977:6978   */\n      0x00\n        /* \"#utility.yul\":6970:7058   */\n      mstore\n        /* \"#utility.yul\":7077:7081   */\n      0x31\n        /* \"#utility.yul\":7074:7075   */\n      0x04\n        /* \"#utility.yul\":7067:7082   */\n      mstore\n        /* \"#utility.yul\":7101:7105   */\n      0x24\n        /* \"#utility.yul\":7098:7099   */\n      0x00\n        /* \"#utility.yul\":7091:7106   */\n      revert\n        /* \"#utility.yul\":7118:7309   */\n    tag_103:\n        /* \"#utility.yul\":7158:7161   */\n      0x00\n        /* \"#utility.yul\":7177:7197   */\n      tag_258\n        /* \"#utility.yul\":7195:7196   */\n      dup3\n        /* \"#utility.yul\":7177:7197   */\n      tag_155\n      jump\t// in\n    tag_258:\n        /* \"#utility.yul\":7172:7197   */\n      swap2\n      pop\n        /* \"#utility.yul\":7211:7231   */\n      tag_259\n        /* \"#utility.yul\":7229:7230   */\n      dup4\n        /* \"#utility.yul\":7211:7231   */\n      tag_155\n      jump\t// in\n    tag_259:\n        /* \"#utility.yul\":7206:7231   */\n      swap3\n      pop\n        /* \"#utility.yul\":7254:7255   */\n      dup3\n        /* \"#utility.yul\":7251:7252   */\n      dup3\n        /* \"#utility.yul\":7247:7256   */\n      add\n        /* \"#utility.yul\":7240:7256   */\n      swap1\n      pop\n        /* \"#utility.yul\":7275:7278   */\n      dup1\n        /* \"#utility.yul\":7272:7273   */\n      dup3\n        /* \"#utility.yul\":7269:7279   */\n      gt\n        /* \"#utility.yul\":7266:7302   */\n      iszero\n      tag_260\n      jumpi\n        /* \"#utility.yul\":7282:7300   */\n      tag_261\n      tag_177\n      jump\t// in\n    tag_261:\n        /* \"#utility.yul\":7266:7302   */\n    tag_260:\n        /* \"#utility.yul\":7118:7309   */\n      swap3\n      swap2\n      pop\n      pop\n      jump\t// out\n        /* \"#utility.yul\":7315:7868   */\n    tag_114:\n        /* \"#utility.yul\":7492:7496   */\n      0x00\n        /* \"#utility.yul\":7530:7533   */\n      0x80\n        /* \"#utility.yul\":7519:7528   */\n      dup3\n        /* \"#utility.yul\":7515:7534   */\n      add\n        /* \"#utility.yul\":7507:7534   */\n      swap1\n      pop\n        /* \"#utility.yul\":7544:7615   */\n      tag_263\n        /* \"#utility.yul\":7612:7613   */\n      0x00\n        /* \"#utility.yul\":7601:7610   */\n      dup4\n        /* \"#utility.yul\":7597:7614   */\n      add\n        /* \"#utility.yul\":7588:7594   */\n      dup8\n        /* \"#utility.yul\":7544:7615   */\n      tag_166\n      jump\t// in\n    tag_263:\n        /* \"#utility.yul\":7625:7697   */\n      tag_264\n        /* \"#utility.yul\":7693:7695   */\n      0x20\n        /* \"#utility.yul\":7682:7691   */\n      dup4\n        /* \"#utility.yul\":7678:7696   */\n      add\n        /* \"#utility.yul\":7669:7675   */\n      dup7\n        /* \"#utility.yul\":7625:7697   */\n      tag_156\n      jump\t// in\n    tag_264:\n        /* \"#utility.yul\":7707:7779   */\n      tag_265\n        /* \"#utility.yul\":7775:7777   */\n      0x40\n        /* \"#utility.yul\":7764:7773   */\n      dup4\n        /* \"#utility.yul\":7760:7778   */\n      add\n        /* \"#utility.yul\":7751:7757   */\n      dup6\n        /* \"#utility.yul\":7707:7779   */\n      tag_166\n      jump\t// in\n    tag_265:\n        /* \"#utility.yul\":7789:7861   */\n      tag_266\n        /* \"#utility.yul\":7857:7859   */\n      0x60\n        /* \"#utility.yul\":7846:7855   */\n      dup4\n        /* \"#utility.yul\":7842:7860   */\n      add\n        /* \"#utility.yul\":7833:7839   */\n      dup5\n        /* \"#utility.yul\":7789:7861   */\n      tag_156\n      jump\t// in\n    tag_266:\n        /* \"#utility.yul\":7315:7868   */\n      swap6\n      swap5\n      pop\n      pop\n      pop\n      pop\n      pop\n      jump\t// out\n        /* \"#utility.yul\":7874:8034   */\n    tag_178:\n        /* \"#utility.yul\":8014:8026   */\n      0x4f6e6c79206f776e657200000000000000000000000000000000000000000000\n        /* \"#utility.yul\":8010:8011   */\n      0x00\n        /* \"#utility.yul\":8002:8008   */\n      dup3\n        /* \"#utility.yul\":7998:8012   */\n      add\n        /* \"#utility.yul\":7991:8027   */\n      mstore\n        /* \"#utility.yul\":7874:8034   */\n      pop\n      jump\t// out\n        /* \"#utility.yul\":8040:8406   */\n    tag_179:\n        /* \"#utility.yul\":8182:8185   */\n      0x00\n        /* \"#utility.yul\":8203:8270   */\n      tag_269\n        /* \"#utility.yul\":8267:8269   */\n      0x0a\n        /* \"#utility.yul\":8262:8265   */\n      dup4\n        /* \"#utility.yul\":8203:8270   */\n      tag_167\n      jump\t// in\n    tag_269:\n        /* \"#utility.yul\":8196:8270   */\n      swap2\n      pop\n        /* \"#utility.yul\":8279:8372   */\n      tag_270\n        /* \"#utility.yul\":8368:8371   */\n      dup3\n        /* \"#utility.yul\":8279:8372   */\n      tag_178\n      jump\t// in\n    tag_270:\n        /* \"#utility.yul\":8397:8399   */\n      0x20\n        /* \"#utility.yul\":8392:8395   */\n      dup3\n        /* \"#utility.yul\":8388:8400   */\n      add\n        /* \"#utility.yul\":8381:8400   */\n      swap1\n      pop\n        /* \"#utility.yul\":8040:8406   */\n      swap2\n      swap1\n      pop\n      jump\t// out\n        /* \"#utility.yul\":8412:8831   */\n    tag_123:\n        /* \"#utility.yul\":8578:8582   */\n      0x00\n        /* \"#utility.yul\":8616:8618   */\n      0x20\n        /* \"#utility.yul\":8605:8614   */\n      dup3\n        /* \"#utility.yul\":8601:8619   */\n      add\n        /* \"#utility.yul\":8593:8619   */\n      swap1\n      pop\n        /* \"#utility.yul\":8665:8674   */\n      dup2\n        /* \"#utility.yul\":8659:8663   */\n      dup2\n        /* \"#utility.yul\":8655:8675   */\n      sub\n        /* \"#utility.yul\":8651:8652   */\n      0x00\n        /* \"#utility.yul\":8640:8649   */\n      dup4\n        /* \"#utility.yul\":8636:8653   */\n      add\n        /* \"#utility.yul\":8629:8676   */\n      mstore\n        /* \"#utility.yul\":8693:8824   */\n      tag_272\n        /* \"#utility.yul\":8819:8823   */\n      dup2\n        /* \"#utility.yul\":8693:8824   */\n      tag_179\n      jump\t// in\n    tag_272:\n        /* \"#utility.yul\":8685:8824   */\n      swap1\n      pop\n        /* \"#utility.yul\":8412:8831   */\n      swap2\n      swap1\n      pop\n      jump\t// out\n        /* \"#utility.yul\":8837:9007   */\n    tag_180:\n        /* \"#utility.yul\":8977:8999   */\n      0x4e6f2066756e647320746f207769746864726177000000000000000000000000\n        /* \"#utility.yul\":8973:8974   */\n      0x00\n        /* \"#utility.yul\":8965:8971   */\n      dup3\n        /* \"#utility.yul\":8961:8975   */\n      add\n        /* \"#utility.yul\":8954:9000   */\n      mstore\n        /* \"#utility.yul\":8837:9007   */\n      pop\n      jump\t// out\n        /* \"#utility.yul\":9013:9379   */\n    tag_181:\n        /* \"#utility.yul\":9155:9158   */\n      0x00\n        /* \"#utility.yul\":9176:9243   */\n      tag_275\n        /* \"#utility.yul\":9240:9242   */\n      0x14\n        /* \"#utility.yul\":9235:9238   */\n      dup4\n        /* \"#utility.yul\":9176:9243   */\n      tag_167\n      jump\t// in\n    tag_275:\n        /* \"#utility.yul\":9169:9243   */\n      swap2\n      pop\n        /* \"#utility.yul\":9252:9345   */\n      tag_276\n        /* \"#utility.yul\":9341:9344   */\n      dup3\n        /* \"#utility.yul\":9252:9345   */\n      tag_180\n      jump\t// in\n    tag_276:\n        /* \"#utility.yul\":9370:9372   */\n      0x20\n        /* \"#utility.yul\":9365:9368   */\n      dup3\n        /* \"#utility.yul\":9361:9373   */\n      add\n        /* \"#utility.yul\":9354:9373   */\n      swap1\n      pop\n        /* \"#utility.yul\":9013:9379   */\n      swap2\n      swap1\n      pop\n      jump\t// out\n        /* \"#utility.yul\":9385:9804   */\n    tag_126:\n        /* \"#utility.yul\":9551:9555   */\n      0x00\n        /* \"#utility.yul\":9589:9591   */\n      0x20\n        /* \"#utility.yul\":9578:9587   */\n      dup3\n        /* \"#utility.yul\":9574:9592   */\n      add\n        /* \"#utility.yul\":9566:9592   */\n      swap1\n      pop\n        /* \"#utility.yul\":9638:9647   */\n      dup2\n        /* \"#utility.yul\":9632:9636   */\n      dup2\n        /* \"#utility.yul\":9628:9648   */\n      sub\n        /* \"#utility.yul\":9624:9625   */\n      0x00\n        /* \"#utility.yul\":9613:9622   */\n      dup4\n        /* \"#utility.yul\":9609:9626   */\n      add\n        /* \"#utility.yul\":9602:9649   */\n      mstore\n        /* \"#utility.yul\":9666:9797   */\n      tag_278\n        /* \"#utility.yul\":9792:9796   */\n      dup2\n        /* \"#utility.yul\":9666:9797   */\n      tag_181\n      jump\t// in\n    tag_278:\n        /* \"#utility.yul\":9658:9797   */\n      swap1\n      pop\n        /* \"#utility.yul\":9385:9804   */\n      swap2\n      swap1\n      pop\n      jump\t// out\n        /* \"#utility.yul\":9810:10142   */\n    tag_130:\n        /* \"#utility.yul\":9931:9935   */\n      0x00\n        /* \"#utility.yul\":9969:9971   */\n      0x40\n        /* \"#utility.yul\":9958:9967   */\n      dup3\n        /* \"#utility.yul\":9954:9972   */\n      add\n        /* \"#utility.yul\":9946:9972   */\n      swap1\n      pop\n        /* \"#utility.yul\":9982:10053   */\n      tag_280\n        /* \"#utility.yul\":10050:10051   */\n      0x00\n        /* \"#utility.yul\":10039:10048   */\n      dup4\n        /* \"#utility.yul\":10035:10052   */\n      add\n        /* \"#utility.yul\":10026:10032   */\n      dup6\n        /* \"#utility.yul\":9982:10053   */\n      tag_166\n      jump\t// in\n    tag_280:\n        /* \"#utility.yul\":10063:10135   */\n      tag_281\n        /* \"#utility.yul\":10131:10133   */\n      0x20\n        /* \"#utility.yul\":10120:10129   */\n      dup4\n        /* \"#utility.yul\":10116:10134   */\n      add\n        /* \"#utility.yul\":10107:10113   */\n      dup5\n        /* \"#utility.yul\":10063:10135   */\n      tag_156\n      jump\t// in\n    tag_281:\n        /* \"#utility.yul\":9810:10142   */\n      swap4\n      swap3\n      pop\n      pop\n      pop\n      jump\t// out\n        /* \"#utility.yul\":10148:10320   */\n    tag_182:\n        /* \"#utility.yul\":10288:10312   */\n      0x436f6d7065746974696f6e206e6f742061637469766500000000000000000000\n        /* \"#utility.yul\":10284:10285   */\n      0x00\n        /* \"#utility.yul\":10276:10282   */\n      dup3\n        /* \"#utility.yul\":10272:10286   */\n      add\n        /* \"#utility.yul\":10265:10313   */\n      mstore\n        /* \"#utility.yul\":10148:10320   */\n      pop\n      jump\t// out\n        /* \"#utility.yul\":10326:10692   */\n    tag_183:\n        /* \"#utility.yul\":10468:10471   */\n      0x00\n        /* \"#utility.yul\":10489:10556   */\n      tag_284\n        /* \"#utility.yul\":10553:10555   */\n      0x16\n        /* \"#utility.yul\":10548:10551   */\n      dup4\n        /* \"#utility.yul\":10489:10556   */\n      tag_167\n      jump\t// in\n    tag_284:\n        /* \"#utility.yul\":10482:10556   */\n      swap2\n      pop\n        /* \"#utility.yul\":10565:10658   */\n      tag_285\n        /* \"#utility.yul\":10654:10657   */\n      dup3\n        /* \"#utility.yul\":10565:10658   */\n      tag_182\n      jump\t// in\n    tag_285:\n        /* \"#utility.yul\":10683:10685   */\n      0x20\n        /* \"#utility.yul\":10678:10681   */\n      dup3\n        /* \"#utility.yul\":10674:10686   */\n      add\n        /* \"#utility.yul\":10667:10686   */\n      swap1\n      pop\n        /* \"#utility.yul\":10326:10692   */\n      swap2\n      swap1\n      pop\n      jump\t// out\n        /* \"#utility.yul\":10698:11117   */\n    tag_138:\n        /* \"#utility.yul\":10864:10868   */\n      0x00\n        /* \"#utility.yul\":10902:10904   */\n      0x20\n        /* \"#utility.yul\":10891:10900   */\n      dup3\n        /* \"#utility.yul\":10887:10905   */\n      add\n        /* \"#utility.yul\":10879:10905   */\n      swap1\n      pop\n        /* \"#utility.yul\":10951:10960   */\n      dup2\n        /* \"#utility.yul\":10945:10949   */\n      dup2\n        /* \"#utility.yul\":10941:10961   */\n      sub\n        /* \"#utility.yul\":10937:10938   */\n      0x00\n        /* \"#utility.yul\":10926:10935   */\n      dup4\n        /* \"#utility.yul\":10922:10939   */\n      add\n        /* \"#utility.yul\":10915:10962   */\n      mstore\n        /* \"#utility.yul\":10979:11110   */\n      tag_287\n        /* \"#utility.yul\":11105:11109   */\n      dup2\n        /* \"#utility.yul\":10979:11110   */\n      tag_183\n      jump\t// in\n    tag_287:\n        /* \"#utility.yul\":10971:11110   */\n      swap1\n      pop\n        /* \"#utility.yul\":10698:11117   */\n      swap2\n      swap1\n      pop\n      jump\t// out\n        /* \"#utility.yul\":11123:11291   */\n    tag_184:\n        /* \"#utility.yul\":11263:11283   */\n      0x4472617720616c726561647920656e6465640000000000000000000000000000\n        /* \"#utility.yul\":11259:11260   */\n      0x00\n        /* \"#utility.yul\":11251:11257   */\n      dup3\n        /* \"#utility.yul\":11247:11261   */\n      add\n        /* \"#utility.yul\":11240:11284   */\n      mstore\n        /* \"#utility.yul\":11123:11291   */\n      pop\n      jump\t// out\n        /* \"#utility.yul\":11297:11663   */\n    tag_185:\n        /* \"#utility.yul\":11439:11442   */\n      0x00\n        /* \"#utility.yul\":11460:11527   */\n      tag_290\n        /* \"#utility.yul\":11524:11526   */\n      0x12\n        /* \"#utility.yul\":11519:11522   */\n      dup4\n        /* \"#utility.yul\":11460:11527   */\n      tag_167\n      jump\t// in\n    tag_290:\n        /* \"#utility.yul\":11453:11527   */\n      swap2\n      pop\n        /* \"#utility.yul\":11536:11629   */\n      tag_291\n        /* \"#utility.yul\":11625:11628   */\n      dup3\n        /* \"#utility.yul\":11536:11629   */\n      tag_184\n      jump\t// in\n    tag_291:\n        /* \"#utility.yul\":11654:11656   */\n      0x20\n        /* \"#utility.yul\":11649:11652   */\n      dup3\n        /* \"#utility.yul\":11645:11657   */\n      add\n        /* \"#utility.yul\":11638:11657   */\n      swap1\n      pop\n        /* \"#utility.yul\":11297:11663   */\n      swap2\n      swap1\n      pop\n      jump\t// out\n        /* \"#utility.yul\":11669:12088   */\n    tag_141:\n        /* \"#utility.yul\":11835:11839   */\n      0x00\n        /* \"#utility.yul\":11873:11875   */\n      0x20\n        /* \"#utility.yul\":11862:11871   */\n      dup3\n        /* \"#utility.yul\":11858:11876   */\n      add\n        /* \"#utility.yul\":11850:11876   */\n      swap1\n      pop\n        /* \"#utility.yul\":11922:11931   */\n      dup2\n        /* \"#utility.yul\":11916:11920   */\n      dup2\n        /* \"#utility.yul\":11912:11932   */\n      sub\n        /* \"#utility.yul\":11908:11909   */\n      0x00\n        /* \"#utility.yul\":11897:11906   */\n      dup4\n        /* \"#utility.yul\":11893:11910   */\n      add\n        /* \"#utility.yul\":11886:11933   */\n      mstore\n        /* \"#utility.yul\":11950:12081   */\n      tag_293\n        /* \"#utility.yul\":12076:12080   */\n      dup2\n        /* \"#utility.yul\":11950:12081   */\n      tag_185\n      jump\t// in\n    tag_293:\n        /* \"#utility.yul\":11942:12081   */\n      swap1\n      pop\n        /* \"#utility.yul\":11669:12088   */\n      swap2\n      swap1\n      pop\n      jump\t// out\n        /* \"#utility.yul\":12094:12264   */\n    tag_186:\n        /* \"#utility.yul\":12234:12256   */\n      0x4e6f7420656e6f75676820785a4e4e2073656e74000000000000000000000000\n        /* \"#utility.yul\":12230:12231   */\n      0x00\n        /* \"#utility.yul\":12222:12228   */\n      dup3\n        /* \"#utility.yul\":12218:12232   */\n      add\n        /* \"#utility.yul\":12211:12257   */\n      mstore\n        /* \"#utility.yul\":12094:12264   */\n      pop\n      jump\t// out\n        /* \"#utility.yul\":12270:12636   */\n    tag_187:\n        /* \"#utility.yul\":12412:12415   */\n      0x00\n        /* \"#utility.yul\":12433:12500   */\n      tag_296\n        /* \"#utility.yul\":12497:12499   */\n      0x14\n        /* \"#utility.yul\":12492:12495   */\n      dup4\n        /* \"#utility.yul\":12433:12500   */\n      tag_167\n      jump\t// in\n    tag_296:\n        /* \"#utility.yul\":12426:12500   */\n      swap2\n      pop\n        /* \"#utility.yul\":12509:12602   */\n      tag_297\n        /* \"#utility.yul\":12598:12601   */\n      dup3\n        /* \"#utility.yul\":12509:12602   */\n      tag_186\n      jump\t// in\n    tag_297:\n        /* \"#utility.yul\":12627:12629   */\n      0x20\n        /* \"#utility.yul\":12622:12625   */\n      dup3\n        /* \"#utility.yul\":12618:12630   */\n      add\n        /* \"#utility.yul\":12611:12630   */\n      swap1\n      pop\n        /* \"#utility.yul\":12270:12636   */\n      swap2\n      swap1\n      pop\n      jump\t// out\n        /* \"#utility.yul\":12642:13061   */\n    tag_144:\n        /* \"#utility.yul\":12808:12812   */\n      0x00\n        /* \"#utility.yul\":12846:12848   */\n      0x20\n        /* \"#utility.yul\":12835:12844   */\n      dup3\n        /* \"#utility.yul\":12831:12849   */\n      add\n        /* \"#utility.yul\":12823:12849   */\n      swap1\n      pop\n        /* \"#utility.yul\":12895:12904   */\n      dup2\n        /* \"#utility.yul\":12889:12893   */\n      dup2\n        /* \"#utility.yul\":12885:12905   */\n      sub\n        /* \"#utility.yul\":12881:12882   */\n      0x00\n        /* \"#utility.yul\":12870:12879   */\n      dup4\n        /* \"#utility.yul\":12866:12883   */\n      add\n        /* \"#utility.yul\":12859:12906   */\n      mstore\n        /* \"#utility.yul\":12923:13054   */\n      tag_299\n        /* \"#utility.yul\":13049:13053   */\n      dup2\n        /* \"#utility.yul\":12923:13054   */\n      tag_187\n      jump\t// in\n    tag_299:\n        /* \"#utility.yul\":12915:13054   */\n      swap1\n      pop\n        /* \"#utility.yul\":12642:13061   */\n      swap2\n      swap1\n      pop\n      jump\t// out\n\n    auxdata: 0xa264697066735822122098c65c2ca912f5708d7bd774b77fa0f3711b1bfc671707ce019bac9498d5752d64736f6c634300081a0033\n}\n",
				"bytecode": {
					"linkReferences": {},
					"object": "60806040525f600155671d24b2dfac520000600255670c7d713b49da00006003555f60065f6101000a81548160ff0219169083151502179055503480156043575f80fd5b50335f806101000a81548173ffffffffffffffffffffffffffffffffffffffff021916908373ffffffffffffffffffffffffffffffffffffffff1602179055506367f03a4060058190555061123b8061009b5f395ff3fe6080604052600436106100c5575f3560e01c80633d70bc521161007e578063ad60572911610058578063ad60572914610234578063d3e66a9e1461025e578063e97dcb6214610274578063eb770d0c1461027e576100cc565b80633d70bc52146101b657806374f47a7a146101e05780638da5cb5b1461020a576100cc565b8063072ea61c146100d05780631a0de74c146100fa57806322f3e2d4146101105780632e98520c1461013a57806335c1d349146101645780633ccfd60b146101a0576100cc565b366100cc57005b5f80fd5b3480156100db575f80fd5b506100e46102a6565b6040516100f19190610bca565b60405180910390f35b348015610105575f80fd5b5061010e6102ac565b005b34801561011b575f80fd5b506101246106aa565b6040516101319190610bfd565b60405180910390f35b348015610145575f80fd5b5061014e6106bc565b60405161015b9190610bca565b60405180910390f35b34801561016f575f80fd5b5061018a60048036038101906101859190610c44565b6106c2565b6040516101979190610cae565b60405180910390f35b3480156101ab575f80fd5b506101b46106fd565b005b3480156101c1575f80fd5b506101ca61088e565b6040516101d79190610bca565b60405180910390f35b3480156101eb575f80fd5b506101f4610894565b6040516102019190610bca565b60405180910390f35b348015610215575f80fd5b5061021e61089a565b60405161022b9190610cae565b60405180910390f35b34801561023f575f80fd5b506102486108bd565b6040516102559190610bca565b60405180910390f35b348015610269575f80fd5b506102726108c9565b005b61027c610972565b005b348015610289575f80fd5b506102a4600480360381019061029f9190610c44565b610ae2565b005b60015481565b5f8054906101000a900473ffffffffffffffffffffffffffffffffffffffff1673ffffffffffffffffffffffffffffffffffffffff163373ffffffffffffffffffffffffffffffffffffffff1614610339576040517f08c379a000000000000000000000000000000000000000000000000000000000815260040161033090610d21565b60405180910390fd5b60055442101561037e576040517f08c379a000000000000000000000000000000000000000000000000000000000815260040161037590610d89565b60405180910390fd5b600260048054905010156103c7576040517f08c379a00000000000000000000000000000000000000000000000000000000081526004016103be90610df1565b60405180910390fd5b5f600480549050426040516020016103df9190610e2f565b604051602081830303815290604052805190602001205f1c6104019190610e76565b90505f6004828154811061041857610417610ea6565b5b905f5260205f20015f9054906101000a900473ffffffffffffffffffffffffffffffffffffffff169050600460016004805490506104569190610f00565b8154811061046757610466610ea6565b5b905f5260205f20015f9054906101000a900473ffffffffffffffffffffffffffffffffffffffff16600483815481106104a3576104a2610ea6565b5b905f5260205f20015f6101000a81548173ffffffffffffffffffffffffffffffffffffffff021916908373ffffffffffffffffffffffffffffffffffffffff16021790555060048054806104fa576104f9610f33565b5b600190038181905f5260205f20015f6101000a81549073ffffffffffffffffffffffffffffffffffffffff021916905590555f6004805490506001426105409190610f60565b6040516020016105509190610e2f565b604051602081830303815290604052805190602001205f1c6105729190610e76565b90505f6004828154811061058957610588610ea6565b5b905f5260205f20015f9054906101000a900473ffffffffffffffffffffffffffffffffffffffff1690508273ffffffffffffffffffffffffffffffffffffffff166108fc60025490811502906040515f60405180830381858888f193505050501580156105f8573d5f803e3d5ffd5b508073ffffffffffffffffffffffffffffffffffffffff166108fc60035490811502906040515f60405180830381858888f1935050505015801561063e573d5f803e3d5ffd5b507f0d600c27c020374e2f6c0c8419dc78d9eed43e85d7761f337890ddfd5b25514b83600254836003546040516106789493929190610f93565b60405180910390a160045f61068d9190610b79565b62093a8060055461069e9190610f60565b60058190555050505050565b60065f9054906101000a900460ff1681565b60025481565b600481815481106106d1575f80fd5b905f5260205f20015f915054906101000a900473ffffffffffffffffffffffffffffffffffffffff1681565b5f8054906101000a900473ffffffffffffffffffffffffffffffffffffffff1673ffffffffffffffffffffffffffffffffffffffff163373ffffffffffffffffffffffffffffffffffffffff161461078a576040517f08c379a000000000000000000000000000000000000000000000000000000000815260040161078190611020565b60405180910390fd5b5f4790505f81116107d0576040517f08c379a00000000000000000000000000000000000000000000000000000000081526004016107c790611088565b60405180910390fd5b5f8054906101000a900473ffffffffffffffffffffffffffffffffffffffff1673ffffffffffffffffffffffffffffffffffffffff166108fc8290811502906040515f60405180830381858888f19350505050158015610832573d5f803e3d5ffd5b507f7084f5476618d8e60b11ef0d7d3f06914655adb8793e28ff7f018d4c76d505d55f8054906101000a900473ffffffffffffffffffffffffffffffffffffffff16826040516108839291906110a6565b60405180910390a150565b60035481565b60055481565b5f8054906101000a900473ffffffffffffffffffffffffffffffffffffffff1681565b5f600480549050905090565b5f8054906101000a900473ffffffffffffffffffffffffffffffffffffffff1673ffffffffffffffffffffffffffffffffffffffff163373ffffffffffffffffffffffffffffffffffffffff1614610956576040517f08c379a000000000000000000000000000000000000000000000000000000000815260040161094d90611020565b60405180910390fd5b600160065f6101000a81548160ff021916908315150217905550565b60065f9054906101000a900460ff166109c0576040517f08c379a00000000000000000000000000000000000000000000000000000000081526004016109b790611117565b60405180910390fd5b6005544210610a04576040517f08c379a00000000000000000000000000000000000000000000000000000000081526004016109fb9061117f565b60405180910390fd5b600154341015610a49576040517f08c379a0000000000000000000000000000000000000000000000000000000008152600401610a40906111e7565b60405180910390fd5b600433908060018154018082558091505060019003905f5260205f20015f9091909190916101000a81548173ffffffffffffffffffffffffffffffffffffffff021916908373ffffffffffffffffffffffffffffffffffffffff1602179055507f896131ca629c91d572fa56a5496788038dae3a7dc3cc6686af073c4e13efd30933604051610ad89190610cae565b60405180910390a1565b5f8054906101000a900473ffffffffffffffffffffffffffffffffffffffff1673ffffffffffffffffffffffffffffffffffffffff163373ffffffffffffffffffffffffffffffffffffffff1614610b6f576040517f08c379a0000000000000000000000000000000000000000000000000000000008152600401610b6690611020565b60405180910390fd5b8060018190555050565b5080545f8255905f5260205f2090810190610b949190610b97565b50565b5b80821115610bae575f815f905550600101610b98565b5090565b5f819050919050565b610bc481610bb2565b82525050565b5f602082019050610bdd5f830184610bbb565b92915050565b5f8115159050919050565b610bf781610be3565b82525050565b5f602082019050610c105f830184610bee565b92915050565b5f80fd5b610c2381610bb2565b8114610c2d575f80fd5b50565b5f81359050610c3e81610c1a565b92915050565b5f60208284031215610c5957610c58610c16565b5b5f610c6684828501610c30565b91505092915050565b5f73ffffffffffffffffffffffffffffffffffffffff82169050919050565b5f610c9882610c6f565b9050919050565b610ca881610c8e565b82525050565b5f602082019050610cc15f830184610c9f565b92915050565b5f82825260208201905092915050565b7f4f6e6c79206f776e65722063616e207069636b2077696e6e65727300000000005f82015250565b5f610d0b601b83610cc7565b9150610d1682610cd7565b602082019050919050565b5f6020820190508181035f830152610d3881610cff565b9050919050565b7f546f6f206561726c7900000000000000000000000000000000000000000000005f82015250565b5f610d73600983610cc7565b9150610d7e82610d3f565b602082019050919050565b5f6020820190508181035f830152610da081610d67565b9050919050565b7f4e656564206174206c65617374203220706c61796572730000000000000000005f82015250565b5f610ddb601783610cc7565b9150610de682610da7565b602082019050919050565b5f6020820190508181035f830152610e0881610dcf565b9050919050565b5f819050919050565b610e29610e2482610bb2565b610e0f565b82525050565b5f610e3a8284610e18565b60208201915081905092915050565b7f4e487b71000000000000000000000000000000000000000000000000000000005f52601260045260245ffd5b5f610e8082610bb2565b9150610e8b83610bb2565b925082610e9b57610e9a610e49565b5b828206905092915050565b7f4e487b71000000000000000000000000000000000000000000000000000000005f52603260045260245ffd5b7f4e487b71000000000000000000000000000000000000000000000000000000005f52601160045260245ffd5b5f610f0a82610bb2565b9150610f1583610bb2565b9250828203905081811115610f2d57610f2c610ed3565b5b92915050565b7f4e487b71000000000000000000000000000000000000000000000000000000005f52603160045260245ffd5b5f610f6a82610bb2565b9150610f7583610bb2565b9250828201905080821115610f8d57610f8c610ed3565b5b92915050565b5f608082019050610fa65f830187610c9f565b610fb36020830186610bbb565b610fc06040830185610c9f565b610fcd6060830184610bbb565b95945050505050565b7f4f6e6c79206f776e6572000000000000000000000000000000000000000000005f82015250565b5f61100a600a83610cc7565b915061101582610fd6565b602082019050919050565b5f6020820190508181035f83015261103781610ffe565b9050919050565b7f4e6f2066756e647320746f2077697468647261770000000000000000000000005f82015250565b5f611072601483610cc7565b915061107d8261103e565b602082019050919050565b5f6020820190508181035f83015261109f81611066565b9050919050565b5f6040820190506110b95f830185610c9f565b6110c66020830184610bbb565b9392505050565b7f436f6d7065746974696f6e206e6f7420616374697665000000000000000000005f82015250565b5f611101601683610cc7565b915061110c826110cd565b602082019050919050565b5f6020820190508181035f83015261112e816110f5565b9050919050565b7f4472617720616c726561647920656e64656400000000000000000000000000005f82015250565b5f611169601283610cc7565b915061117482611135565b602082019050919050565b5f6020820190508181035f8301526111968161115d565b9050919050565b7f4e6f7420656e6f75676820785a4e4e2073656e740000000000000000000000005f82015250565b5f6111d1601483610cc7565b91506111dc8261119d565b602082019050919050565b5f6020820190508181035f8301526111fe816111c5565b905091905056fea264697066735822122098c65c2ca912f5708d7bd774b77fa0f3711b1bfc671707ce019bac9498d5752d64736f6c634300081a0033",
					"opcodes": "PUSH1 0x80 PUSH1 0x40 MSTORE PUSH0 PUSH1 0x1 SSTORE PUSH8 0x1D24B2DFAC520000 PUSH1 0x2 SSTORE PUSH8 0xC7D713B49DA0000 PUSH1 0x3 SSTORE PUSH0 PUSH1 0x6 PUSH0 PUSH2 0x100 EXP DUP2 SLOAD DUP2 PUSH1 0xFF MUL NOT AND SWAP1 DUP4 ISZERO ISZERO MUL OR SWAP1 SSTORE POP CALLVALUE DUP1 ISZERO PUSH1 0x43 JUMPI PUSH0 DUP1 REVERT JUMPDEST POP CALLER PUSH0 DUP1 PUSH2 0x100 EXP DUP2 SLOAD DUP2 PUSH20 0xFFFFFFFFFFFFFFFFFFFFFFFFFFFFFFFFFFFFFFFF MUL NOT AND SWAP1 DUP4 PUSH20 0xFFFFFFFFFFFFFFFFFFFFFFFFFFFFFFFFFFFFFFFF AND MUL OR SWAP1 SSTORE POP PUSH4 0x67F03A40 PUSH1 0x5 DUP2 SWAP1 SSTORE POP PUSH2 0x123B DUP1 PUSH2 0x9B PUSH0 CODECOPY PUSH0 RETURN INVALID PUSH1 0x80 PUSH1 0x40 MSTORE PUSH1 0x4 CALLDATASIZE LT PUSH2 0xC5 JUMPI PUSH0 CALLDATALOAD PUSH1 0xE0 SHR DUP1 PUSH4 0x3D70BC52 GT PUSH2 0x7E JUMPI DUP1 PUSH4 0xAD605729 GT PUSH2 0x58 JUMPI DUP1 PUSH4 0xAD605729 EQ PUSH2 0x234 JUMPI DUP1 PUSH4 0xD3E66A9E EQ PUSH2 0x25E JUMPI DUP1 PUSH4 0xE97DCB62 EQ PUSH2 0x274 JUMPI DUP1 PUSH4 0xEB770D0C EQ PUSH2 0x27E JUMPI PUSH2 0xCC JUMP JUMPDEST DUP1 PUSH4 0x3D70BC52 EQ PUSH2 0x1B6 JUMPI DUP1 PUSH4 0x74F47A7A EQ PUSH2 0x1E0 JUMPI DUP1 PUSH4 0x8DA5CB5B EQ PUSH2 0x20A JUMPI PUSH2 0xCC JUMP JUMPDEST DUP1 PUSH4 0x72EA61C EQ PUSH2 0xD0 JUMPI DUP1 PUSH4 0x1A0DE74C EQ PUSH2 0xFA JUMPI DUP1 PUSH4 0x22F3E2D4 EQ PUSH2 0x110 JUMPI DUP1 PUSH4 0x2E98520C EQ PUSH2 0x13A JUMPI DUP1 PUSH4 0x35C1D349 EQ PUSH2 0x164 JUMPI DUP1 PUSH4 0x3CCFD60B EQ PUSH2 0x1A0 JUMPI PUSH2 0xCC JUMP JUMPDEST CALLDATASIZE PUSH2 0xCC JUMPI STOP JUMPDEST PUSH0 DUP1 REVERT JUMPDEST CALLVALUE DUP1 ISZERO PUSH2 0xDB JUMPI PUSH0 DUP1 REVERT JUMPDEST POP PUSH2 0xE4 PUSH2 0x2A6 JUMP JUMPDEST PUSH1 0x40 MLOAD PUSH2 0xF1 SWAP2 SWAP1 PUSH2 0xBCA JUMP JUMPDEST PUSH1 0x40 MLOAD DUP1 SWAP2 SUB SWAP1 RETURN JUMPDEST CALLVALUE DUP1 ISZERO PUSH2 0x105 JUMPI PUSH0 DUP1 REVERT JUMPDEST POP PUSH2 0x10E PUSH2 0x2AC JUMP JUMPDEST STOP JUMPDEST CALLVALUE DUP1 ISZERO PUSH2 0x11B JUMPI PUSH0 DUP1 REVERT JUMPDEST POP PUSH2 0x124 PUSH2 0x6AA JUMP JUMPDEST PUSH1 0x40 MLOAD PUSH2 0x131 SWAP2 SWAP1 PUSH2 0xBFD JUMP JUMPDEST PUSH1 0x40 MLOAD DUP1 SWAP2 SUB SWAP1 RETURN JUMPDEST CALLVALUE DUP1 ISZERO PUSH2 0x145 JUMPI PUSH0 DUP1 REVERT JUMPDEST POP PUSH2 0x14E PUSH2 0x6BC JUMP JUMPDEST PUSH1 0x40 MLOAD PUSH2 0x15B SWAP2 SWAP1 PUSH2 0xBCA JUMP JUMPDEST PUSH1 0x40 MLOAD DUP1 SWAP2 SUB SWAP1 RETURN JUMPDEST CALLVALUE DUP1 ISZERO PUSH2 0x16F JUMPI PUSH0 DUP1 REVERT JUMPDEST POP PUSH2 0x18A PUSH1 0x4 DUP1 CALLDATASIZE SUB DUP2 ADD SWAP1 PUSH2 0x185 SWAP2 SWAP1 PUSH2 0xC44 JUMP JUMPDEST PUSH2 0x6C2 JUMP JUMPDEST PUSH1 0x40 MLOAD PUSH2 0x197 SWAP2 SWAP1 PUSH2 0xCAE JUMP JUMPDEST PUSH1 0x40 MLOAD DUP1 SWAP2 SUB SWAP1 RETURN JUMPDEST CALLVALUE DUP1 ISZERO PUSH2 0x1AB JUMPI PUSH0 DUP1 REVERT JUMPDEST POP PUSH2 0x1B4 PUSH2 0x6FD JUMP JUMPDEST STOP JUMPDEST CALLVALUE DUP1 ISZERO PUSH2 0x1C1 JUMPI PUSH0 DUP1 REVERT JUMPDEST POP PUSH2 0x1CA PUSH2 0x88E JUMP JUMPDEST PUSH1 0x40 MLOAD PUSH2 0x1D7 SWAP2 SWAP1 PUSH2 0xBCA JUMP JUMPDEST PUSH1 0x40 MLOAD DUP1 SWAP2 SUB SWAP1 RETURN JUMPDEST CALLVALUE DUP1 ISZERO PUSH2 0x1EB JUMPI PUSH0 DUP1 REVERT JUMPDEST POP PUSH2 0x1F4 PUSH2 0x894 JUMP JUMPDEST PUSH1 0x40 MLOAD PUSH2 0x201 SWAP2 SWAP1 PUSH2 0xBCA JUMP JUMPDEST PUSH1 0x40 MLOAD DUP1 SWAP2 SUB SWAP1 RETURN JUMPDEST CALLVALUE DUP1 ISZERO PUSH2 0x215 JUMPI PUSH0 DUP1 REVERT JUMPDEST POP PUSH2 0x21E PUSH2 0x89A JUMP JUMPDEST PUSH1 0x40 MLOAD PUSH2 0x22B SWAP2 SWAP1 PUSH2 0xCAE JUMP JUMPDEST PUSH1 0x40 MLOAD DUP1 SWAP2 SUB SWAP1 RETURN JUMPDEST CALLVALUE DUP1 ISZERO PUSH2 0x23F JUMPI PUSH0 DUP1 REVERT JUMPDEST POP PUSH2 0x248 PUSH2 0x8BD JUMP JUMPDEST PUSH1 0x40 MLOAD PUSH2 0x255 SWAP2 SWAP1 PUSH2 0xBCA JUMP JUMPDEST PUSH1 0x40 MLOAD DUP1 SWAP2 SUB SWAP1 RETURN JUMPDEST CALLVALUE DUP1 ISZERO PUSH2 0x269 JUMPI PUSH0 DUP1 REVERT JUMPDEST POP PUSH2 0x272 PUSH2 0x8C9 JUMP JUMPDEST STOP JUMPDEST PUSH2 0x27C PUSH2 0x972 JUMP JUMPDEST STOP JUMPDEST CALLVALUE DUP1 ISZERO PUSH2 0x289 JUMPI PUSH0 DUP1 REVERT JUMPDEST POP PUSH2 0x2A4 PUSH1 0x4 DUP1 CALLDATASIZE SUB DUP2 ADD SWAP1 PUSH2 0x29F SWAP2 SWAP1 PUSH2 0xC44 JUMP JUMPDEST PUSH2 0xAE2 JUMP JUMPDEST STOP JUMPDEST PUSH1 0x1 SLOAD DUP2 JUMP JUMPDEST PUSH0 DUP1 SLOAD SWAP1 PUSH2 0x100 EXP SWAP1 DIV PUSH20 0xFFFFFFFFFFFFFFFFFFFFFFFFFFFFFFFFFFFFFFFF AND PUSH20 0xFFFFFFFFFFFFFFFFFFFFFFFFFFFFFFFFFFFFFFFF AND CALLER PUSH20 0xFFFFFFFFFFFFFFFFFFFFFFFFFFFFFFFFFFFFFFFF AND EQ PUSH2 0x339 JUMPI PUSH1 0x40 MLOAD PUSH32 0x8C379A000000000000000000000000000000000000000000000000000000000 DUP2 MSTORE PUSH1 0x4 ADD PUSH2 0x330 SWAP1 PUSH2 0xD21 JUMP JUMPDEST PUSH1 0x40 MLOAD DUP1 SWAP2 SUB SWAP1 REVERT JUMPDEST PUSH1 0x5 SLOAD TIMESTAMP LT ISZERO PUSH2 0x37E JUMPI PUSH1 0x40 MLOAD PUSH32 0x8C379A000000000000000000000000000000000000000000000000000000000 DUP2 MSTORE PUSH1 0x4 ADD PUSH2 0x375 SWAP1 PUSH2 0xD89 JUMP JUMPDEST PUSH1 0x40 MLOAD DUP1 SWAP2 SUB SWAP1 REVERT JUMPDEST PUSH1 0x2 PUSH1 0x4 DUP1 SLOAD SWAP1 POP LT ISZERO PUSH2 0x3C7 JUMPI PUSH1 0x40 MLOAD PUSH32 0x8C379A000000000000000000000000000000000000000000000000000000000 DUP2 MSTORE PUSH1 0x4 ADD PUSH2 0x3BE SWAP1 PUSH2 0xDF1 JUMP JUMPDEST PUSH1 0x40 MLOAD DUP1 SWAP2 SUB SWAP1 REVERT JUMPDEST PUSH0 PUSH1 0x4 DUP1 SLOAD SWAP1 POP TIMESTAMP PUSH1 0x40 MLOAD PUSH1 0x20 ADD PUSH2 0x3DF SWAP2 SWAP1 PUSH2 0xE2F JUMP JUMPDEST PUSH1 0x40 MLOAD PUSH1 0x20 DUP2 DUP4 SUB SUB DUP2 MSTORE SWAP1 PUSH1 0x40 MSTORE DUP1 MLOAD SWAP1 PUSH1 0x20 ADD KECCAK256 PUSH0 SHR PUSH2 0x401 SWAP2 SWAP1 PUSH2 0xE76 JUMP JUMPDEST SWAP1 POP PUSH0 PUSH1 0x4 DUP3 DUP2 SLOAD DUP2 LT PUSH2 0x418 JUMPI PUSH2 0x417 PUSH2 0xEA6 JUMP JUMPDEST JUMPDEST SWAP1 PUSH0 MSTORE PUSH1 0x20 PUSH0 KECCAK256 ADD PUSH0 SWAP1 SLOAD SWAP1 PUSH2 0x100 EXP SWAP1 DIV PUSH20 0xFFFFFFFFFFFFFFFFFFFFFFFFFFFFFFFFFFFFFFFF AND SWAP1 POP PUSH1 0x4 PUSH1 0x1 PUSH1 0x4 DUP1 SLOAD SWAP1 POP PUSH2 0x456 SWAP2 SWAP1 PUSH2 0xF00 JUMP JUMPDEST DUP2 SLOAD DUP2 LT PUSH2 0x467 JUMPI PUSH2 0x466 PUSH2 0xEA6 JUMP JUMPDEST JUMPDEST SWAP1 PUSH0 MSTORE PUSH1 0x20 PUSH0 KECCAK256 ADD PUSH0 SWAP1 SLOAD SWAP1 PUSH2 0x100 EXP SWAP1 DIV PUSH20 0xFFFFFFFFFFFFFFFFFFFFFFFFFFFFFFFFFFFFFFFF AND PUSH1 0x4 DUP4 DUP2 SLOAD DUP2 LT PUSH2 0x4A3 JUMPI PUSH2 0x4A2 PUSH2 0xEA6 JUMP JUMPDEST JUMPDEST SWAP1 PUSH0 MSTORE PUSH1 0x20 PUSH0 KECCAK256 ADD PUSH0 PUSH2 0x100 EXP DUP2 SLOAD DUP2 PUSH20 0xFFFFFFFFFFFFFFFFFFFFFFFFFFFFFFFFFFFFFFFF MUL NOT AND SWAP1 DUP4 PUSH20 0xFFFFFFFFFFFFFFFFFFFFFFFFFFFFFFFFFFFFFFFF AND MUL OR SWAP1 SSTORE POP PUSH1 0x4 DUP1 SLOAD DUP1 PUSH2 0x4FA JUMPI PUSH2 0x4F9 PUSH2 0xF33 JUMP JUMPDEST JUMPDEST PUSH1 0x1 SWAP1 SUB DUP2 DUP2 SWAP1 PUSH0 MSTORE PUSH1 0x20 PUSH0 KECCAK256 ADD PUSH0 PUSH2 0x100 EXP DUP2 SLOAD SWAP1 PUSH20 0xFFFFFFFFFFFFFFFFFFFFFFFFFFFFFFFFFFFFFFFF MUL NOT AND SWAP1 SSTORE SWAP1 SSTORE PUSH0 PUSH1 0x4 DUP1 SLOAD SWAP1 POP PUSH1 0x1 TIMESTAMP PUSH2 0x540 SWAP2 SWAP1 PUSH2 0xF60 JUMP JUMPDEST PUSH1 0x40 MLOAD PUSH1 0x20 ADD PUSH2 0x550 SWAP2 SWAP1 PUSH2 0xE2F JUMP JUMPDEST PUSH1 0x40 MLOAD PUSH1 0x20 DUP2 DUP4 SUB SUB DUP2 MSTORE SWAP1 PUSH1 0x40 MSTORE DUP1 MLOAD SWAP1 PUSH1 0x20 ADD KECCAK256 PUSH0 SHR PUSH2 0x572 SWAP2 SWAP1 PUSH2 0xE76 JUMP JUMPDEST SWAP1 POP PUSH0 PUSH1 0x4 DUP3 DUP2 SLOAD DUP2 LT PUSH2 0x589 JUMPI PUSH2 0x588 PUSH2 0xEA6 JUMP JUMPDEST JUMPDEST SWAP1 PUSH0 MSTORE PUSH1 0x20 PUSH0 KECCAK256 ADD PUSH0 SWAP1 SLOAD SWAP1 PUSH2 0x100 EXP SWAP1 DIV PUSH20 0xFFFFFFFFFFFFFFFFFFFFFFFFFFFFFFFFFFFFFFFF AND SWAP1 POP DUP3 PUSH20 0xFFFFFFFFFFFFFFFFFFFFFFFFFFFFFFFFFFFFFFFF AND PUSH2 0x8FC PUSH1 0x2 SLOAD SWAP1 DUP2 ISZERO MUL SWAP1 PUSH1 0x40 MLOAD PUSH0 PUSH1 0x40 MLOAD DUP1 DUP4 SUB DUP2 DUP6 DUP9 DUP9 CALL SWAP4 POP POP POP POP ISZERO DUP1 ISZERO PUSH2 0x5F8 JUMPI RETURNDATASIZE PUSH0 DUP1 RETURNDATACOPY RETURNDATASIZE PUSH0 REVERT JUMPDEST POP DUP1 PUSH20 0xFFFFFFFFFFFFFFFFFFFFFFFFFFFFFFFFFFFFFFFF AND PUSH2 0x8FC PUSH1 0x3 SLOAD SWAP1 DUP2 ISZERO MUL SWAP1 PUSH1 0x40 MLOAD PUSH0 PUSH1 0x40 MLOAD DUP1 DUP4 SUB DUP2 DUP6 DUP9 DUP9 CALL SWAP4 POP POP POP POP ISZERO DUP1 ISZERO PUSH2 0x63E JUMPI RETURNDATASIZE PUSH0 DUP1 RETURNDATACOPY RETURNDATASIZE PUSH0 REVERT JUMPDEST POP PUSH32 0xD600C27C020374E2F6C0C8419DC78D9EED43E85D7761F337890DDFD5B25514B DUP4 PUSH1 0x2 SLOAD DUP4 PUSH1 0x3 SLOAD PUSH1 0x40 MLOAD PUSH2 0x678 SWAP5 SWAP4 SWAP3 SWAP2 SWAP1 PUSH2 0xF93 JUMP JUMPDEST PUSH1 0x40 MLOAD DUP1 SWAP2 SUB SWAP1 LOG1 PUSH1 0x4 PUSH0 PUSH2 0x68D SWAP2 SWAP1 PUSH2 0xB79 JUMP JUMPDEST PUSH3 0x93A80 PUSH1 0x5 SLOAD PUSH2 0x69E SWAP2 SWAP1 PUSH2 0xF60 JUMP JUMPDEST PUSH1 0x5 DUP2 SWAP1 SSTORE POP POP POP POP POP JUMP JUMPDEST PUSH1 0x6 PUSH0 SWAP1 SLOAD SWAP1 PUSH2 0x100 EXP SWAP1 DIV PUSH1 0xFF AND DUP2 JUMP JUMPDEST PUSH1 0x2 SLOAD DUP2 JUMP JUMPDEST PUSH1 0x4 DUP2 DUP2 SLOAD DUP2 LT PUSH2 0x6D1 JUMPI PUSH0 DUP1 REVERT JUMPDEST SWAP1 PUSH0 MSTORE PUSH1 0x20 PUSH0 KECCAK256 ADD PUSH0 SWAP2 POP SLOAD SWAP1 PUSH2 0x100 EXP SWAP1 DIV PUSH20 0xFFFFFFFFFFFFFFFFFFFFFFFFFFFFFFFFFFFFFFFF AND DUP2 JUMP JUMPDEST PUSH0 DUP1 SLOAD SWAP1 PUSH2 0x100 EXP SWAP1 DIV PUSH20 0xFFFFFFFFFFFFFFFFFFFFFFFFFFFFFFFFFFFFFFFF AND PUSH20 0xFFFFFFFFFFFFFFFFFFFFFFFFFFFFFFFFFFFFFFFF AND CALLER PUSH20 0xFFFFFFFFFFFFFFFFFFFFFFFFFFFFFFFFFFFFFFFF AND EQ PUSH2 0x78A JUMPI PUSH1 0x40 MLOAD PUSH32 0x8C379A000000000000000000000000000000000000000000000000000000000 DUP2 MSTORE PUSH1 0x4 ADD PUSH2 0x781 SWAP1 PUSH2 0x1020 JUMP JUMPDEST PUSH1 0x40 MLOAD DUP1 SWAP2 SUB SWAP1 REVERT JUMPDEST PUSH0 SELFBALANCE SWAP1 POP PUSH0 DUP2 GT PUSH2 0x7D0 JUMPI PUSH1 0x40 MLOAD PUSH32 0x8C379A000000000000000000000000000000000000000000000000000000000 DUP2 MSTORE PUSH1 0x4 ADD PUSH2 0x7C7 SWAP1 PUSH2 0x1088 JUMP JUMPDEST PUSH1 0x40 MLOAD DUP1 SWAP2 SUB SWAP1 REVERT JUMPDEST PUSH0 DUP1 SLOAD SWAP1 PUSH2 0x100 EXP SWAP1 DIV PUSH20 0xFFFFFFFFFFFFFFFFFFFFFFFFFFFFFFFFFFFFFFFF AND PUSH20 0xFFFFFFFFFFFFFFFFFFFFFFFFFFFFFFFFFFFFFFFF AND PUSH2 0x8FC DUP3 SWAP1 DUP2 ISZERO MUL SWAP1 PUSH1 0x40 MLOAD PUSH0 PUSH1 0x40 MLOAD DUP1 DUP4 SUB DUP2 DUP6 DUP9 DUP9 CALL SWAP4 POP POP POP POP ISZERO DUP1 ISZERO PUSH2 0x832 JUMPI RETURNDATASIZE PUSH0 DUP1 RETURNDATACOPY RETURNDATASIZE PUSH0 REVERT JUMPDEST POP PUSH32 0x7084F5476618D8E60B11EF0D7D3F06914655ADB8793E28FF7F018D4C76D505D5 PUSH0 DUP1 SLOAD SWAP1 PUSH2 0x100 EXP SWAP1 DIV PUSH20 0xFFFFFFFFFFFFFFFFFFFFFFFFFFFFFFFFFFFFFFFF AND DUP3 PUSH1 0x40 MLOAD PUSH2 0x883 SWAP3 SWAP2 SWAP1 PUSH2 0x10A6 JUMP JUMPDEST PUSH1 0x40 MLOAD DUP1 SWAP2 SUB SWAP1 LOG1 POP JUMP JUMPDEST PUSH1 0x3 SLOAD DUP2 JUMP JUMPDEST PUSH1 0x5 SLOAD DUP2 JUMP JUMPDEST PUSH0 DUP1 SLOAD SWAP1 PUSH2 0x100 EXP SWAP1 DIV PUSH20 0xFFFFFFFFFFFFFFFFFFFFFFFFFFFFFFFFFFFFFFFF AND DUP2 JUMP JUMPDEST PUSH0 PUSH1 0x4 DUP1 SLOAD SWAP1 POP SWAP1 POP SWAP1 JUMP JUMPDEST PUSH0 DUP1 SLOAD SWAP1 PUSH2 0x100 EXP SWAP1 DIV PUSH20 0xFFFFFFFFFFFFFFFFFFFFFFFFFFFFFFFFFFFFFFFF AND PUSH20 0xFFFFFFFFFFFFFFFFFFFFFFFFFFFFFFFFFFFFFFFF AND CALLER PUSH20 0xFFFFFFFFFFFFFFFFFFFFFFFFFFFFFFFFFFFFFFFF AND EQ PUSH2 0x956 JUMPI PUSH1 0x40 MLOAD PUSH32 0x8C379A000000000000000000000000000000000000000000000000000000000 DUP2 MSTORE PUSH1 0x4 ADD PUSH2 0x94D SWAP1 PUSH2 0x1020 JUMP JUMPDEST PUSH1 0x40 MLOAD DUP1 SWAP2 SUB SWAP1 REVERT JUMPDEST PUSH1 0x1 PUSH1 0x6 PUSH0 PUSH2 0x100 EXP DUP2 SLOAD DUP2 PUSH1 0xFF MUL NOT AND SWAP1 DUP4 ISZERO ISZERO MUL OR SWAP1 SSTORE POP JUMP JUMPDEST PUSH1 0x6 PUSH0 SWAP1 SLOAD SWAP1 PUSH2 0x100 EXP SWAP1 DIV PUSH1 0xFF AND PUSH2 0x9C0 JUMPI PUSH1 0x40 MLOAD PUSH32 0x8C379A000000000000000000000000000000000000000000000000000000000 DUP2 MSTORE PUSH1 0x4 ADD PUSH2 0x9B7 SWAP1 PUSH2 0x1117 JUMP JUMPDEST PUSH1 0x40 MLOAD DUP1 SWAP2 SUB SWAP1 REVERT JUMPDEST PUSH1 0x5 SLOAD TIMESTAMP LT PUSH2 0xA04 JUMPI PUSH1 0x40 MLOAD PUSH32 0x8C379A000000000000000000000000000000000000000000000000000000000 DUP2 MSTORE PUSH1 0x4 ADD PUSH2 0x9FB SWAP1 PUSH2 0x117F JUMP JUMPDEST PUSH1 0x40 MLOAD DUP1 SWAP2 SUB SWAP1 REVERT JUMPDEST PUSH1 0x1 SLOAD CALLVALUE LT ISZERO PUSH2 0xA49 JUMPI PUSH1 0x40 MLOAD PUSH32 0x8C379A000000000000000000000000000000000000000000000000000000000 DUP2 MSTORE PUSH1 0x4 ADD PUSH2 0xA40 SWAP1 PUSH2 0x11E7 JUMP JUMPDEST PUSH1 0x40 MLOAD DUP1 SWAP2 SUB SWAP1 REVERT JUMPDEST PUSH1 0x4 CALLER SWAP1 DUP1 PUSH1 0x1 DUP2 SLOAD ADD DUP1 DUP3 SSTORE DUP1 SWAP2 POP POP PUSH1 0x1 SWAP1 SUB SWAP1 PUSH0 MSTORE PUSH1 0x20 PUSH0 KECCAK256 ADD PUSH0 SWAP1 SWAP2 SWAP1 SWAP2 SWAP1 SWAP2 PUSH2 0x100 EXP DUP2 SLOAD DUP2 PUSH20 0xFFFFFFFFFFFFFFFFFFFFFFFFFFFFFFFFFFFFFFFF MUL NOT AND SWAP1 DUP4 PUSH20 0xFFFFFFFFFFFFFFFFFFFFFFFFFFFFFFFFFFFFFFFF AND MUL OR SWAP1 SSTORE POP PUSH32 0x896131CA629C91D572FA56A5496788038DAE3A7DC3CC6686AF073C4E13EFD309 CALLER PUSH1 0x40 MLOAD PUSH2 0xAD8 SWAP2 SWAP1 PUSH2 0xCAE JUMP JUMPDEST PUSH1 0x40 MLOAD DUP1 SWAP2 SUB SWAP1 LOG1 JUMP JUMPDEST PUSH0 DUP1 SLOAD SWAP1 PUSH2 0x100 EXP SWAP1 DIV PUSH20 0xFFFFFFFFFFFFFFFFFFFFFFFFFFFFFFFFFFFFFFFF AND PUSH20 0xFFFFFFFFFFFFFFFFFFFFFFFFFFFFFFFFFFFFFFFF AND CALLER PUSH20 0xFFFFFFFFFFFFFFFFFFFFFFFFFFFFFFFFFFFFFFFF AND EQ PUSH2 0xB6F JUMPI PUSH1 0x40 MLOAD PUSH32 0x8C379A000000000000000000000000000000000000000000000000000000000 DUP2 MSTORE PUSH1 0x4 ADD PUSH2 0xB66 SWAP1 PUSH2 0x1020 JUMP JUMPDEST PUSH1 0x40 MLOAD DUP1 SWAP2 SUB SWAP1 REVERT JUMPDEST DUP1 PUSH1 0x1 DUP2 SWAP1 SSTORE POP POP JUMP JUMPDEST POP DUP1 SLOAD PUSH0 DUP3 SSTORE SWAP1 PUSH0 MSTORE PUSH1 0x20 PUSH0 KECCAK256 SWAP1 DUP2 ADD SWAP1 PUSH2 0xB94 SWAP2 SWAP1 PUSH2 0xB97 JUMP JUMPDEST POP JUMP JUMPDEST JUMPDEST DUP1 DUP3 GT ISZERO PUSH2 0xBAE JUMPI PUSH0 DUP2 PUSH0 SWAP1 SSTORE POP PUSH1 0x1 ADD PUSH2 0xB98 JUMP JUMPDEST POP SWAP1 JUMP JUMPDEST PUSH0 DUP2 SWAP1 POP SWAP2 SWAP1 POP JUMP JUMPDEST PUSH2 0xBC4 DUP2 PUSH2 0xBB2 JUMP JUMPDEST DUP3 MSTORE POP POP JUMP JUMPDEST PUSH0 PUSH1 0x20 DUP3 ADD SWAP1 POP PUSH2 0xBDD PUSH0 DUP4 ADD DUP5 PUSH2 0xBBB JUMP JUMPDEST SWAP3 SWAP2 POP POP JUMP JUMPDEST PUSH0 DUP2 ISZERO ISZERO SWAP1 POP SWAP2 SWAP1 POP JUMP JUMPDEST PUSH2 0xBF7 DUP2 PUSH2 0xBE3 JUMP JUMPDEST DUP3 MSTORE POP POP JUMP JUMPDEST PUSH0 PUSH1 0x20 DUP3 ADD SWAP1 POP PUSH2 0xC10 PUSH0 DUP4 ADD DUP5 PUSH2 0xBEE JUMP JUMPDEST SWAP3 SWAP2 POP POP JUMP JUMPDEST PUSH0 DUP1 REVERT JUMPDEST PUSH2 0xC23 DUP2 PUSH2 0xBB2 JUMP JUMPDEST DUP2 EQ PUSH2 0xC2D JUMPI PUSH0 DUP1 REVERT JUMPDEST POP JUMP JUMPDEST PUSH0 DUP2 CALLDATALOAD SWAP1 POP PUSH2 0xC3E DUP2 PUSH2 0xC1A JUMP JUMPDEST SWAP3 SWAP2 POP POP JUMP JUMPDEST PUSH0 PUSH1 0x20 DUP3 DUP5 SUB SLT ISZERO PUSH2 0xC59 JUMPI PUSH2 0xC58 PUSH2 0xC16 JUMP JUMPDEST JUMPDEST PUSH0 PUSH2 0xC66 DUP5 DUP3 DUP6 ADD PUSH2 0xC30 JUMP JUMPDEST SWAP2 POP POP SWAP3 SWAP2 POP POP JUMP JUMPDEST PUSH0 PUSH20 0xFFFFFFFFFFFFFFFFFFFFFFFFFFFFFFFFFFFFFFFF DUP3 AND SWAP1 POP SWAP2 SWAP1 POP JUMP JUMPDEST PUSH0 PUSH2 0xC98 DUP3 PUSH2 0xC6F JUMP JUMPDEST SWAP1 POP SWAP2 SWAP1 POP JUMP JUMPDEST PUSH2 0xCA8 DUP2 PUSH2 0xC8E JUMP JUMPDEST DUP3 MSTORE POP POP JUMP JUMPDEST PUSH0 PUSH1 0x20 DUP3 ADD SWAP1 POP PUSH2 0xCC1 PUSH0 DUP4 ADD DUP5 PUSH2 0xC9F JUMP JUMPDEST SWAP3 SWAP2 POP POP JUMP JUMPDEST PUSH0 DUP3 DUP3 MSTORE PUSH1 0x20 DUP3 ADD SWAP1 POP SWAP3 SWAP2 POP POP JUMP JUMPDEST PUSH32 0x4F6E6C79206F776E65722063616E207069636B2077696E6E6572730000000000 PUSH0 DUP3 ADD MSTORE POP JUMP JUMPDEST PUSH0 PUSH2 0xD0B PUSH1 0x1B DUP4 PUSH2 0xCC7 JUMP JUMPDEST SWAP2 POP PUSH2 0xD16 DUP3 PUSH2 0xCD7 JUMP JUMPDEST PUSH1 0x20 DUP3 ADD SWAP1 POP SWAP2 SWAP1 POP JUMP JUMPDEST PUSH0 PUSH1 0x20 DUP3 ADD SWAP1 POP DUP2 DUP2 SUB PUSH0 DUP4 ADD MSTORE PUSH2 0xD38 DUP2 PUSH2 0xCFF JUMP JUMPDEST SWAP1 POP SWAP2 SWAP1 POP JUMP JUMPDEST PUSH32 0x546F6F206561726C790000000000000000000000000000000000000000000000 PUSH0 DUP3 ADD MSTORE POP JUMP JUMPDEST PUSH0 PUSH2 0xD73 PUSH1 0x9 DUP4 PUSH2 0xCC7 JUMP JUMPDEST SWAP2 POP PUSH2 0xD7E DUP3 PUSH2 0xD3F JUMP JUMPDEST PUSH1 0x20 DUP3 ADD SWAP1 POP SWAP2 SWAP1 POP JUMP JUMPDEST PUSH0 PUSH1 0x20 DUP3 ADD SWAP1 POP DUP2 DUP2 SUB PUSH0 DUP4 ADD MSTORE PUSH2 0xDA0 DUP2 PUSH2 0xD67 JUMP JUMPDEST SWAP1 POP SWAP2 SWAP1 POP JUMP JUMPDEST PUSH32 0x4E656564206174206C65617374203220706C6179657273000000000000000000 PUSH0 DUP3 ADD MSTORE POP JUMP JUMPDEST PUSH0 PUSH2 0xDDB PUSH1 0x17 DUP4 PUSH2 0xCC7 JUMP JUMPDEST SWAP2 POP PUSH2 0xDE6 DUP3 PUSH2 0xDA7 JUMP JUMPDEST PUSH1 0x20 DUP3 ADD SWAP1 POP SWAP2 SWAP1 POP JUMP JUMPDEST PUSH0 PUSH1 0x20 DUP3 ADD SWAP1 POP DUP2 DUP2 SUB PUSH0 DUP4 ADD MSTORE PUSH2 0xE08 DUP2 PUSH2 0xDCF JUMP JUMPDEST SWAP1 POP SWAP2 SWAP1 POP JUMP JUMPDEST PUSH0 DUP2 SWAP1 POP SWAP2 SWAP1 POP JUMP JUMPDEST PUSH2 0xE29 PUSH2 0xE24 DUP3 PUSH2 0xBB2 JUMP JUMPDEST PUSH2 0xE0F JUMP JUMPDEST DUP3 MSTORE POP POP JUMP JUMPDEST PUSH0 PUSH2 0xE3A DUP3 DUP5 PUSH2 0xE18 JUMP JUMPDEST PUSH1 0x20 DUP3 ADD SWAP2 POP DUP2 SWAP1 POP SWAP3 SWAP2 POP POP JUMP JUMPDEST PUSH32 0x4E487B7100000000000000000000000000000000000000000000000000000000 PUSH0 MSTORE PUSH1 0x12 PUSH1 0x4 MSTORE PUSH1 0x24 PUSH0 REVERT JUMPDEST PUSH0 PUSH2 0xE80 DUP3 PUSH2 0xBB2 JUMP JUMPDEST SWAP2 POP PUSH2 0xE8B DUP4 PUSH2 0xBB2 JUMP JUMPDEST SWAP3 POP DUP3 PUSH2 0xE9B JUMPI PUSH2 0xE9A PUSH2 0xE49 JUMP JUMPDEST JUMPDEST DUP3 DUP3 MOD SWAP1 POP SWAP3 SWAP2 POP POP JUMP JUMPDEST PUSH32 0x4E487B7100000000000000000000000000000000000000000000000000000000 PUSH0 MSTORE PUSH1 0x32 PUSH1 0x4 MSTORE PUSH1 0x24 PUSH0 REVERT JUMPDEST PUSH32 0x4E487B7100000000000000000000000000000000000000000000000000000000 PUSH0 MSTORE PUSH1 0x11 PUSH1 0x4 MSTORE PUSH1 0x24 PUSH0 REVERT JUMPDEST PUSH0 PUSH2 0xF0A DUP3 PUSH2 0xBB2 JUMP JUMPDEST SWAP2 POP PUSH2 0xF15 DUP4 PUSH2 0xBB2 JUMP JUMPDEST SWAP3 POP DUP3 DUP3 SUB SWAP1 POP DUP2 DUP2 GT ISZERO PUSH2 0xF2D JUMPI PUSH2 0xF2C PUSH2 0xED3 JUMP JUMPDEST JUMPDEST SWAP3 SWAP2 POP POP JUMP JUMPDEST PUSH32 0x4E487B7100000000000000000000000000000000000000000000000000000000 PUSH0 MSTORE PUSH1 0x31 PUSH1 0x4 MSTORE PUSH1 0x24 PUSH0 REVERT JUMPDEST PUSH0 PUSH2 0xF6A DUP3 PUSH2 0xBB2 JUMP JUMPDEST SWAP2 POP PUSH2 0xF75 DUP4 PUSH2 0xBB2 JUMP JUMPDEST SWAP3 POP DUP3 DUP3 ADD SWAP1 POP DUP1 DUP3 GT ISZERO PUSH2 0xF8D JUMPI PUSH2 0xF8C PUSH2 0xED3 JUMP JUMPDEST JUMPDEST SWAP3 SWAP2 POP POP JUMP JUMPDEST PUSH0 PUSH1 0x80 DUP3 ADD SWAP1 POP PUSH2 0xFA6 PUSH0 DUP4 ADD DUP8 PUSH2 0xC9F JUMP JUMPDEST PUSH2 0xFB3 PUSH1 0x20 DUP4 ADD DUP7 PUSH2 0xBBB JUMP JUMPDEST PUSH2 0xFC0 PUSH1 0x40 DUP4 ADD DUP6 PUSH2 0xC9F JUMP JUMPDEST PUSH2 0xFCD PUSH1 0x60 DUP4 ADD DUP5 PUSH2 0xBBB JUMP JUMPDEST SWAP6 SWAP5 POP POP POP POP POP JUMP JUMPDEST PUSH32 0x4F6E6C79206F776E657200000000000000000000000000000000000000000000 PUSH0 DUP3 ADD MSTORE POP JUMP JUMPDEST PUSH0 PUSH2 0x100A PUSH1 0xA DUP4 PUSH2 0xCC7 JUMP JUMPDEST SWAP2 POP PUSH2 0x1015 DUP3 PUSH2 0xFD6 JUMP JUMPDEST PUSH1 0x20 DUP3 ADD SWAP1 POP SWAP2 SWAP1 POP JUMP JUMPDEST PUSH0 PUSH1 0x20 DUP3 ADD SWAP1 POP DUP2 DUP2 SUB PUSH0 DUP4 ADD MSTORE PUSH2 0x1037 DUP2 PUSH2 0xFFE JUMP JUMPDEST SWAP1 POP SWAP2 SWAP1 POP JUMP JUMPDEST PUSH32 0x4E6F2066756E647320746F207769746864726177000000000000000000000000 PUSH0 DUP3 ADD MSTORE POP JUMP JUMPDEST PUSH0 PUSH2 0x1072 PUSH1 0x14 DUP4 PUSH2 0xCC7 JUMP JUMPDEST SWAP2 POP PUSH2 0x107D DUP3 PUSH2 0x103E JUMP JUMPDEST PUSH1 0x20 DUP3 ADD SWAP1 POP SWAP2 SWAP1 POP JUMP JUMPDEST PUSH0 PUSH1 0x20 DUP3 ADD SWAP1 POP DUP2 DUP2 SUB PUSH0 DUP4 ADD MSTORE PUSH2 0x109F DUP2 PUSH2 0x1066 JUMP JUMPDEST SWAP1 POP SWAP2 SWAP1 POP JUMP JUMPDEST PUSH0 PUSH1 0x40 DUP3 ADD SWAP1 POP PUSH2 0x10B9 PUSH0 DUP4 ADD DUP6 PUSH2 0xC9F JUMP JUMPDEST PUSH2 0x10C6 PUSH1 0x20 DUP4 ADD DUP5 PUSH2 0xBBB JUMP JUMPDEST SWAP4 SWAP3 POP POP POP JUMP JUMPDEST PUSH32 0x436F6D7065746974696F6E206E6F742061637469766500000000000000000000 PUSH0 DUP3 ADD MSTORE POP JUMP JUMPDEST PUSH0 PUSH2 0x1101 PUSH1 0x16 DUP4 PUSH2 0xCC7 JUMP JUMPDEST SWAP2 POP PUSH2 0x110C DUP3 PUSH2 0x10CD JUMP JUMPDEST PUSH1 0x20 DUP3 ADD SWAP1 POP SWAP2 SWAP1 POP JUMP JUMPDEST PUSH0 PUSH1 0x20 DUP3 ADD SWAP1 POP DUP2 DUP2 SUB PUSH0 DUP4 ADD MSTORE PUSH2 0x112E DUP2 PUSH2 0x10F5 JUMP JUMPDEST SWAP1 POP SWAP2 SWAP1 POP JUMP JUMPDEST PUSH32 0x4472617720616C726561647920656E6465640000000000000000000000000000 PUSH0 DUP3 ADD MSTORE POP JUMP JUMPDEST PUSH0 PUSH2 0x1169 PUSH1 0x12 DUP4 PUSH2 0xCC7 JUMP JUMPDEST SWAP2 POP PUSH2 0x1174 DUP3 PUSH2 0x1135 JUMP JUMPDEST PUSH1 0x20 DUP3 ADD SWAP1 POP SWAP2 SWAP1 POP JUMP JUMPDEST PUSH0 PUSH1 0x20 DUP3 ADD SWAP1 POP DUP2 DUP2 SUB PUSH0 DUP4 ADD MSTORE PUSH2 0x1196 DUP2 PUSH2 0x115D JUMP JUMPDEST SWAP1 POP SWAP2 SWAP1 POP JUMP JUMPDEST PUSH32 0x4E6F7420656E6F75676820785A4E4E2073656E74000000000000000000000000 PUSH0 DUP3 ADD MSTORE POP JUMP JUMPDEST PUSH0 PUSH2 0x11D1 PUSH1 0x14 DUP4 PUSH2 0xCC7 JUMP JUMPDEST SWAP2 POP PUSH2 0x11DC DUP3 PUSH2 0x119D JUMP JUMPDEST PUSH1 0x20 DUP3 ADD SWAP1 POP SWAP2 SWAP1 POP JUMP JUMPDEST PUSH0 PUSH1 0x20 DUP3 ADD SWAP1 POP DUP2 DUP2 SUB PUSH0 DUP4 ADD MSTORE PUSH2 0x11FE DUP2 PUSH2 0x11C5 JUMP JUMPDEST SWAP1 POP SWAP2 SWAP1 POP JUMP INVALID LOG2 PUSH5 0x6970667358 0x22 SLT KECCAK256 SWAP9 0xC6 TLOAD 0x2C 0xA9 SLT CREATE2 PUSH17 0x8D7BD774B77FA0F3711B1BFC671707CE01 SWAP12 0xAC SWAP5 SWAP9 0xD5 PUSH22 0x2D64736F6C634300081A003300000000000000000000 "
				},
				"gasEstimates": {
					"creation": {
						"codeDepositCost": "933400",
						"executionCost": "120827",
						"totalCost": "1054227"
					},
					"external": {
						"enter()": "56394",
						"entryFee()": "2426",
						"firstPrize()": "2492",
						"getParticipantCount()": "2462",
						"isActive()": "2511",
						"nextDrawTime()": "2470",
						"owner()": "2572",
						"participants(uint256)": "5033",
						"secondPrize()": "2448",
						"selectWinners()": "infinite",
						"setEntryFee(uint256)": "24769",
						"startCompetition()": "26619",
						"withdraw()": "infinite"
					}
				},
				"methodIdentifiers": {
					"enter()": "e97dcb62",
					"entryFee()": "072ea61c",
					"firstPrize()": "2e98520c",
					"getParticipantCount()": "ad605729",
					"isActive()": "22f3e2d4",
					"nextDrawTime()": "74f47a7a",
					"owner()": "8da5cb5b",
					"participants(uint256)": "35c1d349",
					"secondPrize()": "3d70bc52",
					"selectWinners()": "1a0de74c",
					"setEntryFee(uint256)": "eb770d0c",
					"startCompetition()": "d3e66a9e",
					"withdraw()": "3ccfd60b"
				}
			},
			"storageLayout": {
				"storage": [
					{
						"astId": 3,
						"contract": "FZF/FreeZenonFriday.sol:FreeZenonFriday",
						"label": "owner",
						"offset": 0,
						"slot": "0",
						"type": "t_address"
					},
					{
						"astId": 6,
						"contract": "FZF/FreeZenonFriday.sol:FreeZenonFriday",
						"label": "entryFee",
						"offset": 0,
						"slot": "1",
						"type": "t_uint256"
					},
					{
						"astId": 9,
						"contract": "FZF/FreeZenonFriday.sol:FreeZenonFriday",
						"label": "firstPrize",
						"offset": 0,
						"slot": "2",
						"type": "t_uint256"
					},
					{
						"astId": 12,
						"contract": "FZF/FreeZenonFriday.sol:FreeZenonFriday",
						"label": "secondPrize",
						"offset": 0,
						"slot": "3",
						"type": "t_uint256"
					},
					{
						"astId": 15,
						"contract": "FZF/FreeZenonFriday.sol:FreeZenonFriday",
						"label": "participants",
						"offset": 0,
						"slot": "4",
						"type": "t_array(t_address)dyn_storage"
					},
					{
						"astId": 17,
						"contract": "FZF/FreeZenonFriday.sol:FreeZenonFriday",
						"label": "nextDrawTime",
						"offset": 0,
						"slot": "5",
						"type": "t_uint256"
					},
					{
						"astId": 20,
						"contract": "FZF/FreeZenonFriday.sol:FreeZenonFriday",
						"label": "isActive",
						"offset": 0,
						"slot": "6",
						"type": "t_bool"
					}
				],
				"types": {
					"t_address": {
						"encoding": "inplace",
						"label": "address",
						"numberOfBytes": "20"
					},
					"t_array(t_address)dyn_storage": {
						"base": "t_address",
						"encoding": "dynamic_array",
						"label": "address[]",
						"numberOfBytes": "32"
					},
					"t_bool": {
						"encoding": "inplace",
						"label": "bool",
						"numberOfBytes": "1"
					},
					"t_uint256": {
						"encoding": "inplace",
						"label": "uint256",
						"numberOfBytes": "32"
					}
				}
			},
			"userdoc": {
				"kind": "user",
				"methods": {},
				"version": 1
			}
		}
	}
}