{
	"FZF/FZFtest.sol": {
		"FreeZenonFriday": {
			"abi": [
				{
					"inputs": [],
					"stateMutability": "nonpayable",
					"type": "constructor"
				},
				{
					"anonymous": false,
					"inputs": [
						{
							"indexed": false,
							"internalType": "address",
							"name": "participant",
							"type": "address"
						}
					],
					"name": "NewEntry",
					"type": "event"
				},
				{
					"anonymous": false,
					"inputs": [
						{
							"indexed": false,
							"internalType": "address",
							"name": "firstWinner",
							"type": "address"
						},
						{
							"indexed": false,
							"internalType": "uint256",
							"name": "firstAmount",
							"type": "uint256"
						},
						{
							"indexed": false,
							"internalType": "address",
							"name": "secondWinner",
							"type": "address"
						},
						{
							"indexed": false,
							"internalType": "uint256",
							"name": "secondAmount",
							"type": "uint256"
						}
					],
					"name": "WinnersSelected",
					"type": "event"
				},
				{
					"inputs": [],
					"name": "enter",
					"outputs": [],
					"stateMutability": "payable",
					"type": "function"
				},
				{
					"inputs": [],
					"name": "entryFee",
					"outputs": [
						{
							"internalType": "uint256",
							"name": "",
							"type": "uint256"
						}
					],
					"stateMutability": "view",
					"type": "function"
				},
				{
					"inputs": [],
					"name": "firstPrize",
					"outputs": [
						{
							"internalType": "uint256",
							"name": "",
							"type": "uint256"
						}
					],
					"stateMutability": "view",
					"type": "function"
				},
				{
					"inputs": [],
					"name": "isActive",
					"outputs": [
						{
							"internalType": "bool",
							"name": "",
							"type": "bool"
						}
					],
					"stateMutability": "view",
					"type": "function"
				},
				{
					"inputs": [],
					"name": "nextDrawTime",
					"outputs": [
						{
							"internalType": "uint256",
							"name": "",
							"type": "uint256"
						}
					],
					"stateMutability": "view",
					"type": "function"
				},
				{
					"inputs": [],
					"name": "owner",
					"outputs": [
						{
							"internalType": "address",
							"name": "",
							"type": "address"
						}
					],
					"stateMutability": "view",
					"type": "function"
				},
				{
					"inputs": [
						{
							"internalType": "uint256",
							"name": "",
							"type": "uint256"
						}
					],
					"name": "participants",
					"outputs": [
						{
							"internalType": "address",
							"name": "",
							"type": "address"
						}
					],
					"stateMutability": "view",
					"type": "function"
				},
				{
					"inputs": [],
					"name": "secondPrize",
					"outputs": [
						{
							"internalType": "uint256",
							"name": "",
							"type": "uint256"
						}
					],
					"stateMutability": "view",
					"type": "function"
				},
				{
					"inputs": [],
					"name": "selectWinners",
					"outputs": [],
					"stateMutability": "nonpayable",
					"type": "function"
				},
				{
					"inputs": [
						{
							"internalType": "uint256",
							"name": "newFee",
							"type": "uint256"
						}
					],
					"name": "setEntryFee",
					"outputs": [],
					"stateMutability": "nonpayable",
					"type": "function"
				},
				{
					"inputs": [],
					"name": "startCompetition",
					"outputs": [],
					"stateMutability": "nonpayable",
					"type": "function"
				},
				{
					"stateMutability": "payable",
					"type": "receive"
				}
			],
			"devdoc": {
				"kind": "dev",
				"methods": {},
				"version": 1
			},
			"evm": {
				"assembly": "    /* \"FZF/FZFtest.sol\":57:2189  contract FreeZenonFriday {... */\n  mstore(0x40, 0x80)\n    /* \"FZF/FZFtest.sol\":140:141  0 */\n  0x00\n    /* \"FZF/FZFtest.sol\":114:141  uint256 public entryFee = 0 */\n  0x01\n  sstore\n    /* \"FZF/FZFtest.sol\":175:184  2.1 ether */\n  0x1d24b2dfac520000\n    /* \"FZF/FZFtest.sol\":147:184  uint256 public firstPrize = 2.1 ether */\n  0x02\n  sstore\n    /* \"FZF/FZFtest.sol\":219:228  0.9 ether */\n  0x0c7d713b49da0000\n    /* \"FZF/FZFtest.sol\":190:228  uint256 public secondPrize = 0.9 ether */\n  0x03\n  sstore\n    /* \"FZF/FZFtest.sol\":325:330  false */\n  0x00\n    /* \"FZF/FZFtest.sol\":302:330  bool public isActive = false */\n  0x06\n  exp(0x0100, 0x00)\n  dup2\n  sload\n  dup2\n  0xff\n  mul\n  not\n  and\n  swap1\n  dup4\n  iszero\n  iszero\n  mul\n  or\n  swap1\n  sstore\n  pop\n    /* \"FZF/FZFtest.sol\":529:650  constructor() {... */\n  callvalue\n  dup1\n  iszero\n  tag_1\n  jumpi\n  0x00\n  dup1\n  revert\ntag_1:\n  pop\n    /* \"FZF/FZFtest.sol\":561:571  msg.sender */\n  caller\n    /* \"FZF/FZFtest.sol\":553:558  owner */\n  0x00\n  dup1\n    /* \"FZF/FZFtest.sol\":553:571  owner = msg.sender */\n  0x0100\n  exp\n  dup2\n  sload\n  dup2\n  0xffffffffffffffffffffffffffffffffffffffff\n  mul\n  not\n  and\n  swap1\n  dup4\n  0xffffffffffffffffffffffffffffffffffffffff\n  and\n  mul\n  or\n  swap1\n  sstore\n  pop\n    /* \"FZF/FZFtest.sol\":596:606  1743537600 */\n  0x67ec45c0\n    /* \"FZF/FZFtest.sol\":581:593  nextDrawTime */\n  0x05\n    /* \"FZF/FZFtest.sol\":581:606  nextDrawTime = 1743537600 */\n  dup2\n  swap1\n  sstore\n  pop\n    /* \"FZF/FZFtest.sol\":57:2189  contract FreeZenonFriday {... */\n  dataSize(sub_0)\n  dup1\n  dataOffset(sub_0)\n  0x00\n  codecopy\n  0x00\n  return\nstop\n\nsub_0: assembly {\n        /* \"FZF/FZFtest.sol\":57:2189  contract FreeZenonFriday {... */\n      mstore(0x40, 0x80)\n      jumpi(tag_1, lt(calldatasize, 0x04))\n      shr(0xe0, calldataload(0x00))\n      dup1\n      0x3d70bc52\n      gt\n      tag_14\n      jumpi\n      dup1\n      0x3d70bc52\n      eq\n      tag_8\n      jumpi\n      dup1\n      0x74f47a7a\n      eq\n      tag_9\n      jumpi\n      dup1\n      0x8da5cb5b\n      eq\n      tag_10\n      jumpi\n      dup1\n      0xd3e66a9e\n      eq\n      tag_11\n      jumpi\n      dup1\n      0xe97dcb62\n      eq\n      tag_12\n      jumpi\n      dup1\n      0xeb770d0c\n      eq\n      tag_13\n      jumpi\n      jump(tag_2)\n    tag_14:\n      dup1\n      0x072ea61c\n      eq\n      tag_3\n      jumpi\n      dup1\n      0x1a0de74c\n      eq\n      tag_4\n      jumpi\n      dup1\n      0x22f3e2d4\n      eq\n      tag_5\n      jumpi\n      dup1\n      0x2e98520c\n      eq\n      tag_6\n      jumpi\n      dup1\n      0x35c1d349\n      eq\n      tag_7\n      jumpi\n      jump(tag_2)\n    tag_1:\n      jumpi(tag_2, calldatasize)\n      stop\n    tag_2:\n      0x00\n      dup1\n      revert\n        /* \"FZF/FZFtest.sol\":114:141  uint256 public entryFee = 0 */\n    tag_3:\n      callvalue\n      dup1\n      iszero\n      tag_17\n      jumpi\n      0x00\n      dup1\n      revert\n    tag_17:\n      pop\n      tag_18\n      tag_19\n      jump\t// in\n    tag_18:\n      mload(0x40)\n      tag_20\n      swap2\n      swap1\n      tag_21\n      jump\t// in\n    tag_20:\n      mload(0x40)\n      dup1\n      swap2\n      sub\n      swap1\n      return\n        /* \"FZF/FZFtest.sol\":965:1887  function selectWinners() external {... */\n    tag_4:\n      callvalue\n      dup1\n      iszero\n      tag_22\n      jumpi\n      0x00\n      dup1\n      revert\n    tag_22:\n      pop\n      tag_23\n      tag_24\n      jump\t// in\n    tag_23:\n      stop\n        /* \"FZF/FZFtest.sol\":302:330  bool public isActive = false */\n    tag_5:\n      callvalue\n      dup1\n      iszero\n      tag_25\n      jumpi\n      0x00\n      dup1\n      revert\n    tag_25:\n      pop\n      tag_26\n      tag_27\n      jump\t// in\n    tag_26:\n      mload(0x40)\n      tag_28\n      swap2\n      swap1\n      tag_29\n      jump\t// in\n    tag_28:\n      mload(0x40)\n      dup1\n      swap2\n      sub\n      swap1\n      return\n        /* \"FZF/FZFtest.sol\":147:184  uint256 public firstPrize = 2.1 ether */\n    tag_6:\n      callvalue\n      dup1\n      iszero\n      tag_30\n      jumpi\n      0x00\n      dup1\n      revert\n    tag_30:\n      pop\n      tag_31\n      tag_32\n      jump\t// in\n    tag_31:\n      mload(0x40)\n      tag_33\n      swap2\n      swap1\n      tag_21\n      jump\t// in\n    tag_33:\n      mload(0x40)\n      dup1\n      swap2\n      sub\n      swap1\n      return\n        /* \"FZF/FZFtest.sol\":234:263  address[] public participants */\n    tag_7:\n      callvalue\n      dup1\n      iszero\n      tag_34\n      jumpi\n      0x00\n      dup1\n      revert\n    tag_34:\n      pop\n      tag_35\n      0x04\n      dup1\n      calldatasize\n      sub\n      dup2\n      add\n      swap1\n      tag_36\n      swap2\n      swap1\n      tag_37\n      jump\t// in\n    tag_36:\n      tag_38\n      jump\t// in\n    tag_35:\n      mload(0x40)\n      tag_39\n      swap2\n      swap1\n      tag_40\n      jump\t// in\n    tag_39:\n      mload(0x40)\n      dup1\n      swap2\n      sub\n      swap1\n      return\n        /* \"FZF/FZFtest.sol\":190:228  uint256 public secondPrize = 0.9 ether */\n    tag_8:\n      callvalue\n      dup1\n      iszero\n      tag_41\n      jumpi\n      0x00\n      dup1\n      revert\n    tag_41:\n      pop\n      tag_42\n      tag_43\n      jump\t// in\n    tag_42:\n      mload(0x40)\n      tag_44\n      swap2\n      swap1\n      tag_21\n      jump\t// in\n    tag_44:\n      mload(0x40)\n      dup1\n      swap2\n      sub\n      swap1\n      return\n        /* \"FZF/FZFtest.sol\":269:296  uint256 public nextDrawTime */\n    tag_9:\n      callvalue\n      dup1\n      iszero\n      tag_45\n      jumpi\n      0x00\n      dup1\n      revert\n    tag_45:\n      pop\n      tag_46\n      tag_47\n      jump\t// in\n    tag_46:\n      mload(0x40)\n      tag_48\n      swap2\n      swap1\n      tag_21\n      jump\t// in\n    tag_48:\n      mload(0x40)\n      dup1\n      swap2\n      sub\n      swap1\n      return\n        /* \"FZF/FZFtest.sol\":88:108  address public owner */\n    tag_10:\n      callvalue\n      dup1\n      iszero\n      tag_49\n      jumpi\n      0x00\n      dup1\n      revert\n    tag_49:\n      pop\n      tag_50\n      tag_51\n      jump\t// in\n    tag_50:\n      mload(0x40)\n      tag_52\n      swap2\n      swap1\n      tag_40\n      jump\t// in\n    tag_52:\n      mload(0x40)\n      dup1\n      swap2\n      sub\n      swap1\n      return\n        /* \"FZF/FZFtest.sol\":1893:2014  function startCompetition() external {... */\n    tag_11:\n      callvalue\n      dup1\n      iszero\n      tag_53\n      jumpi\n      0x00\n      dup1\n      revert\n    tag_53:\n      pop\n      tag_54\n      tag_55\n      jump\t// in\n    tag_54:\n      stop\n        /* \"FZF/FZFtest.sol\":656:959  function enter() external payable {... */\n    tag_12:\n      tag_56\n      tag_57\n      jump\t// in\n    tag_56:\n      stop\n        /* \"FZF/FZFtest.sol\":2020:2152  function setEntryFee(uint256 newFee) external {... */\n    tag_13:\n      callvalue\n      dup1\n      iszero\n      tag_58\n      jumpi\n      0x00\n      dup1\n      revert\n    tag_58:\n      pop\n      tag_59\n      0x04\n      dup1\n      calldatasize\n      sub\n      dup2\n      add\n      swap1\n      tag_60\n      swap2\n      swap1\n      tag_37\n      jump\t// in\n    tag_60:\n      tag_61\n      jump\t// in\n    tag_59:\n      stop\n        /* \"FZF/FZFtest.sol\":114:141  uint256 public entryFee = 0 */\n    tag_19:\n      sload(0x01)\n      dup2\n      jump\t// out\n        /* \"FZF/FZFtest.sol\":965:1887  function selectWinners() external {... */\n    tag_24:\n        /* \"FZF/FZFtest.sol\":1031:1036  owner */\n      0x00\n      dup1\n      sload\n      swap1\n      0x0100\n      exp\n      swap1\n      div\n      0xffffffffffffffffffffffffffffffffffffffff\n      and\n        /* \"FZF/FZFtest.sol\":1017:1036  msg.sender == owner */\n      0xffffffffffffffffffffffffffffffffffffffff\n      and\n        /* \"FZF/FZFtest.sol\":1017:1027  msg.sender */\n      caller\n        /* \"FZF/FZFtest.sol\":1017:1036  msg.sender == owner */\n      0xffffffffffffffffffffffffffffffffffffffff\n      and\n      eq\n        /* \"FZF/FZFtest.sol\":1009:1068  require(msg.sender == owner, \"Only owner can pick winners\") */\n      tag_63\n      jumpi\n      mload(0x40)\n      0x08c379a000000000000000000000000000000000000000000000000000000000\n      dup2\n      mstore\n      0x04\n      add\n      tag_64\n      swap1\n      tag_65\n      jump\t// in\n    tag_64:\n      mload(0x40)\n      dup1\n      swap2\n      sub\n      swap1\n      revert\n    tag_63:\n        /* \"FZF/FZFtest.sol\":1105:1117  nextDrawTime */\n      sload(0x05)\n        /* \"FZF/FZFtest.sol\":1086:1101  block.timestamp */\n      timestamp\n        /* \"FZF/FZFtest.sol\":1086:1117  block.timestamp >= nextDrawTime */\n      lt\n      iszero\n        /* \"FZF/FZFtest.sol\":1078:1131  require(block.timestamp >= nextDrawTime, \"Too early\") */\n      tag_66\n      jumpi\n      mload(0x40)\n      0x08c379a000000000000000000000000000000000000000000000000000000000\n      dup2\n      mstore\n      0x04\n      add\n      tag_67\n      swap1\n      tag_68\n      jump\t// in\n    tag_67:\n      mload(0x40)\n      dup1\n      swap2\n      sub\n      swap1\n      revert\n    tag_66:\n        /* \"FZF/FZFtest.sol\":1172:1173  2 */\n      0x02\n        /* \"FZF/FZFtest.sol\":1149:1161  participants */\n      0x04\n        /* \"FZF/FZFtest.sol\":1149:1168  participants.length */\n      dup1\n      sload\n      swap1\n      pop\n        /* \"FZF/FZFtest.sol\":1149:1173  participants.length >= 2 */\n      lt\n      iszero\n        /* \"FZF/FZFtest.sol\":1141:1201  require(participants.length >= 2, \"Need at least 2 players\") */\n      tag_69\n      jumpi\n      mload(0x40)\n      0x08c379a000000000000000000000000000000000000000000000000000000000\n      dup2\n      mstore\n      0x04\n      add\n      tag_70\n      swap1\n      tag_71\n      jump\t// in\n    tag_70:\n      mload(0x40)\n      dup1\n      swap2\n      sub\n      swap1\n      revert\n    tag_69:\n        /* \"FZF/FZFtest.sol\":1212:1227  uint256 random1 */\n      0x00\n        /* \"FZF/FZFtest.sol\":1286:1298  participants */\n      0x04\n        /* \"FZF/FZFtest.sol\":1286:1305  participants.length */\n      dup1\n      sload\n      swap1\n      pop\n        /* \"FZF/FZFtest.sol\":1265:1280  block.timestamp */\n      timestamp\n        /* \"FZF/FZFtest.sol\":1248:1281  abi.encodePacked(block.timestamp) */\n      add(0x20, mload(0x40))\n      tag_72\n      swap2\n      swap1\n      tag_73\n      jump\t// in\n    tag_72:\n      mload(0x40)\n      0x20\n      dup2\n      dup4\n      sub\n      sub\n      dup2\n      mstore\n      swap1\n      0x40\n      mstore\n        /* \"FZF/FZFtest.sol\":1238:1282  keccak256(abi.encodePacked(block.timestamp)) */\n      dup1\n      mload\n      swap1\n      0x20\n      add\n      keccak256\n        /* \"FZF/FZFtest.sol\":1230:1283  uint256(keccak256(abi.encodePacked(block.timestamp))) */\n      0x00\n      shr\n        /* \"FZF/FZFtest.sol\":1230:1305  uint256(keccak256(abi.encodePacked(block.timestamp))) % participants.length */\n      tag_74\n      swap2\n      swap1\n      tag_75\n      jump\t// in\n    tag_74:\n        /* \"FZF/FZFtest.sol\":1212:1305  uint256 random1 = uint256(keccak256(abi.encodePacked(block.timestamp))) % participants.length */\n      swap1\n      pop\n        /* \"FZF/FZFtest.sol\":1315:1334  address firstWinner */\n      0x00\n        /* \"FZF/FZFtest.sol\":1337:1349  participants */\n      0x04\n        /* \"FZF/FZFtest.sol\":1350:1357  random1 */\n      dup3\n        /* \"FZF/FZFtest.sol\":1337:1358  participants[random1] */\n      dup2\n      sload\n      dup2\n      lt\n      tag_76\n      jumpi\n      tag_77\n      tag_78\n      jump\t// in\n    tag_77:\n    tag_76:\n      swap1\n      0x00\n      mstore\n      keccak256(0x00, 0x20)\n      add\n      0x00\n      swap1\n      sload\n      swap1\n      0x0100\n      exp\n      swap1\n      div\n      0xffffffffffffffffffffffffffffffffffffffff\n      and\n        /* \"FZF/FZFtest.sol\":1315:1358  address firstWinner = participants[random1] */\n      swap1\n      pop\n        /* \"FZF/FZFtest.sol\":1392:1404  participants */\n      0x04\n        /* \"FZF/FZFtest.sol\":1427:1428  1 */\n      0x01\n        /* \"FZF/FZFtest.sol\":1405:1417  participants */\n      0x04\n        /* \"FZF/FZFtest.sol\":1405:1424  participants.length */\n      dup1\n      sload\n      swap1\n      pop\n        /* \"FZF/FZFtest.sol\":1405:1428  participants.length - 1 */\n      tag_80\n      swap2\n      swap1\n      tag_81\n      jump\t// in\n    tag_80:\n        /* \"FZF/FZFtest.sol\":1392:1429  participants[participants.length - 1] */\n      dup2\n      sload\n      dup2\n      lt\n      tag_82\n      jumpi\n      tag_83\n      tag_78\n      jump\t// in\n    tag_83:\n    tag_82:\n      swap1\n      0x00\n      mstore\n      keccak256(0x00, 0x20)\n      add\n      0x00\n      swap1\n      sload\n      swap1\n      0x0100\n      exp\n      swap1\n      div\n      0xffffffffffffffffffffffffffffffffffffffff\n      and\n        /* \"FZF/FZFtest.sol\":1368:1380  participants */\n      0x04\n        /* \"FZF/FZFtest.sol\":1381:1388  random1 */\n      dup4\n        /* \"FZF/FZFtest.sol\":1368:1389  participants[random1] */\n      dup2\n      sload\n      dup2\n      lt\n      tag_85\n      jumpi\n      tag_86\n      tag_78\n      jump\t// in\n    tag_86:\n    tag_85:\n      swap1\n      0x00\n      mstore\n      keccak256(0x00, 0x20)\n      add\n      0x00\n        /* \"FZF/FZFtest.sol\":1368:1429  participants[random1] = participants[participants.length - 1] */\n      0x0100\n      exp\n      dup2\n      sload\n      dup2\n      0xffffffffffffffffffffffffffffffffffffffff\n      mul\n      not\n      and\n      swap1\n      dup4\n      0xffffffffffffffffffffffffffffffffffffffff\n      and\n      mul\n      or\n      swap1\n      sstore\n      pop\n        /* \"FZF/FZFtest.sol\":1439:1451  participants */\n      0x04\n        /* \"FZF/FZFtest.sol\":1439:1457  participants.pop() */\n      dup1\n      sload\n      dup1\n      tag_88\n      jumpi\n      tag_89\n      tag_90\n      jump\t// in\n    tag_89:\n    tag_88:\n      0x01\n      swap1\n      sub\n      dup2\n      dup2\n      swap1\n      0x00\n      mstore\n      keccak256(0x00, 0x20)\n      add\n      exp(0x0100, 0x00)\n      dup2\n      sload\n      swap1\n      0xffffffffffffffffffffffffffffffffffffffff\n      mul\n      not\n      and\n      swap1\n      sstore\n      swap1\n      sstore\n        /* \"FZF/FZFtest.sol\":1468:1483  uint256 random2 */\n      0x00\n        /* \"FZF/FZFtest.sol\":1546:1558  participants */\n      0x04\n        /* \"FZF/FZFtest.sol\":1546:1565  participants.length */\n      dup1\n      sload\n      swap1\n      pop\n        /* \"FZF/FZFtest.sol\":1539:1540  1 */\n      0x01\n        /* \"FZF/FZFtest.sol\":1521:1536  block.timestamp */\n      timestamp\n        /* \"FZF/FZFtest.sol\":1521:1540  block.timestamp + 1 */\n      tag_92\n      swap2\n      swap1\n      tag_93\n      jump\t// in\n    tag_92:\n        /* \"FZF/FZFtest.sol\":1504:1541  abi.encodePacked(block.timestamp + 1) */\n      add(0x20, mload(0x40))\n      tag_94\n      swap2\n      swap1\n      tag_73\n      jump\t// in\n    tag_94:\n      mload(0x40)\n      0x20\n      dup2\n      dup4\n      sub\n      sub\n      dup2\n      mstore\n      swap1\n      0x40\n      mstore\n        /* \"FZF/FZFtest.sol\":1494:1542  keccak256(abi.encodePacked(block.timestamp + 1)) */\n      dup1\n      mload\n      swap1\n      0x20\n      add\n      keccak256\n        /* \"FZF/FZFtest.sol\":1486:1543  uint256(keccak256(abi.encodePacked(block.timestamp + 1))) */\n      0x00\n      shr\n        /* \"FZF/FZFtest.sol\":1486:1565  uint256(keccak256(abi.encodePacked(block.timestamp + 1))) % participants.length */\n      tag_95\n      swap2\n      swap1\n      tag_75\n      jump\t// in\n    tag_95:\n        /* \"FZF/FZFtest.sol\":1468:1565  uint256 random2 = uint256(keccak256(abi.encodePacked(block.timestamp + 1))) % participants.length */\n      swap1\n      pop\n        /* \"FZF/FZFtest.sol\":1575:1595  address secondWinner */\n      0x00\n        /* \"FZF/FZFtest.sol\":1598:1610  participants */\n      0x04\n        /* \"FZF/FZFtest.sol\":1611:1618  random2 */\n      dup3\n        /* \"FZF/FZFtest.sol\":1598:1619  participants[random2] */\n      dup2\n      sload\n      dup2\n      lt\n      tag_96\n      jumpi\n      tag_97\n      tag_78\n      jump\t// in\n    tag_97:\n    tag_96:\n      swap1\n      0x00\n      mstore\n      keccak256(0x00, 0x20)\n      add\n      0x00\n      swap1\n      sload\n      swap1\n      0x0100\n      exp\n      swap1\n      div\n      0xffffffffffffffffffffffffffffffffffffffff\n      and\n        /* \"FZF/FZFtest.sol\":1575:1619  address secondWinner = participants[random2] */\n      swap1\n      pop\n        /* \"FZF/FZFtest.sol\":1638:1649  firstWinner */\n      dup3\n        /* \"FZF/FZFtest.sol\":1630:1659  payable(firstWinner).transfer */\n      0xffffffffffffffffffffffffffffffffffffffff\n      and\n        /* \"FZF/FZFtest.sol\":1630:1671  payable(firstWinner).transfer(firstPrize) */\n      0x08fc\n        /* \"FZF/FZFtest.sol\":1660:1670  firstPrize */\n      sload(0x02)\n        /* \"FZF/FZFtest.sol\":1630:1671  payable(firstWinner).transfer(firstPrize) */\n      swap1\n      dup2\n      iszero\n      mul\n      swap1\n      mload(0x40)\n      0x00\n      mload(0x40)\n      dup1\n      dup4\n      sub\n      dup2\n      dup6\n      dup9\n      dup9\n      call\n      swap4\n      pop\n      pop\n      pop\n      pop\n      iszero\n      dup1\n      iszero\n      tag_100\n      jumpi\n      returndatasize\n      0x00\n      dup1\n      returndatacopy\n      revert(0x00, returndatasize)\n    tag_100:\n      pop\n        /* \"FZF/FZFtest.sol\":1689:1701  secondWinner */\n      dup1\n        /* \"FZF/FZFtest.sol\":1681:1711  payable(secondWinner).transfer */\n      0xffffffffffffffffffffffffffffffffffffffff\n      and\n        /* \"FZF/FZFtest.sol\":1681:1724  payable(secondWinner).transfer(secondPrize) */\n      0x08fc\n        /* \"FZF/FZFtest.sol\":1712:1723  secondPrize */\n      sload(0x03)\n        /* \"FZF/FZFtest.sol\":1681:1724  payable(secondWinner).transfer(secondPrize) */\n      swap1\n      dup2\n      iszero\n      mul\n      swap1\n      mload(0x40)\n      0x00\n      mload(0x40)\n      dup1\n      dup4\n      sub\n      dup2\n      dup6\n      dup9\n      dup9\n      call\n      swap4\n      pop\n      pop\n      pop\n      pop\n      iszero\n      dup1\n      iszero\n      tag_102\n      jumpi\n      returndatasize\n      0x00\n      dup1\n      returndatacopy\n      revert(0x00, returndatasize)\n    tag_102:\n      pop\n        /* \"FZF/FZFtest.sol\":1739:1806  WinnersSelected(firstWinner, firstPrize, secondWinner, secondPrize) */\n      0x0d600c27c020374e2f6c0c8419dc78d9eed43e85d7761f337890ddfd5b25514b\n        /* \"FZF/FZFtest.sol\":1755:1766  firstWinner */\n      dup4\n        /* \"FZF/FZFtest.sol\":1768:1778  firstPrize */\n      sload(0x02)\n        /* \"FZF/FZFtest.sol\":1780:1792  secondWinner */\n      dup4\n        /* \"FZF/FZFtest.sol\":1794:1805  secondPrize */\n      sload(0x03)\n        /* \"FZF/FZFtest.sol\":1739:1806  WinnersSelected(firstWinner, firstPrize, secondWinner, secondPrize) */\n      mload(0x40)\n      tag_103\n      swap5\n      swap4\n      swap3\n      swap2\n      swap1\n      tag_104\n      jump\t// in\n    tag_103:\n      mload(0x40)\n      dup1\n      swap2\n      sub\n      swap1\n      log1\n        /* \"FZF/FZFtest.sol\":1824:1836  participants */\n      0x04\n      0x00\n        /* \"FZF/FZFtest.sol\":1817:1836  delete participants */\n      tag_105\n      swap2\n      swap1\n      tag_106\n      jump\t// in\n    tag_105:\n        /* \"FZF/FZFtest.sol\":361:367  7 days */\n      0x093a80\n        /* \"FZF/FZFtest.sol\":1861:1873  nextDrawTime */\n      sload(0x05)\n        /* \"FZF/FZFtest.sol\":1861:1880  nextDrawTime + WEEK */\n      tag_107\n      swap2\n      swap1\n      tag_93\n      jump\t// in\n    tag_107:\n        /* \"FZF/FZFtest.sol\":1846:1858  nextDrawTime */\n      0x05\n        /* \"FZF/FZFtest.sol\":1846:1880  nextDrawTime = nextDrawTime + WEEK */\n      dup2\n      swap1\n      sstore\n      pop\n        /* \"FZF/FZFtest.sol\":999:1887  {... */\n      pop\n      pop\n      pop\n      pop\n        /* \"FZF/FZFtest.sol\":965:1887  function selectWinners() external {... */\n      jump\t// out\n        /* \"FZF/FZFtest.sol\":302:330  bool public isActive = false */\n    tag_27:\n      0x06\n      0x00\n      swap1\n      sload\n      swap1\n      0x0100\n      exp\n      swap1\n      div\n      0xff\n      and\n      dup2\n      jump\t// out\n        /* \"FZF/FZFtest.sol\":147:184  uint256 public firstPrize = 2.1 ether */\n    tag_32:\n      sload(0x02)\n      dup2\n      jump\t// out\n        /* \"FZF/FZFtest.sol\":234:263  address[] public participants */\n    tag_38:\n      0x04\n      dup2\n      dup2\n      sload\n      dup2\n      lt\n      tag_108\n      jumpi\n      0x00\n      dup1\n      revert\n    tag_108:\n      swap1\n      0x00\n      mstore\n      keccak256(0x00, 0x20)\n      add\n      0x00\n      swap2\n      pop\n      sload\n      swap1\n      0x0100\n      exp\n      swap1\n      div\n      0xffffffffffffffffffffffffffffffffffffffff\n      and\n      dup2\n      jump\t// out\n        /* \"FZF/FZFtest.sol\":190:228  uint256 public secondPrize = 0.9 ether */\n    tag_43:\n      sload(0x03)\n      dup2\n      jump\t// out\n        /* \"FZF/FZFtest.sol\":269:296  uint256 public nextDrawTime */\n    tag_47:\n      sload(0x05)\n      dup2\n      jump\t// out\n        /* \"FZF/FZFtest.sol\":88:108  address public owner */\n    tag_51:\n      0x00\n      dup1\n      sload\n      swap1\n      0x0100\n      exp\n      swap1\n      div\n      0xffffffffffffffffffffffffffffffffffffffff\n      and\n      dup2\n      jump\t// out\n        /* \"FZF/FZFtest.sol\":1893:2014  function startCompetition() external {... */\n    tag_55:\n        /* \"FZF/FZFtest.sol\":1962:1967  owner */\n      0x00\n      dup1\n      sload\n      swap1\n      0x0100\n      exp\n      swap1\n      div\n      0xffffffffffffffffffffffffffffffffffffffff\n      and\n        /* \"FZF/FZFtest.sol\":1948:1967  msg.sender == owner */\n      0xffffffffffffffffffffffffffffffffffffffff\n      and\n        /* \"FZF/FZFtest.sol\":1948:1958  msg.sender */\n      caller\n        /* \"FZF/FZFtest.sol\":1948:1967  msg.sender == owner */\n      0xffffffffffffffffffffffffffffffffffffffff\n      and\n      eq\n        /* \"FZF/FZFtest.sol\":1940:1982  require(msg.sender == owner, \"Only owner\") */\n      tag_111\n      jumpi\n      mload(0x40)\n      0x08c379a000000000000000000000000000000000000000000000000000000000\n      dup2\n      mstore\n      0x04\n      add\n      tag_112\n      swap1\n      tag_113\n      jump\t// in\n    tag_112:\n      mload(0x40)\n      dup1\n      swap2\n      sub\n      swap1\n      revert\n    tag_111:\n        /* \"FZF/FZFtest.sol\":2003:2007  true */\n      0x01\n        /* \"FZF/FZFtest.sol\":1992:2000  isActive */\n      0x06\n      0x00\n        /* \"FZF/FZFtest.sol\":1992:2007  isActive = true */\n      0x0100\n      exp\n      dup2\n      sload\n      dup2\n      0xff\n      mul\n      not\n      and\n      swap1\n      dup4\n      iszero\n      iszero\n      mul\n      or\n      swap1\n      sstore\n      pop\n        /* \"FZF/FZFtest.sol\":1893:2014  function startCompetition() external {... */\n      jump\t// out\n        /* \"FZF/FZFtest.sol\":656:959  function enter() external payable {... */\n    tag_57:\n        /* \"FZF/FZFtest.sol\":708:716  isActive */\n      0x06\n      0x00\n      swap1\n      sload\n      swap1\n      0x0100\n      exp\n      swap1\n      div\n      0xff\n      and\n        /* \"FZF/FZFtest.sol\":700:743  require(isActive, \"Competition not active\") */\n      tag_115\n      jumpi\n      mload(0x40)\n      0x08c379a000000000000000000000000000000000000000000000000000000000\n      dup2\n      mstore\n      0x04\n      add\n      tag_116\n      swap1\n      tag_117\n      jump\t// in\n    tag_116:\n      mload(0x40)\n      dup1\n      swap2\n      sub\n      swap1\n      revert\n    tag_115:\n        /* \"FZF/FZFtest.sol\":779:791  nextDrawTime */\n      sload(0x05)\n        /* \"FZF/FZFtest.sol\":761:776  block.timestamp */\n      timestamp\n        /* \"FZF/FZFtest.sol\":761:791  block.timestamp < nextDrawTime */\n      lt\n        /* \"FZF/FZFtest.sol\":753:814  require(block.timestamp < nextDrawTime, \"Draw already ended\") */\n      tag_118\n      jumpi\n      mload(0x40)\n      0x08c379a000000000000000000000000000000000000000000000000000000000\n      dup2\n      mstore\n      0x04\n      add\n      tag_119\n      swap1\n      tag_120\n      jump\t// in\n    tag_119:\n      mload(0x40)\n      dup1\n      swap2\n      sub\n      swap1\n      revert\n    tag_118:\n        /* \"FZF/FZFtest.sol\":845:853  entryFee */\n      sload(0x01)\n        /* \"FZF/FZFtest.sol\":832:841  msg.value */\n      callvalue\n        /* \"FZF/FZFtest.sol\":832:853  msg.value >= entryFee */\n      lt\n      iszero\n        /* \"FZF/FZFtest.sol\":824:878  require(msg.value >= entryFee, \"Not enough xZNN sent\") */\n      tag_121\n      jumpi\n      mload(0x40)\n      0x08c379a000000000000000000000000000000000000000000000000000000000\n      dup2\n      mstore\n      0x04\n      add\n      tag_122\n      swap1\n      tag_123\n      jump\t// in\n    tag_122:\n      mload(0x40)\n      dup1\n      swap2\n      sub\n      swap1\n      revert\n    tag_121:\n        /* \"FZF/FZFtest.sol\":888:900  participants */\n      0x04\n        /* \"FZF/FZFtest.sol\":906:916  msg.sender */\n      caller\n        /* \"FZF/FZFtest.sol\":888:917  participants.push(msg.sender) */\n      swap1\n      dup1\n      0x01\n      dup2\n      sload\n      add\n      dup1\n      dup3\n      sstore\n      dup1\n      swap2\n      pop\n      pop\n      0x01\n      swap1\n      sub\n      swap1\n      0x00\n      mstore\n      keccak256(0x00, 0x20)\n      add\n      0x00\n      swap1\n      swap2\n      swap1\n      swap2\n      swap1\n      swap2\n      0x0100\n      exp\n      dup2\n      sload\n      dup2\n      0xffffffffffffffffffffffffffffffffffffffff\n      mul\n      not\n      and\n      swap1\n      dup4\n      0xffffffffffffffffffffffffffffffffffffffff\n      and\n      mul\n      or\n      swap1\n      sstore\n      pop\n        /* \"FZF/FZFtest.sol\":932:952  NewEntry(msg.sender) */\n      0x896131ca629c91d572fa56a5496788038dae3a7dc3cc6686af073c4e13efd309\n        /* \"FZF/FZFtest.sol\":941:951  msg.sender */\n      caller\n        /* \"FZF/FZFtest.sol\":932:952  NewEntry(msg.sender) */\n      mload(0x40)\n      tag_125\n      swap2\n      swap1\n      tag_40\n      jump\t// in\n    tag_125:\n      mload(0x40)\n      dup1\n      swap2\n      sub\n      swap1\n      log1\n        /* \"FZF/FZFtest.sol\":656:959  function enter() external payable {... */\n      jump\t// out\n        /* \"FZF/FZFtest.sol\":2020:2152  function setEntryFee(uint256 newFee) external {... */\n    tag_61:\n        /* \"FZF/FZFtest.sol\":2098:2103  owner */\n      0x00\n      dup1\n      sload\n      swap1\n      0x0100\n      exp\n      swap1\n      div\n      0xffffffffffffffffffffffffffffffffffffffff\n      and\n        /* \"FZF/FZFtest.sol\":2084:2103  msg.sender == owner */\n      0xffffffffffffffffffffffffffffffffffffffff\n      and\n        /* \"FZF/FZFtest.sol\":2084:2094  msg.sender */\n      caller\n        /* \"FZF/FZFtest.sol\":2084:2103  msg.sender == owner */\n      0xffffffffffffffffffffffffffffffffffffffff\n      and\n      eq\n        /* \"FZF/FZFtest.sol\":2076:2118  require(msg.sender == owner, \"Only owner\") */\n      tag_127\n      jumpi\n      mload(0x40)\n      0x08c379a000000000000000000000000000000000000000000000000000000000\n      dup2\n      mstore\n      0x04\n      add\n      tag_128\n      swap1\n      tag_113\n      jump\t// in\n    tag_128:\n      mload(0x40)\n      dup1\n      swap2\n      sub\n      swap1\n      revert\n    tag_127:\n        /* \"FZF/FZFtest.sol\":2139:2145  newFee */\n      dup1\n        /* \"FZF/FZFtest.sol\":2128:2136  entryFee */\n      0x01\n        /* \"FZF/FZFtest.sol\":2128:2145  entryFee = newFee */\n      dup2\n      swap1\n      sstore\n      pop\n        /* \"FZF/FZFtest.sol\":2020:2152  function setEntryFee(uint256 newFee) external {... */\n      pop\n      jump\t// out\n    tag_106:\n      pop\n      dup1\n      sload\n      0x00\n      dup3\n      sstore\n      swap1\n      0x00\n      mstore\n      keccak256(0x00, 0x20)\n      swap1\n      dup2\n      add\n      swap1\n      tag_130\n      swap2\n      swap1\n      tag_131\n      jump\t// in\n    tag_130:\n      pop\n      jump\t// out\n    tag_131:\n    tag_132:\n      dup1\n      dup3\n      gt\n      iszero\n      tag_133\n      jumpi\n      0x00\n      dup2\n      0x00\n      swap1\n      sstore\n      pop\n      0x01\n      add\n      jump(tag_132)\n    tag_133:\n      pop\n      swap1\n      jump\t// out\n        /* \"#utility.yul\":7:84   */\n    tag_134:\n        /* \"#utility.yul\":44:51   */\n      0x00\n        /* \"#utility.yul\":73:78   */\n      dup2\n        /* \"#utility.yul\":62:78   */\n      swap1\n      pop\n        /* \"#utility.yul\":7:84   */\n      swap2\n      swap1\n      pop\n      jump\t// out\n        /* \"#utility.yul\":90:208   */\n    tag_135:\n        /* \"#utility.yul\":177:201   */\n      tag_168\n        /* \"#utility.yul\":195:200   */\n      dup2\n        /* \"#utility.yul\":177:201   */\n      tag_134\n      jump\t// in\n    tag_168:\n        /* \"#utility.yul\":172:175   */\n      dup3\n        /* \"#utility.yul\":165:202   */\n      mstore\n        /* \"#utility.yul\":90:208   */\n      pop\n      pop\n      jump\t// out\n        /* \"#utility.yul\":214:436   */\n    tag_21:\n        /* \"#utility.yul\":307:311   */\n      0x00\n        /* \"#utility.yul\":345:347   */\n      0x20\n        /* \"#utility.yul\":334:343   */\n      dup3\n        /* \"#utility.yul\":330:348   */\n      add\n        /* \"#utility.yul\":322:348   */\n      swap1\n      pop\n        /* \"#utility.yul\":358:429   */\n      tag_170\n        /* \"#utility.yul\":426:427   */\n      0x00\n        /* \"#utility.yul\":415:424   */\n      dup4\n        /* \"#utility.yul\":411:428   */\n      add\n        /* \"#utility.yul\":402:408   */\n      dup5\n        /* \"#utility.yul\":358:429   */\n      tag_135\n      jump\t// in\n    tag_170:\n        /* \"#utility.yul\":214:436   */\n      swap3\n      swap2\n      pop\n      pop\n      jump\t// out\n        /* \"#utility.yul\":442:532   */\n    tag_136:\n        /* \"#utility.yul\":476:483   */\n      0x00\n        /* \"#utility.yul\":519:524   */\n      dup2\n        /* \"#utility.yul\":512:525   */\n      iszero\n        /* \"#utility.yul\":505:526   */\n      iszero\n        /* \"#utility.yul\":494:526   */\n      swap1\n      pop\n        /* \"#utility.yul\":442:532   */\n      swap2\n      swap1\n      pop\n      jump\t// out\n        /* \"#utility.yul\":538:647   */\n    tag_137:\n        /* \"#utility.yul\":619:640   */\n      tag_173\n        /* \"#utility.yul\":634:639   */\n      dup2\n        /* \"#utility.yul\":619:640   */\n      tag_136\n      jump\t// in\n    tag_173:\n        /* \"#utility.yul\":614:617   */\n      dup3\n        /* \"#utility.yul\":607:641   */\n      mstore\n        /* \"#utility.yul\":538:647   */\n      pop\n      pop\n      jump\t// out\n        /* \"#utility.yul\":653:863   */\n    tag_29:\n        /* \"#utility.yul\":740:744   */\n      0x00\n        /* \"#utility.yul\":778:780   */\n      0x20\n        /* \"#utility.yul\":767:776   */\n      dup3\n        /* \"#utility.yul\":763:781   */\n      add\n        /* \"#utility.yul\":755:781   */\n      swap1\n      pop\n        /* \"#utility.yul\":791:856   */\n      tag_175\n        /* \"#utility.yul\":853:854   */\n      0x00\n        /* \"#utility.yul\":842:851   */\n      dup4\n        /* \"#utility.yul\":838:855   */\n      add\n        /* \"#utility.yul\":829:835   */\n      dup5\n        /* \"#utility.yul\":791:856   */\n      tag_137\n      jump\t// in\n    tag_175:\n        /* \"#utility.yul\":653:863   */\n      swap3\n      swap2\n      pop\n      pop\n      jump\t// out\n        /* \"#utility.yul\":950:1067   */\n    tag_139:\n        /* \"#utility.yul\":1059:1060   */\n      0x00\n        /* \"#utility.yul\":1056:1057   */\n      dup1\n        /* \"#utility.yul\":1049:1061   */\n      revert\n        /* \"#utility.yul\":1196:1318   */\n    tag_141:\n        /* \"#utility.yul\":1269:1293   */\n      tag_180\n        /* \"#utility.yul\":1287:1292   */\n      dup2\n        /* \"#utility.yul\":1269:1293   */\n      tag_134\n      jump\t// in\n    tag_180:\n        /* \"#utility.yul\":1262:1267   */\n      dup2\n        /* \"#utility.yul\":1259:1294   */\n      eq\n        /* \"#utility.yul\":1249:1312   */\n      tag_181\n      jumpi\n        /* \"#utility.yul\":1308:1309   */\n      0x00\n        /* \"#utility.yul\":1305:1306   */\n      dup1\n        /* \"#utility.yul\":1298:1310   */\n      revert\n        /* \"#utility.yul\":1249:1312   */\n    tag_181:\n        /* \"#utility.yul\":1196:1318   */\n      pop\n      jump\t// out\n        /* \"#utility.yul\":1324:1463   */\n    tag_142:\n        /* \"#utility.yul\":1370:1375   */\n      0x00\n        /* \"#utility.yul\":1408:1414   */\n      dup2\n        /* \"#utility.yul\":1395:1415   */\n      calldataload\n        /* \"#utility.yul\":1386:1415   */\n      swap1\n      pop\n        /* \"#utility.yul\":1424:1457   */\n      tag_183\n        /* \"#utility.yul\":1451:1456   */\n      dup2\n        /* \"#utility.yul\":1424:1457   */\n      tag_141\n      jump\t// in\n    tag_183:\n        /* \"#utility.yul\":1324:1463   */\n      swap3\n      swap2\n      pop\n      pop\n      jump\t// out\n        /* \"#utility.yul\":1469:1798   */\n    tag_37:\n        /* \"#utility.yul\":1528:1534   */\n      0x00\n        /* \"#utility.yul\":1577:1579   */\n      0x20\n        /* \"#utility.yul\":1565:1574   */\n      dup3\n        /* \"#utility.yul\":1556:1563   */\n      dup5\n        /* \"#utility.yul\":1552:1575   */\n      sub\n        /* \"#utility.yul\":1548:1580   */\n      slt\n        /* \"#utility.yul\":1545:1664   */\n      iszero\n      tag_185\n      jumpi\n        /* \"#utility.yul\":1583:1662   */\n      tag_186\n      tag_139\n      jump\t// in\n    tag_186:\n        /* \"#utility.yul\":1545:1664   */\n    tag_185:\n        /* \"#utility.yul\":1703:1704   */\n      0x00\n        /* \"#utility.yul\":1728:1781   */\n      tag_187\n        /* \"#utility.yul\":1773:1780   */\n      dup5\n        /* \"#utility.yul\":1764:1770   */\n      dup3\n        /* \"#utility.yul\":1753:1762   */\n      dup6\n        /* \"#utility.yul\":1749:1771   */\n      add\n        /* \"#utility.yul\":1728:1781   */\n      tag_142\n      jump\t// in\n    tag_187:\n        /* \"#utility.yul\":1718:1781   */\n      swap2\n      pop\n        /* \"#utility.yul\":1674:1791   */\n      pop\n        /* \"#utility.yul\":1469:1798   */\n      swap3\n      swap2\n      pop\n      pop\n      jump\t// out\n        /* \"#utility.yul\":1804:1930   */\n    tag_143:\n        /* \"#utility.yul\":1841:1848   */\n      0x00\n        /* \"#utility.yul\":1881:1923   */\n      0xffffffffffffffffffffffffffffffffffffffff\n        /* \"#utility.yul\":1874:1879   */\n      dup3\n        /* \"#utility.yul\":1870:1924   */\n      and\n        /* \"#utility.yul\":1859:1924   */\n      swap1\n      pop\n        /* \"#utility.yul\":1804:1930   */\n      swap2\n      swap1\n      pop\n      jump\t// out\n        /* \"#utility.yul\":1936:2032   */\n    tag_144:\n        /* \"#utility.yul\":1973:1980   */\n      0x00\n        /* \"#utility.yul\":2002:2026   */\n      tag_190\n        /* \"#utility.yul\":2020:2025   */\n      dup3\n        /* \"#utility.yul\":2002:2026   */\n      tag_143\n      jump\t// in\n    tag_190:\n        /* \"#utility.yul\":1991:2026   */\n      swap1\n      pop\n        /* \"#utility.yul\":1936:2032   */\n      swap2\n      swap1\n      pop\n      jump\t// out\n        /* \"#utility.yul\":2038:2156   */\n    tag_145:\n        /* \"#utility.yul\":2125:2149   */\n      tag_192\n        /* \"#utility.yul\":2143:2148   */\n      dup2\n        /* \"#utility.yul\":2125:2149   */\n      tag_144\n      jump\t// in\n    tag_192:\n        /* \"#utility.yul\":2120:2123   */\n      dup3\n        /* \"#utility.yul\":2113:2150   */\n      mstore\n        /* \"#utility.yul\":2038:2156   */\n      pop\n      pop\n      jump\t// out\n        /* \"#utility.yul\":2162:2384   */\n    tag_40:\n        /* \"#utility.yul\":2255:2259   */\n      0x00\n        /* \"#utility.yul\":2293:2295   */\n      0x20\n        /* \"#utility.yul\":2282:2291   */\n      dup3\n        /* \"#utility.yul\":2278:2296   */\n      add\n        /* \"#utility.yul\":2270:2296   */\n      swap1\n      pop\n        /* \"#utility.yul\":2306:2377   */\n      tag_194\n        /* \"#utility.yul\":2374:2375   */\n      0x00\n        /* \"#utility.yul\":2363:2372   */\n      dup4\n        /* \"#utility.yul\":2359:2376   */\n      add\n        /* \"#utility.yul\":2350:2356   */\n      dup5\n        /* \"#utility.yul\":2306:2377   */\n      tag_145\n      jump\t// in\n    tag_194:\n        /* \"#utility.yul\":2162:2384   */\n      swap3\n      swap2\n      pop\n      pop\n      jump\t// out\n        /* \"#utility.yul\":2390:2559   */\n    tag_146:\n        /* \"#utility.yul\":2474:2485   */\n      0x00\n        /* \"#utility.yul\":2508:2514   */\n      dup3\n        /* \"#utility.yul\":2503:2506   */\n      dup3\n        /* \"#utility.yul\":2496:2515   */\n      mstore\n        /* \"#utility.yul\":2548:2552   */\n      0x20\n        /* \"#utility.yul\":2543:2546   */\n      dup3\n        /* \"#utility.yul\":2539:2553   */\n      add\n        /* \"#utility.yul\":2524:2553   */\n      swap1\n      pop\n        /* \"#utility.yul\":2390:2559   */\n      swap3\n      swap2\n      pop\n      pop\n      jump\t// out\n        /* \"#utility.yul\":2565:2742   */\n    tag_147:\n        /* \"#utility.yul\":2705:2734   */\n      0x4f6e6c79206f776e65722063616e207069636b2077696e6e6572730000000000\n        /* \"#utility.yul\":2701:2702   */\n      0x00\n        /* \"#utility.yul\":2693:2699   */\n      dup3\n        /* \"#utility.yul\":2689:2703   */\n      add\n        /* \"#utility.yul\":2682:2735   */\n      mstore\n        /* \"#utility.yul\":2565:2742   */\n      pop\n      jump\t// out\n        /* \"#utility.yul\":2748:3114   */\n    tag_148:\n        /* \"#utility.yul\":2890:2893   */\n      0x00\n        /* \"#utility.yul\":2911:2978   */\n      tag_198\n        /* \"#utility.yul\":2975:2977   */\n      0x1b\n        /* \"#utility.yul\":2970:2973   */\n      dup4\n        /* \"#utility.yul\":2911:2978   */\n      tag_146\n      jump\t// in\n    tag_198:\n        /* \"#utility.yul\":2904:2978   */\n      swap2\n      pop\n        /* \"#utility.yul\":2987:3080   */\n      tag_199\n        /* \"#utility.yul\":3076:3079   */\n      dup3\n        /* \"#utility.yul\":2987:3080   */\n      tag_147\n      jump\t// in\n    tag_199:\n        /* \"#utility.yul\":3105:3107   */\n      0x20\n        /* \"#utility.yul\":3100:3103   */\n      dup3\n        /* \"#utility.yul\":3096:3108   */\n      add\n        /* \"#utility.yul\":3089:3108   */\n      swap1\n      pop\n        /* \"#utility.yul\":2748:3114   */\n      swap2\n      swap1\n      pop\n      jump\t// out\n        /* \"#utility.yul\":3120:3539   */\n    tag_65:\n        /* \"#utility.yul\":3286:3290   */\n      0x00\n        /* \"#utility.yul\":3324:3326   */\n      0x20\n        /* \"#utility.yul\":3313:3322   */\n      dup3\n        /* \"#utility.yul\":3309:3327   */\n      add\n        /* \"#utility.yul\":3301:3327   */\n      swap1\n      pop\n        /* \"#utility.yul\":3373:3382   */\n      dup2\n        /* \"#utility.yul\":3367:3371   */\n      dup2\n        /* \"#utility.yul\":3363:3383   */\n      sub\n        /* \"#utility.yul\":3359:3360   */\n      0x00\n        /* \"#utility.yul\":3348:3357   */\n      dup4\n        /* \"#utility.yul\":3344:3361   */\n      add\n        /* \"#utility.yul\":3337:3384   */\n      mstore\n        /* \"#utility.yul\":3401:3532   */\n      tag_201\n        /* \"#utility.yul\":3527:3531   */\n      dup2\n        /* \"#utility.yul\":3401:3532   */\n      tag_148\n      jump\t// in\n    tag_201:\n        /* \"#utility.yul\":3393:3532   */\n      swap1\n      pop\n        /* \"#utility.yul\":3120:3539   */\n      swap2\n      swap1\n      pop\n      jump\t// out\n        /* \"#utility.yul\":3545:3704   */\n    tag_149:\n        /* \"#utility.yul\":3685:3696   */\n      0x546f6f206561726c790000000000000000000000000000000000000000000000\n        /* \"#utility.yul\":3681:3682   */\n      0x00\n        /* \"#utility.yul\":3673:3679   */\n      dup3\n        /* \"#utility.yul\":3669:3683   */\n      add\n        /* \"#utility.yul\":3662:3697   */\n      mstore\n        /* \"#utility.yul\":3545:3704   */\n      pop\n      jump\t// out\n        /* \"#utility.yul\":3710:4075   */\n    tag_150:\n        /* \"#utility.yul\":3852:3855   */\n      0x00\n        /* \"#utility.yul\":3873:3939   */\n      tag_204\n        /* \"#utility.yul\":3937:3938   */\n      0x09\n        /* \"#utility.yul\":3932:3935   */\n      dup4\n        /* \"#utility.yul\":3873:3939   */\n      tag_146\n      jump\t// in\n    tag_204:\n        /* \"#utility.yul\":3866:3939   */\n      swap2\n      pop\n        /* \"#utility.yul\":3948:4041   */\n      tag_205\n        /* \"#utility.yul\":4037:4040   */\n      dup3\n        /* \"#utility.yul\":3948:4041   */\n      tag_149\n      jump\t// in\n    tag_205:\n        /* \"#utility.yul\":4066:4068   */\n      0x20\n        /* \"#utility.yul\":4061:4064   */\n      dup3\n        /* \"#utility.yul\":4057:4069   */\n      add\n        /* \"#utility.yul\":4050:4069   */\n      swap1\n      pop\n        /* \"#utility.yul\":3710:4075   */\n      swap2\n      swap1\n      pop\n      jump\t// out\n        /* \"#utility.yul\":4081:4500   */\n    tag_68:\n        /* \"#utility.yul\":4247:4251   */\n      0x00\n        /* \"#utility.yul\":4285:4287   */\n      0x20\n        /* \"#utility.yul\":4274:4283   */\n      dup3\n        /* \"#utility.yul\":4270:4288   */\n      add\n        /* \"#utility.yul\":4262:4288   */\n      swap1\n      pop\n        /* \"#utility.yul\":4334:4343   */\n      dup2\n        /* \"#utility.yul\":4328:4332   */\n      dup2\n        /* \"#utility.yul\":4324:4344   */\n      sub\n        /* \"#utility.yul\":4320:4321   */\n      0x00\n        /* \"#utility.yul\":4309:4318   */\n      dup4\n        /* \"#utility.yul\":4305:4322   */\n      add\n        /* \"#utility.yul\":4298:4345   */\n      mstore\n        /* \"#utility.yul\":4362:4493   */\n      tag_207\n        /* \"#utility.yul\":4488:4492   */\n      dup2\n        /* \"#utility.yul\":4362:4493   */\n      tag_150\n      jump\t// in\n    tag_207:\n        /* \"#utility.yul\":4354:4493   */\n      swap1\n      pop\n        /* \"#utility.yul\":4081:4500   */\n      swap2\n      swap1\n      pop\n      jump\t// out\n        /* \"#utility.yul\":4506:4679   */\n    tag_151:\n        /* \"#utility.yul\":4646:4671   */\n      0x4e656564206174206c65617374203220706c6179657273000000000000000000\n        /* \"#utility.yul\":4642:4643   */\n      0x00\n        /* \"#utility.yul\":4634:4640   */\n      dup3\n        /* \"#utility.yul\":4630:4644   */\n      add\n        /* \"#utility.yul\":4623:4672   */\n      mstore\n        /* \"#utility.yul\":4506:4679   */\n      pop\n      jump\t// out\n        /* \"#utility.yul\":4685:5051   */\n    tag_152:\n        /* \"#utility.yul\":4827:4830   */\n      0x00\n        /* \"#utility.yul\":4848:4915   */\n      tag_210\n        /* \"#utility.yul\":4912:4914   */\n      0x17\n        /* \"#utility.yul\":4907:4910   */\n      dup4\n        /* \"#utility.yul\":4848:4915   */\n      tag_146\n      jump\t// in\n    tag_210:\n        /* \"#utility.yul\":4841:4915   */\n      swap2\n      pop\n        /* \"#utility.yul\":4924:5017   */\n      tag_211\n        /* \"#utility.yul\":5013:5016   */\n      dup3\n        /* \"#utility.yul\":4924:5017   */\n      tag_151\n      jump\t// in\n    tag_211:\n        /* \"#utility.yul\":5042:5044   */\n      0x20\n        /* \"#utility.yul\":5037:5040   */\n      dup3\n        /* \"#utility.yul\":5033:5045   */\n      add\n        /* \"#utility.yul\":5026:5045   */\n      swap1\n      pop\n        /* \"#utility.yul\":4685:5051   */\n      swap2\n      swap1\n      pop\n      jump\t// out\n        /* \"#utility.yul\":5057:5476   */\n    tag_71:\n        /* \"#utility.yul\":5223:5227   */\n      0x00\n        /* \"#utility.yul\":5261:5263   */\n      0x20\n        /* \"#utility.yul\":5250:5259   */\n      dup3\n        /* \"#utility.yul\":5246:5264   */\n      add\n        /* \"#utility.yul\":5238:5264   */\n      swap1\n      pop\n        /* \"#utility.yul\":5310:5319   */\n      dup2\n        /* \"#utility.yul\":5304:5308   */\n      dup2\n        /* \"#utility.yul\":5300:5320   */\n      sub\n        /* \"#utility.yul\":5296:5297   */\n      0x00\n        /* \"#utility.yul\":5285:5294   */\n      dup4\n        /* \"#utility.yul\":5281:5298   */\n      add\n        /* \"#utility.yul\":5274:5321   */\n      mstore\n        /* \"#utility.yul\":5338:5469   */\n      tag_213\n        /* \"#utility.yul\":5464:5468   */\n      dup2\n        /* \"#utility.yul\":5338:5469   */\n      tag_152\n      jump\t// in\n    tag_213:\n        /* \"#utility.yul\":5330:5469   */\n      swap1\n      pop\n        /* \"#utility.yul\":5057:5476   */\n      swap2\n      swap1\n      pop\n      jump\t// out\n        /* \"#utility.yul\":5482:5561   */\n    tag_153:\n        /* \"#utility.yul\":5521:5528   */\n      0x00\n        /* \"#utility.yul\":5550:5555   */\n      dup2\n        /* \"#utility.yul\":5539:5555   */\n      swap1\n      pop\n        /* \"#utility.yul\":5482:5561   */\n      swap2\n      swap1\n      pop\n      jump\t// out\n        /* \"#utility.yul\":5567:5724   */\n    tag_154:\n        /* \"#utility.yul\":5672:5717   */\n      tag_216\n        /* \"#utility.yul\":5692:5716   */\n      tag_217\n        /* \"#utility.yul\":5710:5715   */\n      dup3\n        /* \"#utility.yul\":5692:5716   */\n      tag_134\n      jump\t// in\n    tag_217:\n        /* \"#utility.yul\":5672:5717   */\n      tag_153\n      jump\t// in\n    tag_216:\n        /* \"#utility.yul\":5667:5670   */\n      dup3\n        /* \"#utility.yul\":5660:5718   */\n      mstore\n        /* \"#utility.yul\":5567:5724   */\n      pop\n      pop\n      jump\t// out\n        /* \"#utility.yul\":5730:5986   */\n    tag_73:\n        /* \"#utility.yul\":5842:5845   */\n      0x00\n        /* \"#utility.yul\":5857:5932   */\n      tag_219\n        /* \"#utility.yul\":5928:5931   */\n      dup3\n        /* \"#utility.yul\":5919:5925   */\n      dup5\n        /* \"#utility.yul\":5857:5932   */\n      tag_154\n      jump\t// in\n    tag_219:\n        /* \"#utility.yul\":5957:5959   */\n      0x20\n        /* \"#utility.yul\":5952:5955   */\n      dup3\n        /* \"#utility.yul\":5948:5960   */\n      add\n        /* \"#utility.yul\":5941:5960   */\n      swap2\n      pop\n        /* \"#utility.yul\":5977:5980   */\n      dup2\n        /* \"#utility.yul\":5970:5980   */\n      swap1\n      pop\n        /* \"#utility.yul\":5730:5986   */\n      swap3\n      swap2\n      pop\n      pop\n      jump\t// out\n        /* \"#utility.yul\":5992:6172   */\n    tag_155:\n        /* \"#utility.yul\":6040:6117   */\n      0x4e487b7100000000000000000000000000000000000000000000000000000000\n        /* \"#utility.yul\":6037:6038   */\n      0x00\n        /* \"#utility.yul\":6030:6118   */\n      mstore\n        /* \"#utility.yul\":6137:6141   */\n      0x12\n        /* \"#utility.yul\":6134:6135   */\n      0x04\n        /* \"#utility.yul\":6127:6142   */\n      mstore\n        /* \"#utility.yul\":6161:6165   */\n      0x24\n        /* \"#utility.yul\":6158:6159   */\n      0x00\n        /* \"#utility.yul\":6151:6166   */\n      revert\n        /* \"#utility.yul\":6178:6354   */\n    tag_75:\n        /* \"#utility.yul\":6210:6211   */\n      0x00\n        /* \"#utility.yul\":6227:6247   */\n      tag_222\n        /* \"#utility.yul\":6245:6246   */\n      dup3\n        /* \"#utility.yul\":6227:6247   */\n      tag_134\n      jump\t// in\n    tag_222:\n        /* \"#utility.yul\":6222:6247   */\n      swap2\n      pop\n        /* \"#utility.yul\":6261:6281   */\n      tag_223\n        /* \"#utility.yul\":6279:6280   */\n      dup4\n        /* \"#utility.yul\":6261:6281   */\n      tag_134\n      jump\t// in\n    tag_223:\n        /* \"#utility.yul\":6256:6281   */\n      swap3\n      pop\n        /* \"#utility.yul\":6300:6301   */\n      dup3\n        /* \"#utility.yul\":6290:6325   */\n      tag_224\n      jumpi\n        /* \"#utility.yul\":6305:6323   */\n      tag_225\n      tag_155\n      jump\t// in\n    tag_225:\n        /* \"#utility.yul\":6290:6325   */\n    tag_224:\n        /* \"#utility.yul\":6346:6347   */\n      dup3\n        /* \"#utility.yul\":6343:6344   */\n      dup3\n        /* \"#utility.yul\":6339:6348   */\n      mod\n        /* \"#utility.yul\":6334:6348   */\n      swap1\n      pop\n        /* \"#utility.yul\":6178:6354   */\n      swap3\n      swap2\n      pop\n      pop\n      jump\t// out\n        /* \"#utility.yul\":6360:6540   */\n    tag_78:\n        /* \"#utility.yul\":6408:6485   */\n      0x4e487b7100000000000000000000000000000000000000000000000000000000\n        /* \"#utility.yul\":6405:6406   */\n      0x00\n        /* \"#utility.yul\":6398:6486   */\n      mstore\n        /* \"#utility.yul\":6505:6509   */\n      0x32\n        /* \"#utility.yul\":6502:6503   */\n      0x04\n        /* \"#utility.yul\":6495:6510   */\n      mstore\n        /* \"#utility.yul\":6529:6533   */\n      0x24\n        /* \"#utility.yul\":6526:6527   */\n      0x00\n        /* \"#utility.yul\":6519:6534   */\n      revert\n        /* \"#utility.yul\":6546:6726   */\n    tag_156:\n        /* \"#utility.yul\":6594:6671   */\n      0x4e487b7100000000000000000000000000000000000000000000000000000000\n        /* \"#utility.yul\":6591:6592   */\n      0x00\n        /* \"#utility.yul\":6584:6672   */\n      mstore\n        /* \"#utility.yul\":6691:6695   */\n      0x11\n        /* \"#utility.yul\":6688:6689   */\n      0x04\n        /* \"#utility.yul\":6681:6696   */\n      mstore\n        /* \"#utility.yul\":6715:6719   */\n      0x24\n        /* \"#utility.yul\":6712:6713   */\n      0x00\n        /* \"#utility.yul\":6705:6720   */\n      revert\n        /* \"#utility.yul\":6732:6926   */\n    tag_81:\n        /* \"#utility.yul\":6772:6776   */\n      0x00\n        /* \"#utility.yul\":6792:6812   */\n      tag_229\n        /* \"#utility.yul\":6810:6811   */\n      dup3\n        /* \"#utility.yul\":6792:6812   */\n      tag_134\n      jump\t// in\n    tag_229:\n        /* \"#utility.yul\":6787:6812   */\n      swap2\n      pop\n        /* \"#utility.yul\":6826:6846   */\n      tag_230\n        /* \"#utility.yul\":6844:6845   */\n      dup4\n        /* \"#utility.yul\":6826:6846   */\n      tag_134\n      jump\t// in\n    tag_230:\n        /* \"#utility.yul\":6821:6846   */\n      swap3\n      pop\n        /* \"#utility.yul\":6870:6871   */\n      dup3\n        /* \"#utility.yul\":6867:6868   */\n      dup3\n        /* \"#utility.yul\":6863:6872   */\n      sub\n        /* \"#utility.yul\":6855:6872   */\n      swap1\n      pop\n        /* \"#utility.yul\":6894:6895   */\n      dup2\n        /* \"#utility.yul\":6888:6892   */\n      dup2\n        /* \"#utility.yul\":6885:6896   */\n      gt\n        /* \"#utility.yul\":6882:6919   */\n      iszero\n      tag_231\n      jumpi\n        /* \"#utility.yul\":6899:6917   */\n      tag_232\n      tag_156\n      jump\t// in\n    tag_232:\n        /* \"#utility.yul\":6882:6919   */\n    tag_231:\n        /* \"#utility.yul\":6732:6926   */\n      swap3\n      swap2\n      pop\n      pop\n      jump\t// out\n        /* \"#utility.yul\":6932:7112   */\n    tag_90:\n        /* \"#utility.yul\":6980:7057   */\n      0x4e487b7100000000000000000000000000000000000000000000000000000000\n        /* \"#utility.yul\":6977:6978   */\n      0x00\n        /* \"#utility.yul\":6970:7058   */\n      mstore\n        /* \"#utility.yul\":7077:7081   */\n      0x31\n        /* \"#utility.yul\":7074:7075   */\n      0x04\n        /* \"#utility.yul\":7067:7082   */\n      mstore\n        /* \"#utility.yul\":7101:7105   */\n      0x24\n        /* \"#utility.yul\":7098:7099   */\n      0x00\n        /* \"#utility.yul\":7091:7106   */\n      revert\n        /* \"#utility.yul\":7118:7309   */\n    tag_93:\n        /* \"#utility.yul\":7158:7161   */\n      0x00\n        /* \"#utility.yul\":7177:7197   */\n      tag_235\n        /* \"#utility.yul\":7195:7196   */\n      dup3\n        /* \"#utility.yul\":7177:7197   */\n      tag_134\n      jump\t// in\n    tag_235:\n        /* \"#utility.yul\":7172:7197   */\n      swap2\n      pop\n        /* \"#utility.yul\":7211:7231   */\n      tag_236\n        /* \"#utility.yul\":7229:7230   */\n      dup4\n        /* \"#utility.yul\":7211:7231   */\n      tag_134\n      jump\t// in\n    tag_236:\n        /* \"#utility.yul\":7206:7231   */\n      swap3\n      pop\n        /* \"#utility.yul\":7254:7255   */\n      dup3\n        /* \"#utility.yul\":7251:7252   */\n      dup3\n        /* \"#utility.yul\":7247:7256   */\n      add\n        /* \"#utility.yul\":7240:7256   */\n      swap1\n      pop\n        /* \"#utility.yul\":7275:7278   */\n      dup1\n        /* \"#utility.yul\":7272:7273   */\n      dup3\n        /* \"#utility.yul\":7269:7279   */\n      gt\n        /* \"#utility.yul\":7266:7302   */\n      iszero\n      tag_237\n      jumpi\n        /* \"#utility.yul\":7282:7300   */\n      tag_238\n      tag_156\n      jump\t// in\n    tag_238:\n        /* \"#utility.yul\":7266:7302   */\n    tag_237:\n        /* \"#utility.yul\":7118:7309   */\n      swap3\n      swap2\n      pop\n      pop\n      jump\t// out\n        /* \"#utility.yul\":7315:7868   */\n    tag_104:\n        /* \"#utility.yul\":7492:7496   */\n      0x00\n        /* \"#utility.yul\":7530:7533   */\n      0x80\n        /* \"#utility.yul\":7519:7528   */\n      dup3\n        /* \"#utility.yul\":7515:7534   */\n      add\n        /* \"#utility.yul\":7507:7534   */\n      swap1\n      pop\n        /* \"#utility.yul\":7544:7615   */\n      tag_240\n        /* \"#utility.yul\":7612:7613   */\n      0x00\n        /* \"#utility.yul\":7601:7610   */\n      dup4\n        /* \"#utility.yul\":7597:7614   */\n      add\n        /* \"#utility.yul\":7588:7594   */\n      dup8\n        /* \"#utility.yul\":7544:7615   */\n      tag_145\n      jump\t// in\n    tag_240:\n        /* \"#utility.yul\":7625:7697   */\n      tag_241\n        /* \"#utility.yul\":7693:7695   */\n      0x20\n        /* \"#utility.yul\":7682:7691   */\n      dup4\n        /* \"#utility.yul\":7678:7696   */\n      add\n        /* \"#utility.yul\":7669:7675   */\n      dup7\n        /* \"#utility.yul\":7625:7697   */\n      tag_135\n      jump\t// in\n    tag_241:\n        /* \"#utility.yul\":7707:7779   */\n      tag_242\n        /* \"#utility.yul\":7775:7777   */\n      0x40\n        /* \"#utility.yul\":7764:7773   */\n      dup4\n        /* \"#utility.yul\":7760:7778   */\n      add\n        /* \"#utility.yul\":7751:7757   */\n      dup6\n        /* \"#utility.yul\":7707:7779   */\n      tag_145\n      jump\t// in\n    tag_242:\n        /* \"#utility.yul\":7789:7861   */\n      tag_243\n        /* \"#utility.yul\":7857:7859   */\n      0x60\n        /* \"#utility.yul\":7846:7855   */\n      dup4\n        /* \"#utility.yul\":7842:7860   */\n      add\n        /* \"#utility.yul\":7833:7839   */\n      dup5\n        /* \"#utility.yul\":7789:7861   */\n      tag_135\n      jump\t// in\n    tag_243:\n        /* \"#utility.yul\":7315:7868   */\n      swap6\n      swap5\n      pop\n      pop\n      pop\n      pop\n      pop\n      jump\t// out\n        /* \"#utility.yul\":7874:8034   */\n    tag_157:\n        /* \"#utility.yul\":8014:8026   */\n      0x4f6e6c79206f776e657200000000000000000000000000000000000000000000\n        /* \"#utility.yul\":8010:8011   */\n      0x00\n        /* \"#utility.yul\":8002:8008   */\n      dup3\n        /* \"#utility.yul\":7998:8012   */\n      add\n        /* \"#utility.yul\":7991:8027   */\n      mstore\n        /* \"#utility.yul\":7874:8034   */\n      pop\n      jump\t// out\n        /* \"#utility.yul\":8040:8406   */\n    tag_158:\n        /* \"#utility.yul\":8182:8185   */\n      0x00\n        /* \"#utility.yul\":8203:8270   */\n      tag_246\n        /* \"#utility.yul\":8267:8269   */\n      0x0a\n        /* \"#utility.yul\":8262:8265   */\n      dup4\n        /* \"#utility.yul\":8203:8270   */\n      tag_146\n      jump\t// in\n    tag_246:\n        /* \"#utility.yul\":8196:8270   */\n      swap2\n      pop\n        /* \"#utility.yul\":8279:8372   */\n      tag_247\n        /* \"#utility.yul\":8368:8371   */\n      dup3\n        /* \"#utility.yul\":8279:8372   */\n      tag_157\n      jump\t// in\n    tag_247:\n        /* \"#utility.yul\":8397:8399   */\n      0x20\n        /* \"#utility.yul\":8392:8395   */\n      dup3\n        /* \"#utility.yul\":8388:8400   */\n      add\n        /* \"#utility.yul\":8381:8400   */\n      swap1\n      pop\n        /* \"#utility.yul\":8040:8406   */\n      swap2\n      swap1\n      pop\n      jump\t// out\n        /* \"#utility.yul\":8412:8831   */\n    tag_113:\n        /* \"#utility.yul\":8578:8582   */\n      0x00\n        /* \"#utility.yul\":8616:8618   */\n      0x20\n        /* \"#utility.yul\":8605:8614   */\n      dup3\n        /* \"#utility.yul\":8601:8619   */\n      add\n        /* \"#utility.yul\":8593:8619   */\n      swap1\n      pop\n        /* \"#utility.yul\":8665:8674   */\n      dup2\n        /* \"#utility.yul\":8659:8663   */\n      dup2\n        /* \"#utility.yul\":8655:8675   */\n      sub\n        /* \"#utility.yul\":8651:8652   */\n      0x00\n        /* \"#utility.yul\":8640:8649   */\n      dup4\n        /* \"#utility.yul\":8636:8653   */\n      add\n        /* \"#utility.yul\":8629:8676   */\n      mstore\n        /* \"#utility.yul\":8693:8824   */\n      tag_249\n        /* \"#utility.yul\":8819:8823   */\n      dup2\n        /* \"#utility.yul\":8693:8824   */\n      tag_158\n      jump\t// in\n    tag_249:\n        /* \"#utility.yul\":8685:8824   */\n      swap1\n      pop\n        /* \"#utility.yul\":8412:8831   */\n      swap2\n      swap1\n      pop\n      jump\t// out\n        /* \"#utility.yul\":8837:9009   */\n    tag_159:\n        /* \"#utility.yul\":8977:9001   */\n      0x436f6d7065746974696f6e206e6f742061637469766500000000000000000000\n        /* \"#utility.yul\":8973:8974   */\n      0x00\n        /* \"#utility.yul\":8965:8971   */\n      dup3\n        /* \"#utility.yul\":8961:8975   */\n      add\n        /* \"#utility.yul\":8954:9002   */\n      mstore\n        /* \"#utility.yul\":8837:9009   */\n      pop\n      jump\t// out\n        /* \"#utility.yul\":9015:9381   */\n    tag_160:\n        /* \"#utility.yul\":9157:9160   */\n      0x00\n        /* \"#utility.yul\":9178:9245   */\n      tag_252\n        /* \"#utility.yul\":9242:9244   */\n      0x16\n        /* \"#utility.yul\":9237:9240   */\n      dup4\n        /* \"#utility.yul\":9178:9245   */\n      tag_146\n      jump\t// in\n    tag_252:\n        /* \"#utility.yul\":9171:9245   */\n      swap2\n      pop\n        /* \"#utility.yul\":9254:9347   */\n      tag_253\n        /* \"#utility.yul\":9343:9346   */\n      dup3\n        /* \"#utility.yul\":9254:9347   */\n      tag_159\n      jump\t// in\n    tag_253:\n        /* \"#utility.yul\":9372:9374   */\n      0x20\n        /* \"#utility.yul\":9367:9370   */\n      dup3\n        /* \"#utility.yul\":9363:9375   */\n      add\n        /* \"#utility.yul\":9356:9375   */\n      swap1\n      pop\n        /* \"#utility.yul\":9015:9381   */\n      swap2\n      swap1\n      pop\n      jump\t// out\n        /* \"#utility.yul\":9387:9806   */\n    tag_117:\n        /* \"#utility.yul\":9553:9557   */\n      0x00\n        /* \"#utility.yul\":9591:9593   */\n      0x20\n        /* \"#utility.yul\":9580:9589   */\n      dup3\n        /* \"#utility.yul\":9576:9594   */\n      add\n        /* \"#utility.yul\":9568:9594   */\n      swap1\n      pop\n        /* \"#utility.yul\":9640:9649   */\n      dup2\n        /* \"#utility.yul\":9634:9638   */\n      dup2\n        /* \"#utility.yul\":9630:9650   */\n      sub\n        /* \"#utility.yul\":9626:9627   */\n      0x00\n        /* \"#utility.yul\":9615:9624   */\n      dup4\n        /* \"#utility.yul\":9611:9628   */\n      add\n        /* \"#utility.yul\":9604:9651   */\n      mstore\n        /* \"#utility.yul\":9668:9799   */\n      tag_255\n        /* \"#utility.yul\":9794:9798   */\n      dup2\n        /* \"#utility.yul\":9668:9799   */\n      tag_160\n      jump\t// in\n    tag_255:\n        /* \"#utility.yul\":9660:9799   */\n      swap1\n      pop\n        /* \"#utility.yul\":9387:9806   */\n      swap2\n      swap1\n      pop\n      jump\t// out\n        /* \"#utility.yul\":9812:9980   */\n    tag_161:\n        /* \"#utility.yul\":9952:9972   */\n      0x4472617720616c726561647920656e6465640000000000000000000000000000\n        /* \"#utility.yul\":9948:9949   */\n      0x00\n        /* \"#utility.yul\":9940:9946   */\n      dup3\n        /* \"#utility.yul\":9936:9950   */\n      add\n        /* \"#utility.yul\":9929:9973   */\n      mstore\n        /* \"#utility.yul\":9812:9980   */\n      pop\n      jump\t// out\n        /* \"#utility.yul\":9986:10352   */\n    tag_162:\n        /* \"#utility.yul\":10128:10131   */\n      0x00\n        /* \"#utility.yul\":10149:10216   */\n      tag_258\n        /* \"#utility.yul\":10213:10215   */\n      0x12\n        /* \"#utility.yul\":10208:10211   */\n      dup4\n        /* \"#utility.yul\":10149:10216   */\n      tag_146\n      jump\t// in\n    tag_258:\n        /* \"#utility.yul\":10142:10216   */\n      swap2\n      pop\n        /* \"#utility.yul\":10225:10318   */\n      tag_259\n        /* \"#utility.yul\":10314:10317   */\n      dup3\n        /* \"#utility.yul\":10225:10318   */\n      tag_161\n      jump\t// in\n    tag_259:\n        /* \"#utility.yul\":10343:10345   */\n      0x20\n        /* \"#utility.yul\":10338:10341   */\n      dup3\n        /* \"#utility.yul\":10334:10346   */\n      add\n        /* \"#utility.yul\":10327:10346   */\n      swap1\n      pop\n        /* \"#utility.yul\":9986:10352   */\n      swap2\n      swap1\n      pop\n      jump\t// out\n        /* \"#utility.yul\":10358:10777   */\n    tag_120:\n        /* \"#utility.yul\":10524:10528   */\n      0x00\n        /* \"#utility.yul\":10562:10564   */\n      0x20\n        /* \"#utility.yul\":10551:10560   */\n      dup3\n        /* \"#utility.yul\":10547:10565   */\n      add\n        /* \"#utility.yul\":10539:10565   */\n      swap1\n      pop\n        /* \"#utility.yul\":10611:10620   */\n      dup2\n        /* \"#utility.yul\":10605:10609   */\n      dup2\n        /* \"#utility.yul\":10601:10621   */\n      sub\n        /* \"#utility.yul\":10597:10598   */\n      0x00\n        /* \"#utility.yul\":10586:10595   */\n      dup4\n        /* \"#utility.yul\":10582:10599   */\n      add\n        /* \"#utility.yul\":10575:10622   */\n      mstore\n        /* \"#utility.yul\":10639:10770   */\n      tag_261\n        /* \"#utility.yul\":10765:10769   */\n      dup2\n        /* \"#utility.yul\":10639:10770   */\n      tag_162\n      jump\t// in\n    tag_261:\n        /* \"#utility.yul\":10631:10770   */\n      swap1\n      pop\n        /* \"#utility.yul\":10358:10777   */\n      swap2\n      swap1\n      pop\n      jump\t// out\n        /* \"#utility.yul\":10783:10953   */\n    tag_163:\n        /* \"#utility.yul\":10923:10945   */\n      0x4e6f7420656e6f75676820785a4e4e2073656e74000000000000000000000000\n        /* \"#utility.yul\":10919:10920   */\n      0x00\n        /* \"#utility.yul\":10911:10917   */\n      dup3\n        /* \"#utility.yul\":10907:10921   */\n      add\n        /* \"#utility.yul\":10900:10946   */\n      mstore\n        /* \"#utility.yul\":10783:10953   */\n      pop\n      jump\t// out\n        /* \"#utility.yul\":10959:11325   */\n    tag_164:\n        /* \"#utility.yul\":11101:11104   */\n      0x00\n        /* \"#utility.yul\":11122:11189   */\n      tag_264\n        /* \"#utility.yul\":11186:11188   */\n      0x14\n        /* \"#utility.yul\":11181:11184   */\n      dup4\n        /* \"#utility.yul\":11122:11189   */\n      tag_146\n      jump\t// in\n    tag_264:\n        /* \"#utility.yul\":11115:11189   */\n      swap2\n      pop\n        /* \"#utility.yul\":11198:11291   */\n      tag_265\n        /* \"#utility.yul\":11287:11290   */\n      dup3\n        /* \"#utility.yul\":11198:11291   */\n      tag_163\n      jump\t// in\n    tag_265:\n        /* \"#utility.yul\":11316:11318   */\n      0x20\n        /* \"#utility.yul\":11311:11314   */\n      dup3\n        /* \"#utility.yul\":11307:11319   */\n      add\n        /* \"#utility.yul\":11300:11319   */\n      swap1\n      pop\n        /* \"#utility.yul\":10959:11325   */\n      swap2\n      swap1\n      pop\n      jump\t// out\n        /* \"#utility.yul\":11331:11750   */\n    tag_123:\n        /* \"#utility.yul\":11497:11501   */\n      0x00\n        /* \"#utility.yul\":11535:11537   */\n      0x20\n        /* \"#utility.yul\":11524:11533   */\n      dup3\n        /* \"#utility.yul\":11520:11538   */\n      add\n        /* \"#utility.yul\":11512:11538   */\n      swap1\n      pop\n        /* \"#utility.yul\":11584:11593   */\n      dup2\n        /* \"#utility.yul\":11578:11582   */\n      dup2\n        /* \"#utility.yul\":11574:11594   */\n      sub\n        /* \"#utility.yul\":11570:11571   */\n      0x00\n        /* \"#utility.yul\":11559:11568   */\n      dup4\n        /* \"#utility.yul\":11555:11572   */\n      add\n        /* \"#utility.yul\":11548:11595   */\n      mstore\n        /* \"#utility.yul\":11612:11743   */\n      tag_267\n        /* \"#utility.yul\":11738:11742   */\n      dup2\n        /* \"#utility.yul\":11612:11743   */\n      tag_164\n      jump\t// in\n    tag_267:\n        /* \"#utility.yul\":11604:11743   */\n      swap1\n      pop\n        /* \"#utility.yul\":11331:11750   */\n      swap2\n      swap1\n      pop\n      jump\t// out\n\n    auxdata: 0xa2646970667358221220433571ace837b9453620c6faff5f10cf23e2b8e90a66649bebbc3e889a6ec2bc64736f6c634300081a0033\n}\n",
				"bytecode": {
					"linkReferences": {},
					"object": "60806040525f600155671d24b2dfac520000600255670c7d713b49da00006003555f60065f6101000a81548160ff0219169083151502179055503480156043575f80fd5b50335f806101000a81548173ffffffffffffffffffffffffffffffffffffffff021916908373ffffffffffffffffffffffffffffffffffffffff1602179055506367ec45c0600581905550610fa98061009b5f395ff3fe60806040526004361061009f575f3560e01c80633d70bc52116100635780633d70bc521461017a57806374f47a7a146101a45780638da5cb5b146101ce578063d3e66a9e146101f8578063e97dcb621461020e578063eb770d0c14610218576100a6565b8063072ea61c146100aa5780631a0de74c146100d457806322f3e2d4146100ea5780632e98520c1461011457806335c1d3491461013e576100a6565b366100a657005b5f80fd5b3480156100b5575f80fd5b506100be610240565b6040516100cb91906109c7565b60405180910390f35b3480156100df575f80fd5b506100e8610246565b005b3480156100f5575f80fd5b506100fe610644565b60405161010b91906109fa565b60405180910390f35b34801561011f575f80fd5b50610128610656565b60405161013591906109c7565b60405180910390f35b348015610149575f80fd5b50610164600480360381019061015f9190610a41565b61065c565b6040516101719190610aab565b60405180910390f35b348015610185575f80fd5b5061018e610697565b60405161019b91906109c7565b60405180910390f35b3480156101af575f80fd5b506101b861069d565b6040516101c591906109c7565b60405180910390f35b3480156101d9575f80fd5b506101e26106a3565b6040516101ef9190610aab565b60405180910390f35b348015610203575f80fd5b5061020c6106c6565b005b61021661076f565b005b348015610223575f80fd5b5061023e60048036038101906102399190610a41565b6108df565b005b60015481565b5f8054906101000a900473ffffffffffffffffffffffffffffffffffffffff1673ffffffffffffffffffffffffffffffffffffffff163373ffffffffffffffffffffffffffffffffffffffff16146102d3576040517f08c379a00000000000000000000000000000000000000000000000000000000081526004016102ca90610b1e565b60405180910390fd5b600554421015610318576040517f08c379a000000000000000000000000000000000000000000000000000000000815260040161030f90610b86565b60405180910390fd5b60026004805490501015610361576040517f08c379a000000000000000000000000000000000000000000000000000000000815260040161035890610bee565b60405180910390fd5b5f600480549050426040516020016103799190610c2c565b604051602081830303815290604052805190602001205f1c61039b9190610c73565b90505f600482815481106103b2576103b1610ca3565b5b905f5260205f20015f9054906101000a900473ffffffffffffffffffffffffffffffffffffffff169050600460016004805490506103f09190610cfd565b8154811061040157610400610ca3565b5b905f5260205f20015f9054906101000a900473ffffffffffffffffffffffffffffffffffffffff166004838154811061043d5761043c610ca3565b5b905f5260205f20015f6101000a81548173ffffffffffffffffffffffffffffffffffffffff021916908373ffffffffffffffffffffffffffffffffffffffff160217905550600480548061049457610493610d30565b5b600190038181905f5260205f20015f6101000a81549073ffffffffffffffffffffffffffffffffffffffff021916905590555f6004805490506001426104da9190610d5d565b6040516020016104ea9190610c2c565b604051602081830303815290604052805190602001205f1c61050c9190610c73565b90505f6004828154811061052357610522610ca3565b5b905f5260205f20015f9054906101000a900473ffffffffffffffffffffffffffffffffffffffff1690508273ffffffffffffffffffffffffffffffffffffffff166108fc60025490811502906040515f60405180830381858888f19350505050158015610592573d5f803e3d5ffd5b508073ffffffffffffffffffffffffffffffffffffffff166108fc60035490811502906040515f60405180830381858888f193505050501580156105d8573d5f803e3d5ffd5b507f0d600c27c020374e2f6c0c8419dc78d9eed43e85d7761f337890ddfd5b25514b83600254836003546040516106129493929190610d90565b60405180910390a160045f6106279190610976565b62093a806005546106389190610d5d565b60058190555050505050565b60065f9054906101000a900460ff1681565b60025481565b6004818154811061066b575f80fd5b905f5260205f20015f915054906101000a900473ffffffffffffffffffffffffffffffffffffffff1681565b60035481565b60055481565b5f8054906101000a900473ffffffffffffffffffffffffffffffffffffffff1681565b5f8054906101000a900473ffffffffffffffffffffffffffffffffffffffff1673ffffffffffffffffffffffffffffffffffffffff163373ffffffffffffffffffffffffffffffffffffffff1614610753576040517f08c379a000000000000000000000000000000000000000000000000000000000815260040161074a90610e1d565b60405180910390fd5b600160065f6101000a81548160ff021916908315150217905550565b60065f9054906101000a900460ff166107bd576040517f08c379a00000000000000000000000000000000000000000000000000000000081526004016107b490610e85565b60405180910390fd5b6005544210610801576040517f08c379a00000000000000000000000000000000000000000000000000000000081526004016107f890610eed565b60405180910390fd5b600154341015610846576040517f08c379a000000000000000000000000000000000000000000000000000000000815260040161083d90610f55565b60405180910390fd5b600433908060018154018082558091505060019003905f5260205f20015f9091909190916101000a81548173ffffffffffffffffffffffffffffffffffffffff021916908373ffffffffffffffffffffffffffffffffffffffff1602179055507f896131ca629c91d572fa56a5496788038dae3a7dc3cc6686af073c4e13efd309336040516108d59190610aab565b60405180910390a1565b5f8054906101000a900473ffffffffffffffffffffffffffffffffffffffff1673ffffffffffffffffffffffffffffffffffffffff163373ffffffffffffffffffffffffffffffffffffffff161461096c576040517f08c379a000000000000000000000000000000000000000000000000000000000815260040161096390610e1d565b60405180910390fd5b8060018190555050565b5080545f8255905f5260205f20908101906109919190610994565b50565b5b808211156109ab575f815f905550600101610995565b5090565b5f819050919050565b6109c1816109af565b82525050565b5f6020820190506109da5f8301846109b8565b92915050565b5f8115159050919050565b6109f4816109e0565b82525050565b5f602082019050610a0d5f8301846109eb565b92915050565b5f80fd5b610a20816109af565b8114610a2a575f80fd5b50565b5f81359050610a3b81610a17565b92915050565b5f60208284031215610a5657610a55610a13565b5b5f610a6384828501610a2d565b91505092915050565b5f73ffffffffffffffffffffffffffffffffffffffff82169050919050565b5f610a9582610a6c565b9050919050565b610aa581610a8b565b82525050565b5f602082019050610abe5f830184610a9c565b92915050565b5f82825260208201905092915050565b7f4f6e6c79206f776e65722063616e207069636b2077696e6e65727300000000005f82015250565b5f610b08601b83610ac4565b9150610b1382610ad4565b602082019050919050565b5f6020820190508181035f830152610b3581610afc565b9050919050565b7f546f6f206561726c7900000000000000000000000000000000000000000000005f82015250565b5f610b70600983610ac4565b9150610b7b82610b3c565b602082019050919050565b5f6020820190508181035f830152610b9d81610b64565b9050919050565b7f4e656564206174206c65617374203220706c61796572730000000000000000005f82015250565b5f610bd8601783610ac4565b9150610be382610ba4565b602082019050919050565b5f6020820190508181035f830152610c0581610bcc565b9050919050565b5f819050919050565b610c26610c21826109af565b610c0c565b82525050565b5f610c378284610c15565b60208201915081905092915050565b7f4e487b71000000000000000000000000000000000000000000000000000000005f52601260045260245ffd5b5f610c7d826109af565b9150610c88836109af565b925082610c9857610c97610c46565b5b828206905092915050565b7f4e487b71000000000000000000000000000000000000000000000000000000005f52603260045260245ffd5b7f4e487b71000000000000000000000000000000000000000000000000000000005f52601160045260245ffd5b5f610d07826109af565b9150610d12836109af565b9250828203905081811115610d2a57610d29610cd0565b5b92915050565b7f4e487b71000000000000000000000000000000000000000000000000000000005f52603160045260245ffd5b5f610d67826109af565b9150610d72836109af565b9250828201905080821115610d8a57610d89610cd0565b5b92915050565b5f608082019050610da35f830187610a9c565b610db060208301866109b8565b610dbd6040830185610a9c565b610dca60608301846109b8565b95945050505050565b7f4f6e6c79206f776e6572000000000000000000000000000000000000000000005f82015250565b5f610e07600a83610ac4565b9150610e1282610dd3565b602082019050919050565b5f6020820190508181035f830152610e3481610dfb565b9050919050565b7f436f6d7065746974696f6e206e6f7420616374697665000000000000000000005f82015250565b5f610e6f601683610ac4565b9150610e7a82610e3b565b602082019050919050565b5f6020820190508181035f830152610e9c81610e63565b9050919050565b7f4472617720616c726561647920656e64656400000000000000000000000000005f82015250565b5f610ed7601283610ac4565b9150610ee282610ea3565b602082019050919050565b5f6020820190508181035f830152610f0481610ecb565b9050919050565b7f4e6f7420656e6f75676820785a4e4e2073656e740000000000000000000000005f82015250565b5f610f3f601483610ac4565b9150610f4a82610f0b565b602082019050919050565b5f6020820190508181035f830152610f6c81610f33565b905091905056fea2646970667358221220433571ace837b9453620c6faff5f10cf23e2b8e90a66649bebbc3e889a6ec2bc64736f6c634300081a0033",
					"opcodes": "PUSH1 0x80 PUSH1 0x40 MSTORE PUSH0 PUSH1 0x1 SSTORE PUSH8 0x1D24B2DFAC520000 PUSH1 0x2 SSTORE PUSH8 0xC7D713B49DA0000 PUSH1 0x3 SSTORE PUSH0 PUSH1 0x6 PUSH0 PUSH2 0x100 EXP DUP2 SLOAD DUP2 PUSH1 0xFF MUL NOT AND SWAP1 DUP4 ISZERO ISZERO MUL OR SWAP1 SSTORE POP CALLVALUE DUP1 ISZERO PUSH1 0x43 JUMPI PUSH0 DUP1 REVERT JUMPDEST POP CALLER PUSH0 DUP1 PUSH2 0x100 EXP DUP2 SLOAD DUP2 PUSH20 0xFFFFFFFFFFFFFFFFFFFFFFFFFFFFFFFFFFFFFFFF MUL NOT AND SWAP1 DUP4 PUSH20 0xFFFFFFFFFFFFFFFFFFFFFFFFFFFFFFFFFFFFFFFF AND MUL OR SWAP1 SSTORE POP PUSH4 0x67EC45C0 PUSH1 0x5 DUP2 SWAP1 SSTORE POP PUSH2 0xFA9 DUP1 PUSH2 0x9B PUSH0 CODECOPY PUSH0 RETURN INVALID PUSH1 0x80 PUSH1 0x40 MSTORE PUSH1 0x4 CALLDATASIZE LT PUSH2 0x9F JUMPI PUSH0 CALLDATALOAD PUSH1 0xE0 SHR DUP1 PUSH4 0x3D70BC52 GT PUSH2 0x63 JUMPI DUP1 PUSH4 0x3D70BC52 EQ PUSH2 0x17A JUMPI DUP1 PUSH4 0x74F47A7A EQ PUSH2 0x1A4 JUMPI DUP1 PUSH4 0x8DA5CB5B EQ PUSH2 0x1CE JUMPI DUP1 PUSH4 0xD3E66A9E EQ PUSH2 0x1F8 JUMPI DUP1 PUSH4 0xE97DCB62 EQ PUSH2 0x20E JUMPI DUP1 PUSH4 0xEB770D0C EQ PUSH2 0x218 JUMPI PUSH2 0xA6 JUMP JUMPDEST DUP1 PUSH4 0x72EA61C EQ PUSH2 0xAA JUMPI DUP1 PUSH4 0x1A0DE74C EQ PUSH2 0xD4 JUMPI DUP1 PUSH4 0x22F3E2D4 EQ PUSH2 0xEA JUMPI DUP1 PUSH4 0x2E98520C EQ PUSH2 0x114 JUMPI DUP1 PUSH4 0x35C1D349 EQ PUSH2 0x13E JUMPI PUSH2 0xA6 JUMP JUMPDEST CALLDATASIZE PUSH2 0xA6 JUMPI STOP JUMPDEST PUSH0 DUP1 REVERT JUMPDEST CALLVALUE DUP1 ISZERO PUSH2 0xB5 JUMPI PUSH0 DUP1 REVERT JUMPDEST POP PUSH2 0xBE PUSH2 0x240 JUMP JUMPDEST PUSH1 0x40 MLOAD PUSH2 0xCB SWAP2 SWAP1 PUSH2 0x9C7 JUMP JUMPDEST PUSH1 0x40 MLOAD DUP1 SWAP2 SUB SWAP1 RETURN JUMPDEST CALLVALUE DUP1 ISZERO PUSH2 0xDF JUMPI PUSH0 DUP1 REVERT JUMPDEST POP PUSH2 0xE8 PUSH2 0x246 JUMP JUMPDEST STOP JUMPDEST CALLVALUE DUP1 ISZERO PUSH2 0xF5 JUMPI PUSH0 DUP1 REVERT JUMPDEST POP PUSH2 0xFE PUSH2 0x644 JUMP JUMPDEST PUSH1 0x40 MLOAD PUSH2 0x10B SWAP2 SWAP1 PUSH2 0x9FA JUMP JUMPDEST PUSH1 0x40 MLOAD DUP1 SWAP2 SUB SWAP1 RETURN JUMPDEST CALLVALUE DUP1 ISZERO PUSH2 0x11F JUMPI PUSH0 DUP1 REVERT JUMPDEST POP PUSH2 0x128 PUSH2 0x656 JUMP JUMPDEST PUSH1 0x40 MLOAD PUSH2 0x135 SWAP2 SWAP1 PUSH2 0x9C7 JUMP JUMPDEST PUSH1 0x40 MLOAD DUP1 SWAP2 SUB SWAP1 RETURN JUMPDEST CALLVALUE DUP1 ISZERO PUSH2 0x149 JUMPI PUSH0 DUP1 REVERT JUMPDEST POP PUSH2 0x164 PUSH1 0x4 DUP1 CALLDATASIZE SUB DUP2 ADD SWAP1 PUSH2 0x15F SWAP2 SWAP1 PUSH2 0xA41 JUMP JUMPDEST PUSH2 0x65C JUMP JUMPDEST PUSH1 0x40 MLOAD PUSH2 0x171 SWAP2 SWAP1 PUSH2 0xAAB JUMP JUMPDEST PUSH1 0x40 MLOAD DUP1 SWAP2 SUB SWAP1 RETURN JUMPDEST CALLVALUE DUP1 ISZERO PUSH2 0x185 JUMPI PUSH0 DUP1 REVERT JUMPDEST POP PUSH2 0x18E PUSH2 0x697 JUMP JUMPDEST PUSH1 0x40 MLOAD PUSH2 0x19B SWAP2 SWAP1 PUSH2 0x9C7 JUMP JUMPDEST PUSH1 0x40 MLOAD DUP1 SWAP2 SUB SWAP1 RETURN JUMPDEST CALLVALUE DUP1 ISZERO PUSH2 0x1AF JUMPI PUSH0 DUP1 REVERT JUMPDEST POP PUSH2 0x1B8 PUSH2 0x69D JUMP JUMPDEST PUSH1 0x40 MLOAD PUSH2 0x1C5 SWAP2 SWAP1 PUSH2 0x9C7 JUMP JUMPDEST PUSH1 0x40 MLOAD DUP1 SWAP2 SUB SWAP1 RETURN JUMPDEST CALLVALUE DUP1 ISZERO PUSH2 0x1D9 JUMPI PUSH0 DUP1 REVERT JUMPDEST POP PUSH2 0x1E2 PUSH2 0x6A3 JUMP JUMPDEST PUSH1 0x40 MLOAD PUSH2 0x1EF SWAP2 SWAP1 PUSH2 0xAAB JUMP JUMPDEST PUSH1 0x40 MLOAD DUP1 SWAP2 SUB SWAP1 RETURN JUMPDEST CALLVALUE DUP1 ISZERO PUSH2 0x203 JUMPI PUSH0 DUP1 REVERT JUMPDEST POP PUSH2 0x20C PUSH2 0x6C6 JUMP JUMPDEST STOP JUMPDEST PUSH2 0x216 PUSH2 0x76F JUMP JUMPDEST STOP JUMPDEST CALLVALUE DUP1 ISZERO PUSH2 0x223 JUMPI PUSH0 DUP1 REVERT JUMPDEST POP PUSH2 0x23E PUSH1 0x4 DUP1 CALLDATASIZE SUB DUP2 ADD SWAP1 PUSH2 0x239 SWAP2 SWAP1 PUSH2 0xA41 JUMP JUMPDEST PUSH2 0x8DF JUMP JUMPDEST STOP JUMPDEST PUSH1 0x1 SLOAD DUP2 JUMP JUMPDEST PUSH0 DUP1 SLOAD SWAP1 PUSH2 0x100 EXP SWAP1 DIV PUSH20 0xFFFFFFFFFFFFFFFFFFFFFFFFFFFFFFFFFFFFFFFF AND PUSH20 0xFFFFFFFFFFFFFFFFFFFFFFFFFFFFFFFFFFFFFFFF AND CALLER PUSH20 0xFFFFFFFFFFFFFFFFFFFFFFFFFFFFFFFFFFFFFFFF AND EQ PUSH2 0x2D3 JUMPI PUSH1 0x40 MLOAD PUSH32 0x8C379A000000000000000000000000000000000000000000000000000000000 DUP2 MSTORE PUSH1 0x4 ADD PUSH2 0x2CA SWAP1 PUSH2 0xB1E JUMP JUMPDEST PUSH1 0x40 MLOAD DUP1 SWAP2 SUB SWAP1 REVERT JUMPDEST PUSH1 0x5 SLOAD TIMESTAMP LT ISZERO PUSH2 0x318 JUMPI PUSH1 0x40 MLOAD PUSH32 0x8C379A000000000000000000000000000000000000000000000000000000000 DUP2 MSTORE PUSH1 0x4 ADD PUSH2 0x30F SWAP1 PUSH2 0xB86 JUMP JUMPDEST PUSH1 0x40 MLOAD DUP1 SWAP2 SUB SWAP1 REVERT JUMPDEST PUSH1 0x2 PUSH1 0x4 DUP1 SLOAD SWAP1 POP LT ISZERO PUSH2 0x361 JUMPI PUSH1 0x40 MLOAD PUSH32 0x8C379A000000000000000000000000000000000000000000000000000000000 DUP2 MSTORE PUSH1 0x4 ADD PUSH2 0x358 SWAP1 PUSH2 0xBEE JUMP JUMPDEST PUSH1 0x40 MLOAD DUP1 SWAP2 SUB SWAP1 REVERT JUMPDEST PUSH0 PUSH1 0x4 DUP1 SLOAD SWAP1 POP TIMESTAMP PUSH1 0x40 MLOAD PUSH1 0x20 ADD PUSH2 0x379 SWAP2 SWAP1 PUSH2 0xC2C JUMP JUMPDEST PUSH1 0x40 MLOAD PUSH1 0x20 DUP2 DUP4 SUB SUB DUP2 MSTORE SWAP1 PUSH1 0x40 MSTORE DUP1 MLOAD SWAP1 PUSH1 0x20 ADD KECCAK256 PUSH0 SHR PUSH2 0x39B SWAP2 SWAP1 PUSH2 0xC73 JUMP JUMPDEST SWAP1 POP PUSH0 PUSH1 0x4 DUP3 DUP2 SLOAD DUP2 LT PUSH2 0x3B2 JUMPI PUSH2 0x3B1 PUSH2 0xCA3 JUMP JUMPDEST JUMPDEST SWAP1 PUSH0 MSTORE PUSH1 0x20 PUSH0 KECCAK256 ADD PUSH0 SWAP1 SLOAD SWAP1 PUSH2 0x100 EXP SWAP1 DIV PUSH20 0xFFFFFFFFFFFFFFFFFFFFFFFFFFFFFFFFFFFFFFFF AND SWAP1 POP PUSH1 0x4 PUSH1 0x1 PUSH1 0x4 DUP1 SLOAD SWAP1 POP PUSH2 0x3F0 SWAP2 SWAP1 PUSH2 0xCFD JUMP JUMPDEST DUP2 SLOAD DUP2 LT PUSH2 0x401 JUMPI PUSH2 0x400 PUSH2 0xCA3 JUMP JUMPDEST JUMPDEST SWAP1 PUSH0 MSTORE PUSH1 0x20 PUSH0 KECCAK256 ADD PUSH0 SWAP1 SLOAD SWAP1 PUSH2 0x100 EXP SWAP1 DIV PUSH20 0xFFFFFFFFFFFFFFFFFFFFFFFFFFFFFFFFFFFFFFFF AND PUSH1 0x4 DUP4 DUP2 SLOAD DUP2 LT PUSH2 0x43D JUMPI PUSH2 0x43C PUSH2 0xCA3 JUMP JUMPDEST JUMPDEST SWAP1 PUSH0 MSTORE PUSH1 0x20 PUSH0 KECCAK256 ADD PUSH0 PUSH2 0x100 EXP DUP2 SLOAD DUP2 PUSH20 0xFFFFFFFFFFFFFFFFFFFFFFFFFFFFFFFFFFFFFFFF MUL NOT AND SWAP1 DUP4 PUSH20 0xFFFFFFFFFFFFFFFFFFFFFFFFFFFFFFFFFFFFFFFF AND MUL OR SWAP1 SSTORE POP PUSH1 0x4 DUP1 SLOAD DUP1 PUSH2 0x494 JUMPI PUSH2 0x493 PUSH2 0xD30 JUMP JUMPDEST JUMPDEST PUSH1 0x1 SWAP1 SUB DUP2 DUP2 SWAP1 PUSH0 MSTORE PUSH1 0x20 PUSH0 KECCAK256 ADD PUSH0 PUSH2 0x100 EXP DUP2 SLOAD SWAP1 PUSH20 0xFFFFFFFFFFFFFFFFFFFFFFFFFFFFFFFFFFFFFFFF MUL NOT AND SWAP1 SSTORE SWAP1 SSTORE PUSH0 PUSH1 0x4 DUP1 SLOAD SWAP1 POP PUSH1 0x1 TIMESTAMP PUSH2 0x4DA SWAP2 SWAP1 PUSH2 0xD5D JUMP JUMPDEST PUSH1 0x40 MLOAD PUSH1 0x20 ADD PUSH2 0x4EA SWAP2 SWAP1 PUSH2 0xC2C JUMP JUMPDEST PUSH1 0x40 MLOAD PUSH1 0x20 DUP2 DUP4 SUB SUB DUP2 MSTORE SWAP1 PUSH1 0x40 MSTORE DUP1 MLOAD SWAP1 PUSH1 0x20 ADD KECCAK256 PUSH0 SHR PUSH2 0x50C SWAP2 SWAP1 PUSH2 0xC73 JUMP JUMPDEST SWAP1 POP PUSH0 PUSH1 0x4 DUP3 DUP2 SLOAD DUP2 LT PUSH2 0x523 JUMPI PUSH2 0x522 PUSH2 0xCA3 JUMP JUMPDEST JUMPDEST SWAP1 PUSH0 MSTORE PUSH1 0x20 PUSH0 KECCAK256 ADD PUSH0 SWAP1 SLOAD SWAP1 PUSH2 0x100 EXP SWAP1 DIV PUSH20 0xFFFFFFFFFFFFFFFFFFFFFFFFFFFFFFFFFFFFFFFF AND SWAP1 POP DUP3 PUSH20 0xFFFFFFFFFFFFFFFFFFFFFFFFFFFFFFFFFFFFFFFF AND PUSH2 0x8FC PUSH1 0x2 SLOAD SWAP1 DUP2 ISZERO MUL SWAP1 PUSH1 0x40 MLOAD PUSH0 PUSH1 0x40 MLOAD DUP1 DUP4 SUB DUP2 DUP6 DUP9 DUP9 CALL SWAP4 POP POP POP POP ISZERO DUP1 ISZERO PUSH2 0x592 JUMPI RETURNDATASIZE PUSH0 DUP1 RETURNDATACOPY RETURNDATASIZE PUSH0 REVERT JUMPDEST POP DUP1 PUSH20 0xFFFFFFFFFFFFFFFFFFFFFFFFFFFFFFFFFFFFFFFF AND PUSH2 0x8FC PUSH1 0x3 SLOAD SWAP1 DUP2 ISZERO MUL SWAP1 PUSH1 0x40 MLOAD PUSH0 PUSH1 0x40 MLOAD DUP1 DUP4 SUB DUP2 DUP6 DUP9 DUP9 CALL SWAP4 POP POP POP POP ISZERO DUP1 ISZERO PUSH2 0x5D8 JUMPI RETURNDATASIZE PUSH0 DUP1 RETURNDATACOPY RETURNDATASIZE PUSH0 REVERT JUMPDEST POP PUSH32 0xD600C27C020374E2F6C0C8419DC78D9EED43E85D7761F337890DDFD5B25514B DUP4 PUSH1 0x2 SLOAD DUP4 PUSH1 0x3 SLOAD PUSH1 0x40 MLOAD PUSH2 0x612 SWAP5 SWAP4 SWAP3 SWAP2 SWAP1 PUSH2 0xD90 JUMP JUMPDEST PUSH1 0x40 MLOAD DUP1 SWAP2 SUB SWAP1 LOG1 PUSH1 0x4 PUSH0 PUSH2 0x627 SWAP2 SWAP1 PUSH2 0x976 JUMP JUMPDEST PUSH3 0x93A80 PUSH1 0x5 SLOAD PUSH2 0x638 SWAP2 SWAP1 PUSH2 0xD5D JUMP JUMPDEST PUSH1 0x5 DUP2 SWAP1 SSTORE POP POP POP POP POP JUMP JUMPDEST PUSH1 0x6 PUSH0 SWAP1 SLOAD SWAP1 PUSH2 0x100 EXP SWAP1 DIV PUSH1 0xFF AND DUP2 JUMP JUMPDEST PUSH1 0x2 SLOAD DUP2 JUMP JUMPDEST PUSH1 0x4 DUP2 DUP2 SLOAD DUP2 LT PUSH2 0x66B JUMPI PUSH0 DUP1 REVERT JUMPDEST SWAP1 PUSH0 MSTORE PUSH1 0x20 PUSH0 KECCAK256 ADD PUSH0 SWAP2 POP SLOAD SWAP1 PUSH2 0x100 EXP SWAP1 DIV PUSH20 0xFFFFFFFFFFFFFFFFFFFFFFFFFFFFFFFFFFFFFFFF AND DUP2 JUMP JUMPDEST PUSH1 0x3 SLOAD DUP2 JUMP JUMPDEST PUSH1 0x5 SLOAD DUP2 JUMP JUMPDEST PUSH0 DUP1 SLOAD SWAP1 PUSH2 0x100 EXP SWAP1 DIV PUSH20 0xFFFFFFFFFFFFFFFFFFFFFFFFFFFFFFFFFFFFFFFF AND DUP2 JUMP JUMPDEST PUSH0 DUP1 SLOAD SWAP1 PUSH2 0x100 EXP SWAP1 DIV PUSH20 0xFFFFFFFFFFFFFFFFFFFFFFFFFFFFFFFFFFFFFFFF AND PUSH20 0xFFFFFFFFFFFFFFFFFFFFFFFFFFFFFFFFFFFFFFFF AND CALLER PUSH20 0xFFFFFFFFFFFFFFFFFFFFFFFFFFFFFFFFFFFFFFFF AND EQ PUSH2 0x753 JUMPI PUSH1 0x40 MLOAD PUSH32 0x8C379A000000000000000000000000000000000000000000000000000000000 DUP2 MSTORE PUSH1 0x4 ADD PUSH2 0x74A SWAP1 PUSH2 0xE1D JUMP JUMPDEST PUSH1 0x40 MLOAD DUP1 SWAP2 SUB SWAP1 REVERT JUMPDEST PUSH1 0x1 PUSH1 0x6 PUSH0 PUSH2 0x100 EXP DUP2 SLOAD DUP2 PUSH1 0xFF MUL NOT AND SWAP1 DUP4 ISZERO ISZERO MUL OR SWAP1 SSTORE POP JUMP JUMPDEST PUSH1 0x6 PUSH0 SWAP1 SLOAD SWAP1 PUSH2 0x100 EXP SWAP1 DIV PUSH1 0xFF AND PUSH2 0x7BD JUMPI PUSH1 0x40 MLOAD PUSH32 0x8C379A000000000000000000000000000000000000000000000000000000000 DUP2 MSTORE PUSH1 0x4 ADD PUSH2 0x7B4 SWAP1 PUSH2 0xE85 JUMP JUMPDEST PUSH1 0x40 MLOAD DUP1 SWAP2 SUB SWAP1 REVERT JUMPDEST PUSH1 0x5 SLOAD TIMESTAMP LT PUSH2 0x801 JUMPI PUSH1 0x40 MLOAD PUSH32 0x8C379A000000000000000000000000000000000000000000000000000000000 DUP2 MSTORE PUSH1 0x4 ADD PUSH2 0x7F8 SWAP1 PUSH2 0xEED JUMP JUMPDEST PUSH1 0x40 MLOAD DUP1 SWAP2 SUB SWAP1 REVERT JUMPDEST PUSH1 0x1 SLOAD CALLVALUE LT ISZERO PUSH2 0x846 JUMPI PUSH1 0x40 MLOAD PUSH32 0x8C379A000000000000000000000000000000000000000000000000000000000 DUP2 MSTORE PUSH1 0x4 ADD PUSH2 0x83D SWAP1 PUSH2 0xF55 JUMP JUMPDEST PUSH1 0x40 MLOAD DUP1 SWAP2 SUB SWAP1 REVERT JUMPDEST PUSH1 0x4 CALLER SWAP1 DUP1 PUSH1 0x1 DUP2 SLOAD ADD DUP1 DUP3 SSTORE DUP1 SWAP2 POP POP PUSH1 0x1 SWAP1 SUB SWAP1 PUSH0 MSTORE PUSH1 0x20 PUSH0 KECCAK256 ADD PUSH0 SWAP1 SWAP2 SWAP1 SWAP2 SWAP1 SWAP2 PUSH2 0x100 EXP DUP2 SLOAD DUP2 PUSH20 0xFFFFFFFFFFFFFFFFFFFFFFFFFFFFFFFFFFFFFFFF MUL NOT AND SWAP1 DUP4 PUSH20 0xFFFFFFFFFFFFFFFFFFFFFFFFFFFFFFFFFFFFFFFF AND MUL OR SWAP1 SSTORE POP PUSH32 0x896131CA629C91D572FA56A5496788038DAE3A7DC3CC6686AF073C4E13EFD309 CALLER PUSH1 0x40 MLOAD PUSH2 0x8D5 SWAP2 SWAP1 PUSH2 0xAAB JUMP JUMPDEST PUSH1 0x40 MLOAD DUP1 SWAP2 SUB SWAP1 LOG1 JUMP JUMPDEST PUSH0 DUP1 SLOAD SWAP1 PUSH2 0x100 EXP SWAP1 DIV PUSH20 0xFFFFFFFFFFFFFFFFFFFFFFFFFFFFFFFFFFFFFFFF AND PUSH20 0xFFFFFFFFFFFFFFFFFFFFFFFFFFFFFFFFFFFFFFFF AND CALLER PUSH20 0xFFFFFFFFFFFFFFFFFFFFFFFFFFFFFFFFFFFFFFFF AND EQ PUSH2 0x96C JUMPI PUSH1 0x40 MLOAD PUSH32 0x8C379A000000000000000000000000000000000000000000000000000000000 DUP2 MSTORE PUSH1 0x4 ADD PUSH2 0x963 SWAP1 PUSH2 0xE1D JUMP JUMPDEST PUSH1 0x40 MLOAD DUP1 SWAP2 SUB SWAP1 REVERT JUMPDEST DUP1 PUSH1 0x1 DUP2 SWAP1 SSTORE POP POP JUMP JUMPDEST POP DUP1 SLOAD PUSH0 DUP3 SSTORE SWAP1 PUSH0 MSTORE PUSH1 0x20 PUSH0 KECCAK256 SWAP1 DUP2 ADD SWAP1 PUSH2 0x991 SWAP2 SWAP1 PUSH2 0x994 JUMP JUMPDEST POP JUMP JUMPDEST JUMPDEST DUP1 DUP3 GT ISZERO PUSH2 0x9AB JUMPI PUSH0 DUP2 PUSH0 SWAP1 SSTORE POP PUSH1 0x1 ADD PUSH2 0x995 JUMP JUMPDEST POP SWAP1 JUMP JUMPDEST PUSH0 DUP2 SWAP1 POP SWAP2 SWAP1 POP JUMP JUMPDEST PUSH2 0x9C1 DUP2 PUSH2 0x9AF JUMP JUMPDEST DUP3 MSTORE POP POP JUMP JUMPDEST PUSH0 PUSH1 0x20 DUP3 ADD SWAP1 POP PUSH2 0x9DA PUSH0 DUP4 ADD DUP5 PUSH2 0x9B8 JUMP JUMPDEST SWAP3 SWAP2 POP POP JUMP JUMPDEST PUSH0 DUP2 ISZERO ISZERO SWAP1 POP SWAP2 SWAP1 POP JUMP JUMPDEST PUSH2 0x9F4 DUP2 PUSH2 0x9E0 JUMP JUMPDEST DUP3 MSTORE POP POP JUMP JUMPDEST PUSH0 PUSH1 0x20 DUP3 ADD SWAP1 POP PUSH2 0xA0D PUSH0 DUP4 ADD DUP5 PUSH2 0x9EB JUMP JUMPDEST SWAP3 SWAP2 POP POP JUMP JUMPDEST PUSH0 DUP1 REVERT JUMPDEST PUSH2 0xA20 DUP2 PUSH2 0x9AF JUMP JUMPDEST DUP2 EQ PUSH2 0xA2A JUMPI PUSH0 DUP1 REVERT JUMPDEST POP JUMP JUMPDEST PUSH0 DUP2 CALLDATALOAD SWAP1 POP PUSH2 0xA3B DUP2 PUSH2 0xA17 JUMP JUMPDEST SWAP3 SWAP2 POP POP JUMP JUMPDEST PUSH0 PUSH1 0x20 DUP3 DUP5 SUB SLT ISZERO PUSH2 0xA56 JUMPI PUSH2 0xA55 PUSH2 0xA13 JUMP JUMPDEST JUMPDEST PUSH0 PUSH2 0xA63 DUP5 DUP3 DUP6 ADD PUSH2 0xA2D JUMP JUMPDEST SWAP2 POP POP SWAP3 SWAP2 POP POP JUMP JUMPDEST PUSH0 PUSH20 0xFFFFFFFFFFFFFFFFFFFFFFFFFFFFFFFFFFFFFFFF DUP3 AND SWAP1 POP SWAP2 SWAP1 POP JUMP JUMPDEST PUSH0 PUSH2 0xA95 DUP3 PUSH2 0xA6C JUMP JUMPDEST SWAP1 POP SWAP2 SWAP1 POP JUMP JUMPDEST PUSH2 0xAA5 DUP2 PUSH2 0xA8B JUMP JUMPDEST DUP3 MSTORE POP POP JUMP JUMPDEST PUSH0 PUSH1 0x20 DUP3 ADD SWAP1 POP PUSH2 0xABE PUSH0 DUP4 ADD DUP5 PUSH2 0xA9C JUMP JUMPDEST SWAP3 SWAP2 POP POP JUMP JUMPDEST PUSH0 DUP3 DUP3 MSTORE PUSH1 0x20 DUP3 ADD SWAP1 POP SWAP3 SWAP2 POP POP JUMP JUMPDEST PUSH32 0x4F6E6C79206F776E65722063616E207069636B2077696E6E6572730000000000 PUSH0 DUP3 ADD MSTORE POP JUMP JUMPDEST PUSH0 PUSH2 0xB08 PUSH1 0x1B DUP4 PUSH2 0xAC4 JUMP JUMPDEST SWAP2 POP PUSH2 0xB13 DUP3 PUSH2 0xAD4 JUMP JUMPDEST PUSH1 0x20 DUP3 ADD SWAP1 POP SWAP2 SWAP1 POP JUMP JUMPDEST PUSH0 PUSH1 0x20 DUP3 ADD SWAP1 POP DUP2 DUP2 SUB PUSH0 DUP4 ADD MSTORE PUSH2 0xB35 DUP2 PUSH2 0xAFC JUMP JUMPDEST SWAP1 POP SWAP2 SWAP1 POP JUMP JUMPDEST PUSH32 0x546F6F206561726C790000000000000000000000000000000000000000000000 PUSH0 DUP3 ADD MSTORE POP JUMP JUMPDEST PUSH0 PUSH2 0xB70 PUSH1 0x9 DUP4 PUSH2 0xAC4 JUMP JUMPDEST SWAP2 POP PUSH2 0xB7B DUP3 PUSH2 0xB3C JUMP JUMPDEST PUSH1 0x20 DUP3 ADD SWAP1 POP SWAP2 SWAP1 POP JUMP JUMPDEST PUSH0 PUSH1 0x20 DUP3 ADD SWAP1 POP DUP2 DUP2 SUB PUSH0 DUP4 ADD MSTORE PUSH2 0xB9D DUP2 PUSH2 0xB64 JUMP JUMPDEST SWAP1 POP SWAP2 SWAP1 POP JUMP JUMPDEST PUSH32 0x4E656564206174206C65617374203220706C6179657273000000000000000000 PUSH0 DUP3 ADD MSTORE POP JUMP JUMPDEST PUSH0 PUSH2 0xBD8 PUSH1 0x17 DUP4 PUSH2 0xAC4 JUMP JUMPDEST SWAP2 POP PUSH2 0xBE3 DUP3 PUSH2 0xBA4 JUMP JUMPDEST PUSH1 0x20 DUP3 ADD SWAP1 POP SWAP2 SWAP1 POP JUMP JUMPDEST PUSH0 PUSH1 0x20 DUP3 ADD SWAP1 POP DUP2 DUP2 SUB PUSH0 DUP4 ADD MSTORE PUSH2 0xC05 DUP2 PUSH2 0xBCC JUMP JUMPDEST SWAP1 POP SWAP2 SWAP1 POP JUMP JUMPDEST PUSH0 DUP2 SWAP1 POP SWAP2 SWAP1 POP JUMP JUMPDEST PUSH2 0xC26 PUSH2 0xC21 DUP3 PUSH2 0x9AF JUMP JUMPDEST PUSH2 0xC0C JUMP JUMPDEST DUP3 MSTORE POP POP JUMP JUMPDEST PUSH0 PUSH2 0xC37 DUP3 DUP5 PUSH2 0xC15 JUMP JUMPDEST PUSH1 0x20 DUP3 ADD SWAP2 POP DUP2 SWAP1 POP SWAP3 SWAP2 POP POP JUMP JUMPDEST PUSH32 0x4E487B7100000000000000000000000000000000000000000000000000000000 PUSH0 MSTORE PUSH1 0x12 PUSH1 0x4 MSTORE PUSH1 0x24 PUSH0 REVERT JUMPDEST PUSH0 PUSH2 0xC7D DUP3 PUSH2 0x9AF JUMP JUMPDEST SWAP2 POP PUSH2 0xC88 DUP4 PUSH2 0x9AF JUMP JUMPDEST SWAP3 POP DUP3 PUSH2 0xC98 JUMPI PUSH2 0xC97 PUSH2 0xC46 JUMP JUMPDEST JUMPDEST DUP3 DUP3 MOD SWAP1 POP SWAP3 SWAP2 POP POP JUMP JUMPDEST PUSH32 0x4E487B7100000000000000000000000000000000000000000000000000000000 PUSH0 MSTORE PUSH1 0x32 PUSH1 0x4 MSTORE PUSH1 0x24 PUSH0 REVERT JUMPDEST PUSH32 0x4E487B7100000000000000000000000000000000000000000000000000000000 PUSH0 MSTORE PUSH1 0x11 PUSH1 0x4 MSTORE PUSH1 0x24 PUSH0 REVERT JUMPDEST PUSH0 PUSH2 0xD07 DUP3 PUSH2 0x9AF JUMP JUMPDEST SWAP2 POP PUSH2 0xD12 DUP4 PUSH2 0x9AF JUMP JUMPDEST SWAP3 POP DUP3 DUP3 SUB SWAP1 POP DUP2 DUP2 GT ISZERO PUSH2 0xD2A JUMPI PUSH2 0xD29 PUSH2 0xCD0 JUMP JUMPDEST JUMPDEST SWAP3 SWAP2 POP POP JUMP JUMPDEST PUSH32 0x4E487B7100000000000000000000000000000000000000000000000000000000 PUSH0 MSTORE PUSH1 0x31 PUSH1 0x4 MSTORE PUSH1 0x24 PUSH0 REVERT JUMPDEST PUSH0 PUSH2 0xD67 DUP3 PUSH2 0x9AF JUMP JUMPDEST SWAP2 POP PUSH2 0xD72 DUP4 PUSH2 0x9AF JUMP JUMPDEST SWAP3 POP DUP3 DUP3 ADD SWAP1 POP DUP1 DUP3 GT ISZERO PUSH2 0xD8A JUMPI PUSH2 0xD89 PUSH2 0xCD0 JUMP JUMPDEST JUMPDEST SWAP3 SWAP2 POP POP JUMP JUMPDEST PUSH0 PUSH1 0x80 DUP3 ADD SWAP1 POP PUSH2 0xDA3 PUSH0 DUP4 ADD DUP8 PUSH2 0xA9C JUMP JUMPDEST PUSH2 0xDB0 PUSH1 0x20 DUP4 ADD DUP7 PUSH2 0x9B8 JUMP JUMPDEST PUSH2 0xDBD PUSH1 0x40 DUP4 ADD DUP6 PUSH2 0xA9C JUMP JUMPDEST PUSH2 0xDCA PUSH1 0x60 DUP4 ADD DUP5 PUSH2 0x9B8 JUMP JUMPDEST SWAP6 SWAP5 POP POP POP POP POP JUMP JUMPDEST PUSH32 0x4F6E6C79206F776E657200000000000000000000000000000000000000000000 PUSH0 DUP3 ADD MSTORE POP JUMP JUMPDEST PUSH0 PUSH2 0xE07 PUSH1 0xA DUP4 PUSH2 0xAC4 JUMP JUMPDEST SWAP2 POP PUSH2 0xE12 DUP3 PUSH2 0xDD3 JUMP JUMPDEST PUSH1 0x20 DUP3 ADD SWAP1 POP SWAP2 SWAP1 POP JUMP JUMPDEST PUSH0 PUSH1 0x20 DUP3 ADD SWAP1 POP DUP2 DUP2 SUB PUSH0 DUP4 ADD MSTORE PUSH2 0xE34 DUP2 PUSH2 0xDFB JUMP JUMPDEST SWAP1 POP SWAP2 SWAP1 POP JUMP JUMPDEST PUSH32 0x436F6D7065746974696F6E206E6F742061637469766500000000000000000000 PUSH0 DUP3 ADD MSTORE POP JUMP JUMPDEST PUSH0 PUSH2 0xE6F PUSH1 0x16 DUP4 PUSH2 0xAC4 JUMP JUMPDEST SWAP2 POP PUSH2 0xE7A DUP3 PUSH2 0xE3B JUMP JUMPDEST PUSH1 0x20 DUP3 ADD SWAP1 POP SWAP2 SWAP1 POP JUMP JUMPDEST PUSH0 PUSH1 0x20 DUP3 ADD SWAP1 POP DUP2 DUP2 SUB PUSH0 DUP4 ADD MSTORE PUSH2 0xE9C DUP2 PUSH2 0xE63 JUMP JUMPDEST SWAP1 POP SWAP2 SWAP1 POP JUMP JUMPDEST PUSH32 0x4472617720616C726561647920656E6465640000000000000000000000000000 PUSH0 DUP3 ADD MSTORE POP JUMP JUMPDEST PUSH0 PUSH2 0xED7 PUSH1 0x12 DUP4 PUSH2 0xAC4 JUMP JUMPDEST SWAP2 POP PUSH2 0xEE2 DUP3 PUSH2 0xEA3 JUMP JUMPDEST PUSH1 0x20 DUP3 ADD SWAP1 POP SWAP2 SWAP1 POP JUMP JUMPDEST PUSH0 PUSH1 0x20 DUP3 ADD SWAP1 POP DUP2 DUP2 SUB PUSH0 DUP4 ADD MSTORE PUSH2 0xF04 DUP2 PUSH2 0xECB JUMP JUMPDEST SWAP1 POP SWAP2 SWAP1 POP JUMP JUMPDEST PUSH32 0x4E6F7420656E6F75676820785A4E4E2073656E74000000000000000000000000 PUSH0 DUP3 ADD MSTORE POP JUMP JUMPDEST PUSH0 PUSH2 0xF3F PUSH1 0x14 DUP4 PUSH2 0xAC4 JUMP JUMPDEST SWAP2 POP PUSH2 0xF4A DUP3 PUSH2 0xF0B JUMP JUMPDEST PUSH1 0x20 DUP3 ADD SWAP1 POP SWAP2 SWAP1 POP JUMP JUMPDEST PUSH0 PUSH1 0x20 DUP3 ADD SWAP1 POP DUP2 DUP2 SUB PUSH0 DUP4 ADD MSTORE PUSH2 0xF6C DUP2 PUSH2 0xF33 JUMP JUMPDEST SWAP1 POP SWAP2 SWAP1 POP JUMP INVALID LOG2 PUSH5 0x6970667358 0x22 SLT KECCAK256 NUMBER CALLDATALOAD PUSH18 0xACE837B9453620C6FAFF5F10CF23E2B8E90A PUSH7 0x649BEBBC3E889A PUSH15 0xC2BC64736F6C634300081A00330000 "
				},
				"gasEstimates": {
					"creation": {
						"codeDepositCost": "801800",
						"executionCost": "120697",
						"totalCost": "922497"
					},
					"external": {
						"enter()": "56416",
						"entryFee()": "2426",
						"firstPrize()": "2492",
						"isActive()": "2511",
						"nextDrawTime()": "2447",
						"owner()": "2549",
						"participants(uint256)": "5033",
						"secondPrize()": "2425",
						"selectWinners()": "infinite",
						"setEntryFee(uint256)": "24791",
						"startCompetition()": "26641"
					}
				},
				"methodIdentifiers": {
					"enter()": "e97dcb62",
					"entryFee()": "072ea61c",
					"firstPrize()": "2e98520c",
					"isActive()": "22f3e2d4",
					"nextDrawTime()": "74f47a7a",
					"owner()": "8da5cb5b",
					"participants(uint256)": "35c1d349",
					"secondPrize()": "3d70bc52",
					"selectWinners()": "1a0de74c",
					"setEntryFee(uint256)": "eb770d0c",
					"startCompetition()": "d3e66a9e"
				}
			},
			"storageLayout": {
				"storage": [
					{
						"astId": 3,
						"contract": "FZF/FZFtest.sol:FreeZenonFriday",
						"label": "owner",
						"offset": 0,
						"slot": "0",
						"type": "t_address"
					},
					{
						"astId": 6,
						"contract": "FZF/FZFtest.sol:FreeZenonFriday",
						"label": "entryFee",
						"offset": 0,
						"slot": "1",
						"type": "t_uint256"
					},
					{
						"astId": 9,
						"contract": "FZF/FZFtest.sol:FreeZenonFriday",
						"label": "firstPrize",
						"offset": 0,
						"slot": "2",
						"type": "t_uint256"
					},
					{
						"astId": 12,
						"contract": "FZF/FZFtest.sol:FreeZenonFriday",
						"label": "secondPrize",
						"offset": 0,
						"slot": "3",
						"type": "t_uint256"
					},
					{
						"astId": 15,
						"contract": "FZF/FZFtest.sol:FreeZenonFriday",
						"label": "participants",
						"offset": 0,
						"slot": "4",
						"type": "t_array(t_address)dyn_storage"
					},
					{
						"astId": 17,
						"contract": "FZF/FZFtest.sol:FreeZenonFriday",
						"label": "nextDrawTime",
						"offset": 0,
						"slot": "5",
						"type": "t_uint256"
					},
					{
						"astId": 20,
						"contract": "FZF/FZFtest.sol:FreeZenonFriday",
						"label": "isActive",
						"offset": 0,
						"slot": "6",
						"type": "t_bool"
					}
				],
				"types": {
					"t_address": {
						"encoding": "inplace",
						"label": "address",
						"numberOfBytes": "20"
					},
					"t_array(t_address)dyn_storage": {
						"base": "t_address",
						"encoding": "dynamic_array",
						"label": "address[]",
						"numberOfBytes": "32"
					},
					"t_bool": {
						"encoding": "inplace",
						"label": "bool",
						"numberOfBytes": "1"
					},
					"t_uint256": {
						"encoding": "inplace",
						"label": "uint256",
						"numberOfBytes": "32"
					}
				}
			},
			"userdoc": {
				"kind": "user",
				"methods": {},
				"version": 1
			}
		}
	}
}